:1000000045C0000062C0000060C000005EC000008B
:100010005CC000005AC0000058C0000056C000007C
:1000200054C0000052C0000050C000004EC000008C
:100030004CC000004AC0000048C0000046C000009C
:1000400044C0000042C0000040C000003EC00000AC
:100050003CC000003AC0000038C0000036C00000BC
:1000600034C0000032C0000030C000002EC00000CC
:100070002CC000002AC0000028C0000026C00000DC
:1000800024C0000022C0000020C0000011241FBEB8
:10009000CFEFD0E4DEBFCDBF13E0A0E0B1E0E2E2FD
:1000A000F9E200E00BBF02C007900D92AE33B1073A
:1000B000D9F723E0AEE3B3E001C01D92A234B2074A
:1000C000E1F70E94D8120C948F149ACF4EE003C02F
:1000D0004CE001C04AE02F923F924F925F926F92A4
:1000E0007F928F929F92AF92BF92CF92DF92EF92C8
:1000F000FF920F931F93CF93DF938F939F93DB0117
:10010000FC01842FE89481909190A190B190C190CE
:10011000D190E190F1900191119121913191419112
:100120005191619171919BE1F0E20D9080240D90CD
:1001300090240D90A0240D90B0240D90C0240D901B
:10014000D0240D90E0240D90F0240D9000250D900A
:1001500010250D9020250D9030250D9040250D90F7
:1001600050250D9060250D9070252EF5FF91EF9193
:1001700081929192A192B192C192D192E192F19227
:10018000019311932193319341935193619371930F
:10019000DF91CF911F910F91FF90EF90DF90CF9063
:1001A000BF90AF909F908F907F906F905F904F9097
:1001B0003F902F9008958A9509F46894E82D8490D3
:1001C000EC2DC490E02F0491E42F4491E92D24906C
:1001D000ED2D9490E12FD490E52F1491522DEA2D1E
:1001E0002490EE2D3490E22FA490E62FE490222D5F
:1001F000632DEB2D2490E72FB490E32F7491EF2D16
:100200003491F22C0EF491CF0A2C0B24402C282C84
:1002100089240824880C08F4892680248224392C17
:100220003A24330C08F4392630249324440C08F47F
:1002300049264024A4242B24220C08F42926202417
:10024000B2240E2C0F24402C2C2CCD240C24CC0CAE
:1002500008F4C926C024C2243D2C3E24330C08F4E3
:1002600039263024D324440C08F449264024E424BD
:100270002F24220C08F429262024F224022E0326FF
:10028000402C202E01270026000F08F40927002506
:100290000225312E3226330C08F43926302413255A
:1002A000440C08F44926402424252326220C08F473
:1002B000292620243225062E0726402C242E4527C9
:1002C0000426440F08F4492740254225352E3626BA
:1002D000330C08F4392630245325440C08F44926FD
:1002E000402464252726220C08F429262024722580
:1002F0001CCF2F923F924F925F926F927F928F927C
:100300009F92AF92BF92CF92DF92EF92FF920F93A4
:100310001F932F933F934F935F936F937F938F938D
:100320009F93CF93DF938F939F93DB01FC01019009
:1003300011902190319041905190619071908190F5
:100340009190A190B190C190D190E190F190AF9334
:10035000BF934F935F93F1E0D2E00D9100260D9192
:1003600010260D9120260D9130260D9140260D91DD
:1003700050260D9160260D9170260D9180260D91CD
:1003800090260D91A0260D91B0260D91C0260D91BD
:10039000D0260D91E0260D91F026F394E02D1081EA
:1003A000212F322FC02D08813027E52D40810427D1
:1003B00024273427C52D488104271427EA2D40819E
:1003C000042714273427CA2D488114272427EF2D0A
:1003D0004081042714272427CF2D48812427342740
:1003E000002EE42D5081652F762FC42D488174276F
:1003F000E92D0081402760277027C92D08814027FB
:100400005027EE2D0081402750277027CE2D0881E0
:1004100050276027E32D0081402750276027C32DF8
:10042000088160277027442E552E332EE82D4081F9
:10043000542F352FC82D08813027ED2D90810927A5
:1004400059273927CD2D988109274927E22D9081F9
:10045000092749273927C22D988149275927E72D90
:100460009081092749275927C72D9881592739276E
:10047000802E942EA52E772EEC2D5081752F972F40
:10048000CC2D48819427E12D0081402770279027AB
:10049000C12D088140275027E62D00814027502795
:1004A0009027C62D088150277027EB2D008140270B
:1004B00050277027CB2D088170279027C42ED52E6A
:1004C000E72EF92E112E222E662EB32E0D91002628
:1004D0000D9110260D9120260D9130260D9140266C
:1004E0000D9150260D9160260D9170260D9180265C
:1004F0000D9190260D91A0260D91B0260D91C0264C
:100500000D91D0260D91E0260D91F0265F914F912F
:10051000FA014F935F93419251926192719281924D
:100520009192A192B192C192D192E192F192E02D79
:100530001081212F322FC02D08813027E52D4081D9
:10054000042724273427C52D488104271427EA2DA2
:100550004081042714273427CA2D488114272427D3
:10056000EF2D4081042714272427CF2D48812427ED
:100570003427002EE42D5081652F762FC42D48811D
:100580007427E92D0081402760277027C92D088135
:1005900040275027EE2D0081402750277027CE2D71
:1005A000088150276027E32D0081402750276027CE
:1005B000C32D088160277027442E552E332EE82D39
:1005C0004081542F352FC82D08813027ED2D908183
:1005D000092759273927CD2D988109274927E22D49
:1005E0009081092749273927C22D98814927592702
:1005F000E72D9081092749275927C72D9881592729
:100600003927802E942EA52E772EEC2D5081752F14
:10061000972FCC2D48819427E12D0081402770270A
:100620009027C12D088140275027E62D00814027C3
:1006300050279027C62D088150277027EB2D008169
:10064000402750277027CB2D088170279027C42E74
:10065000D52EE72EF92E112E222E662EB32E0D91B9
:1006600000260D9110260D9120260D9130260D911A
:1006700040260D9150260D9160260D9170260D910A
:1006800080260D9190260D91A0260D91B0260D91FA
:10069000C0260D91D0260D91E0260D91F026E02D7B
:1006A0001081212F322FC02D08813027E52D408168
:1006B000042724273427C52D488104271427EA2D31
:1006C0004081042714273427CA2D48811427242762
:1006D000EF2D4081042714272427CF2D488124277C
:1006E0003427002EE42D5081652F762FC42D4881AC
:1006F0007427E92D0081402760277027C92D0881C4
:1007000040275027EE2D0081402750277027CE2DFF
:10071000088150276027E32D00814027502760275C
:10072000C32D088160277027442E552E332EE82DC7
:100730004081542F352FC82D08813027ED2D908111
:10074000092759273927CD2D988109274927E22DD7
:100750009081092749273927C22D98814927592790
:10076000E72D9081092749275927C72D98815927B7
:100770003927802E942EA52E772EEC2D5081752FA3
:10078000972FCC2D48819427E12D00814027702799
:100790009027C12D088140275027E62D0081402752
:1007A00050279027C62D088150277027EB2D0081F8
:1007B000402750277027CB2D088170279027C42E03
:1007C000D52EE72EF92E112E222E662EB32E0D9148
:1007D00000260D9110260D9120260D9130260D91A9
:1007E00040260D9150260D9160260D9170260D9199
:1007F00080260D9190260D91A0260D91B0260D9189
:10080000C0260D91D0260D91E0260D91F026E02D09
:100810001081212F322FC02D08813027E52D4081F6
:10082000042724273427C52D488104271427EA2DBF
:100830004081042714273427CA2D488114272427F0
:10084000EF2D4081042714272427CF2D488124270A
:100850003427002EE42D5081652F762FC42D48813A
:100860007427E92D0081402760277027C92D088152
:1008700040275027EE2D0081402750277027CE2D8E
:10088000088150276027E32D0081402750276027EB
:10089000C32D088160277027442E552E332EE82D56
:1008A0004081542F352FC82D08813027ED2D9081A0
:1008B000092759273927CD2D988109274927E22D66
:1008C0009081092749273927C22D9881492759271F
:1008D000E72D9081092749275927C72D9881592746
:1008E0003927802E942EA52E772EEC2D5081752F32
:1008F000972FCC2D48819427E12D00814027702728
:100900009027C12D088140275027E62D00814027E0
:1009100050279027C62D088150277027EB2D008186
:10092000402750277027CB2D088170279027C42E91
:10093000D52EE72EF92E112E222E662EB32E0D91D6
:1009400000260D9110260D9120260D9130260D9137
:1009500040260D9150260D9160260D9170260D9127
:1009600080260D9190260D91A0260D91B0260D9117
:10097000C0260D91D0260D91E0260D91F026E02D98
:100980001081212F322FC02D08813027E52D408185
:10099000042724273427C52D488104271427EA2D4E
:1009A0004081042714273427CA2D4881142724277F
:1009B000EF2D4081042714272427CF2D4881242799
:1009C0003427002EE42D5081652F762FC42D4881C9
:1009D0007427E92D0081402760277027C92D0881E1
:1009E00040275027EE2D0081402750277027CE2D1D
:1009F000088150276027E32D00814027502760277A
:100A0000C32D088160277027442E552E332EE82DE4
:100A10004081542F352FC82D08813027ED2D90812E
:100A2000092759273927CD2D988109274927E22DF4
:100A30009081092749273927C22D988149275927AD
:100A4000E72D9081092749275927C72D98815927D4
:100A50003927802E942EA52E772EEC2D5081752FC0
:100A6000972FCC2D48819427E12D008140277027B6
:100A70009027C12D088140275027E62D008140276F
:100A800050279027C62D088150277027EB2D008115
:100A9000402750277027CB2D088170279027C42E20
:100AA000D52EE72EF92E112E222E662EB32E0D9165
:100AB00000260D9110260D9120260D9130260D91C6
:100AC00040260D9150260D9160260D9170260D91B6
:100AD00080260D9190260D91A0260D91B0260D91A6
:100AE000C0260D91D0260D91E0260D91F026E02D27
:100AF0001081212F322FC02D08813027E52D408114
:100B0000042724273427C52D488104271427EA2DDC
:100B10004081042714273427CA2D4881142724270D
:100B2000EF2D4081042714272427CF2D4881242727
:100B30003427002EE42D5081652F762FC42D488157
:100B40007427E92D0081402760277027C92D08816F
:100B500040275027EE2D0081402750277027CE2DAB
:100B6000088150276027E32D008140275027602708
:100B7000C32D088160277027442E552E332EE82D73
:100B80004081542F352FC82D08813027ED2D9081BD
:100B9000092759273927CD2D988109274927E22D83
:100BA0009081092749273927C22D9881492759273C
:100BB000E72D9081092749275927C72D9881592763
:100BC0003927802E942EA52E772EEC2D5081752F4F
:100BD000972FCC2D48819427E12D00814027702745
:100BE0009027C12D088140275027E62D00814027FE
:100BF00050279027C62D088150277027EB2D0081A4
:100C0000402750277027CB2D088170279027C42EAE
:100C1000D52EE72EF92E112E222E662EB32E0D91F3
:100C200000260D9110260D9120260D9130260D9154
:100C300040260D9150260D9160260D9170260D9144
:100C400080260D9190260D91A0260D91B0260D9134
:100C5000C0260D91D0260D91E0260D91F026E02DB5
:100C60001081212F322FC02D08813027E52D4081A2
:100C7000042724273427C52D488104271427EA2D6B
:100C80004081042714273427CA2D4881142724279C
:100C9000EF2D4081042714272427CF2D48812427B6
:100CA0003427002EE42D5081652F762FC42D4881E6
:100CB0007427E92D0081402760277027C92D0881FE
:100CC00040275027EE2D0081402750277027CE2D3A
:100CD000088150276027E32D008140275027602797
:100CE000C32D088160277027442E552E332EE82D02
:100CF0004081542F352FC82D08813027ED2D90814C
:100D0000092759273927CD2D988109274927E22D11
:100D10009081092749273927C22D988149275927CA
:100D2000E72D9081092749275927C72D98815927F1
:100D30003927802E942EA52E772EEC2D5081752FDD
:100D4000972FCC2D48819427E12D008140277027D3
:100D50009027C12D088140275027E62D008140278C
:100D600050279027C62D088150277027EB2D008132
:100D7000402750277027CB2D088170279027C42E3D
:100D8000D52EE72EF92E112E222E662EB32E0D9182
:100D900000260D9110260D9120260D9130260D91E3
:100DA00040260D9150260D9160260D9170260D91D3
:100DB00080260D9190260D91A0260D91B0260D91C3
:100DC000C0260D91D0260D91E0260D91F026E02D44
:100DD0001081212F322FC02D08813027E52D408131
:100DE000042724273427C52D488104271427EA2DFA
:100DF0004081042714273427CA2D4881142724272B
:100E0000EF2D4081042714272427CF2D4881242744
:100E10003427002EE42D5081652F762FC42D488174
:100E20007427E92D0081402760277027C92D08818C
:100E300040275027EE2D0081402750277027CE2DC8
:100E4000088150276027E32D008140275027602725
:100E5000C32D088160277027442E552E332EE82D90
:100E60004081542F352FC82D08813027ED2D9081DA
:100E7000092759273927CD2D988109274927E22DA0
:100E80009081092749273927C22D98814927592759
:100E9000E72D9081092749275927C72D9881592780
:100EA0003927802E942EA52E772EEC2D5081752F6C
:100EB000972FCC2D48819427E12D00814027702762
:100EC0009027C12D088140275027E62D008140271B
:100ED00050279027C62D088150277027EB2D0081C1
:100EE000402750277027CB2D088170279027C42ECC
:100EF000D52EE72EF92E112E222E662EB32E0D9111
:100F000000260D9110260D9120260D9130260D9171
:100F100040260D9150260D9160260D9170260D9161
:100F200080260D9190260D91A0260D91B0260D9151
:100F3000C0260D91D0260D91E0260D91F026E02DD2
:100F40001081212F322FC02D08813027E52D4081BF
:100F5000042724273427C52D488104271427EA2D88
:100F60004081042714273427CA2D488114272427B9
:100F7000EF2D4081042714272427CF2D48812427D3
:100F80003427002EE42D5081652F762FC42D488103
:100F90007427E92D0081402760277027C92D08811B
:100FA00040275027EE2D0081402750277027CE2D57
:100FB000088150276027E32D0081402750276027B4
:100FC000C32D088160277027442E552E332EE82D1F
:100FD0004081542F352FC82D08813027ED2D908169
:100FE000092759273927CD2D988109274927E22D2F
:100FF0009081092749273927C22D988149275927E8
:10100000E72D9081092749275927C72D988159270E
:101010003927802E942EA52E772EEC2D5081752FFA
:10102000972FCC2D48819427E12D008140277027F0
:101030009027C12D088140275027E62D00814027A9
:1010400050279027C62D088150277027EB2D00814F
:10105000402750277027CB2D088170279027C42E5A
:10106000D52EE72EF92E112E222E662EB32E0D919F
:1010700000260D9110260D9120260D9130260D9100
:1010800040260D9150260D9160260D9170260D91F0
:1010900080260D9190260D91A0260D91B0260D91E0
:1010A000C0260D91D0260D91E0260D91F026E02D61
:1010B0000080E42D4080E82D8080EC2DC080E12D63
:1010C0004081E52D1080E92D5080ED2D9080D42EAB
:1010D000E22D4081E62D5081EA2D2080EE2D6080AA
:1010E000A42EE52EE32D4081EF2D3080EB2DF080F6
:1010F000E72DB080742E0D9100260D9110260D91D4
:1011000020260D9130260D9140260D9150260D91EF
:1011100060260D9170260D9180260D9190260D91DF
:10112000A0260D91B0260D91C0260D91D0260D91CF
:10113000E0260D91F0265F914F91BF91AF91FF9105
:10114000EF918F010192119221923192419251922D
:101150006192719281929192A192B192C192D19237
:10116000E192F192F8010081039500838F010190D3
:1011700011902190319041905190619071908190A7
:101180009190A190B190C190D190E190F190F8012F
:10119000EF93FF93AF93BF934F935F930CE0A00F38
:1011A0000D91C0260D91D0260D91E0260D91F026CF
:1011B000F1E0E02D1081212F322FC02D0881302742
:1011C000E52D4081042724273427C52D4881042795
:1011D0001427EA2D4081042714273427CA2D48817B
:1011E00014272427EF2D4081042714272427CF2DEF
:1011F000488124273427002E112E222E332E0D91C4
:1012000000260D9110260D9120260D913026FF917C
:10121000EF918F01419051906190719081909190E8
:10122000A190B190C190D190E190F1900F911F9158
:10123000F1E0E02D1081212F322FC02D08813027C1
:10124000E52D4081042724273427C52D4881042714
:101250001427EA2D4081042714273427CA2D4881FA
:1012600014272427EF2D4081042714272427CF2D6E
:10127000488124273427002EE42D5081652F762FB6
:10128000C42D48817427E92D0081402760277027ED
:10129000C92D088140275027EE2D00814027502777
:1012A0007027CE2D088150276027E32D008140272D
:1012B00050276027C32D088160277027442E552EA4
:1012C000332EE82D4081542F352FC82D088130272B
:1012D000ED2D9081092759273927CD2D9881092790
:1012E0004927E22D9081092749273927C22D988166
:1012F00049275927E72D9081092749275927C72DC5
:10130000988159273927802E942EA52E772EEC2DE3
:101310005081752F972FCC2D48819427E12D008186
:10132000402770279027C12D088140275027E62DA0
:101330000081402750279027C62D0881502770270D
:10134000EB2D0081402750277027CB2D0881702777
:101350009027C42ED52EE72EF92E112E222E662E82
:10136000B32E0D9100260D9110260D9120260D9182
:1013700030260D9140260D9150260D9160260D913D
:1013800070260D9180260D9190260D91A0260D912D
:10139000B0260D91C0260D91D0260D91E0260D911D
:1013A000F026E02D1081212F322FC02D088130270B
:1013B000E52D4081042724273427C52D48810427A3
:1013C0001427EA2D4081042714273427CA2D488189
:1013D00014272427EF2D4081042714272427CF2DFD
:1013E000488124273427002EE42D5081652F762F45
:1013F000C42D48817427E92D00814027602770277C
:10140000C92D088140275027EE2D00814027502705
:101410007027CE2D088150276027E32D00814027BB
:1014200050276027C32D088160277027442E552E32
:10143000332EE82D4081542F352FC82D08813027B9
:10144000ED2D9081092759273927CD2D988109271E
:101450004927E22D9081092749273927C22D9881F4
:1014600049275927E72D9081092749275927C72D53
:10147000988159273927802E942EA52E772EEC2D72
:101480005081752F972FCC2D48819427E12D008115
:10149000402770279027C12D088140275027E62D2F
:1014A0000081402750279027C62D0881502770279C
:1014B000EB2D0081402750277027CB2D0881702706
:1014C0009027C42ED52EE72EF92E112E222E662E11
:1014D000B32E0D9100260D9110260D9120260D9111
:1014E00030260D9140260D9150260D9160260D91CC
:1014F00070260D9180260D9190260D91A0260D91BC
:10150000B0260D91C0260D91D0260D91E0260D91AB
:10151000F026E02D1081212F322FC02D0881302799
:10152000E52D4081042724273427C52D4881042731
:101530001427EA2D4081042714273427CA2D488117
:1015400014272427EF2D4081042714272427CF2D8B
:10155000488124273427002EE42D5081652F762FD3
:10156000C42D48817427E92D00814027602770270A
:10157000C92D088140275027EE2D00814027502794
:101580007027CE2D088150276027E32D008140274A
:1015900050276027C32D088160277027442E552EC1
:1015A000332EE82D4081542F352FC82D0881302748
:1015B000ED2D9081092759273927CD2D98810927AD
:1015C0004927E22D9081092749273927C22D988183
:1015D00049275927E72D9081092749275927C72DE2
:1015E000988159273927802E942EA52E772EEC2D01
:1015F0005081752F972FCC2D48819427E12D0081A4
:10160000402770279027C12D088140275027E62DBD
:101610000081402750279027C62D0881502770272A
:10162000EB2D0081402750277027CB2D0881702794
:101630009027C42ED52EE72EF92E112E222E662E9F
:10164000B32E0D9100260D9110260D9120260D919F
:1016500030260D9140260D9150260D9160260D915A
:1016600070260D9180260D9190260D91A0260D914A
:10167000B0260D91C0260D91D0260D91E0260D913A
:10168000F026E02D1081212F322FC02D0881302728
:10169000E52D4081042724273427C52D48810427C0
:1016A0001427EA2D4081042714273427CA2D4881A6
:1016B00014272427EF2D4081042714272427CF2D1A
:1016C000488124273427002EE42D5081652F762F62
:1016D000C42D48817427E92D008140276027702799
:1016E000C92D088140275027EE2D00814027502723
:1016F0007027CE2D088150276027E32D00814027D9
:1017000050276027C32D088160277027442E552E4F
:10171000332EE82D4081542F352FC82D08813027D6
:10172000ED2D9081092759273927CD2D988109273B
:101730004927E22D9081092749273927C22D988111
:1017400049275927E72D9081092749275927C72D70
:10175000988159273927802E942EA52E772EEC2D8F
:101760005081752F972FCC2D48819427E12D008132
:10177000402770279027C12D088140275027E62D4C
:101780000081402750279027C62D088150277027B9
:10179000EB2D0081402750277027CB2D0881702723
:1017A0009027C42ED52EE72EF92E112E222E662E2E
:1017B000B32E0D9100260D9110260D9120260D912E
:1017C00030260D9140260D9150260D9160260D91E9
:1017D00070260D9180260D9190260D91A0260D91D9
:1017E000B0260D91C0260D91D0260D91E0260D91C9
:1017F000F026E02D1081212F322FC02D08813027B7
:10180000E52D4081042724273427C52D488104274E
:101810001427EA2D4081042714273427CA2D488134
:1018200014272427EF2D4081042714272427CF2DA8
:10183000488124273427002EE42D5081652F762FF0
:10184000C42D48817427E92D008140276027702727
:10185000C92D088140275027EE2D008140275027B1
:101860007027CE2D088150276027E32D0081402767
:1018700050276027C32D088160277027442E552EDE
:10188000332EE82D4081542F352FC82D0881302765
:10189000ED2D9081092759273927CD2D98810927CA
:1018A0004927E22D9081092749273927C22D9881A0
:1018B00049275927E72D9081092749275927C72DFF
:1018C000988159273927802E942EA52E772EEC2D1E
:1018D0005081752F972FCC2D48819427E12D0081C1
:1018E000402770279027C12D088140275027E62DDB
:1018F0000081402750279027C62D08815027702748
:10190000EB2D0081402750277027CB2D08817027B1
:101910009027C42ED52EE72EF92E112E222E662EBC
:10192000B32E0D9100260D9110260D9120260D91BC
:1019300030260D9140260D9150260D9160260D9177
:1019400070260D9180260D9190260D91A0260D9167
:10195000B0260D91C0260D91D0260D91E0260D9157
:10196000F026E02D1081212F322FC02D0881302745
:10197000E52D4081042724273427C52D48810427DD
:101980001427EA2D4081042714273427CA2D4881C3
:1019900014272427EF2D4081042714272427CF2D37
:1019A000488124273427002EE42D5081652F762F7F
:1019B000C42D48817427E92D0081402760277027B6
:1019C000C92D088140275027EE2D00814027502740
:1019D0007027CE2D088150276027E32D00814027F6
:1019E00050276027C32D088160277027442E552E6D
:1019F000332EE82D4081542F352FC82D08813027F4
:101A0000ED2D9081092759273927CD2D9881092758
:101A10004927E22D9081092749273927C22D98812E
:101A200049275927E72D9081092749275927C72D8D
:101A3000988159273927802E942EA52E772EEC2DAC
:101A40005081752F972FCC2D48819427E12D00814F
:101A5000402770279027C12D088140275027E62D69
:101A60000081402750279027C62D088150277027D6
:101A7000EB2D0081402750277027CB2D0881702740
:101A80009027C42ED52EE72EF92E112E222E662E4B
:101A9000B32E0D9100260D9110260D9120260D914B
:101AA00030260D9140260D9150260D9160260D9106
:101AB00070260D9180260D9190260D91A0260D91F6
:101AC000B0260D91C0260D91D0260D91E0260D91E6
:101AD000F026E02D1081212F322FC02D08813027D4
:101AE000E52D4081042724273427C52D488104276C
:101AF0001427EA2D4081042714273427CA2D488152
:101B000014272427EF2D4081042714272427CF2DC5
:101B1000488124273427002EE42D5081652F762F0D
:101B2000C42D48817427E92D008140276027702744
:101B3000C92D088140275027EE2D008140275027CE
:101B40007027CE2D088150276027E32D0081402784
:101B500050276027C32D088160277027442E552EFB
:101B6000332EE82D4081542F352FC82D0881302782
:101B7000ED2D9081092759273927CD2D98810927E7
:101B80004927E22D9081092749273927C22D9881BD
:101B900049275927E72D9081092749275927C72D1C
:101BA000988159273927802E942EA52E772EEC2D3B
:101BB0005081752F972FCC2D48819427E12D0081DE
:101BC000402770279027C12D088140275027E62DF8
:101BD0000081402750279027C62D08815027702765
:101BE000EB2D0081402750277027CB2D08817027CF
:101BF0009027C42ED52EE72EF92E112E222E662EDA
:101C0000B32E0D9100260D9110260D9120260D91D9
:101C100030260D9140260D9150260D9160260D9194
:101C200070260D9180260D9190260D91A0260D9184
:101C3000B0260D91C0260D91D0260D91E0260D9174
:101C4000F026E02D1081212F322FC02D0881302762
:101C5000E52D4081042724273427C52D48810427FA
:101C60001427EA2D4081042714273427CA2D4881E0
:101C700014272427EF2D4081042714272427CF2D54
:101C8000488124273427002EE42D5081652F762F9C
:101C9000C42D48817427E92D0081402760277027D3
:101CA000C92D088140275027EE2D0081402750275D
:101CB0007027CE2D088150276027E32D0081402713
:101CC00050276027C32D088160277027442E552E8A
:101CD000332EE82D4081542F352FC82D0881302711
:101CE000ED2D9081092759273927CD2D9881092776
:101CF0004927E22D9081092749273927C22D98814C
:101D000049275927E72D9081092749275927C72DAA
:101D1000988159273927802E942EA52E772EEC2DC9
:101D20005081752F972FCC2D48819427E12D00816C
:101D3000402770279027C12D088140275027E62D86
:101D40000081402750279027C62D088150277027F3
:101D5000EB2D0081402750277027CB2D088170275D
:101D60009027C42ED52EE72EF92E112E222E662E68
:101D7000B32E0D9100260D9110260D9120260D9168
:101D800030260D9140260D9150260D9160260D9123
:101D900070260D9180260D9190260D91A0260D9113
:101DA000B0260D91C0260D91D0260D91E0260D9103
:101DB000F026E02D0080E42D4080E82D8080EC2D81
:101DC000C080E12D4081E52D1080E92D5080ED2D62
:101DD0009080D42EE22D4081E62D5081EA2D208086
:101DE000EE2D6080A42EE52EE32D4081EF2D308076
:101DF000EB2DF080E72DB080742E0D9100260D9113
:101E000010260D9120260D9130260D9140260D9122
:101E100050260D9160260D9170260D9180260D9112
:101E200090260D91A0260D91B0260D91C0260D9102
:101E3000D0260D91E0260D91F0265F914F91BF9134
:101E4000AF919F918F910192119221923192419283
:101E500051926192719281929192A192B192C192AA
:101E6000D192E192F192DF91CF91EF91FF919F9109
:101E70008F917F916F915F914F913F912F911F9122
:101E80000F91FF90EF90DF90CF90BF90AF909F9019
:101E90008F907F906F905F904F903F902F9008951C
:101EA000AB0171E060E007C0AB0170E060EC03C023
:101EB000AB01772760E8EF92FF920F931F93CF93C8
:101EC000DF93FA01EA01DC017695679566956695E0
:101ED000262F0D9001922A95E1F76695669563FB92
:101EE000362F762F795F770F770FDF011497262F24
:101EF000E0E0F0E27F0111E04D915D918D919D91C7
:101F00003217B1F05EF5022F0770043039F5F70192
:101F1000E40FF11D4491F701E50FF11D5491F70114
:101F2000E80FF11D8491F701E90FF11D949116C09E
:101F3000360FF701E40FF11D0491F701E50FF11DD4
:101F40004491F701E80FF11D5491F701E90FF11DDC
:101F50008491902F4127110F08F41BE1FD01099096
:101F60000426019209900526019209900826019203
:101F70000990092601922395271709F0BDCFE8940F
:101F8000DF91CF911F910F91FF90EF900895000086
:101F90000000000000000000000000000000000041
:101FA0000000000000000000000000000000000031
:101FB0000000000000000000000000000000000021
:101FC0000000000000000000000000000000000011
:101FD0000000000000000000000000000000000001
:101FE00000000000000000000000000000000000F1
:101FF00000000000000000000000000000000000E1
:10200000637C777BF26B6FC53001672BFED7AB76B5
:10201000CA82C97DFA5947F0ADD4A2AF9CA472C060
:10202000B7FD9326363FF7CC34A5E5F171D83115CD
:1020300004C723C31896059A071280E2EB27B275EE
:1020400009832C1A1B6E5AA0523BD6B329E32F8466
:1020500053D100ED20FCB15B6ACBBE394A4C58CF5E
:10206000D0EFAAFB434D338545F9027F503C9FA832
:1020700051A3408F929D38F5BCB6DA2110FFF3D200
:10208000CD0C13EC5F974417C4A77E3D645D1973B4
:1020900060814FDC222A908846EEB814DE5E0BDBAE
:1020A000E0323A0A4906245CC2D3AC629195E479E5
:1020B000E7C8376D8DD54EA96C56F4EA657AAE083F
:1020C000BA78252E1CA6B4C6E8DD741F4BBD8B8ADA
:1020D000703EB5664803F60E613557B986C11D9E40
:1020E000E1F8981169D98E949B1E87E9CE5528DFB7
:1020F0008CA1890DBFE6426841992D0FB054BB16E3
:102100001416150664F4A62FB72FFC01480F591FAB
:102110009D91208192279193E417F507C9F70895BF
:10212000DB01A40FB51FFC019C01205F3F4F9D9177
:102130009193E217F307D9F70895FB01DA01A2950D
:10214000B295B07FBA27A07FBA27A80FB91F605FEA
:102150007F4F81918D93E617F707D9F70895FB011B
:10216000DC019B01205F3F4F81918D93E217F307C4
:10217000D9F70895161617063CF4FC01860F971F31
:102180001192E817F907E1F708958F929F92BF9295
:10219000CF92DF92EF92FF920F931F93CF93DF9333
:1021A000CDB7DEB7C351D1400FB6F894DEBF0FBE36
:1021B000CDBF6C017B014A011B82DA011C910F2EFD
:1021C000F9E1BF2EF02DB10E0B2D0F7080E1E6E08E
:1021D000F3E0DE01149601900D928A95E1F7FE017D
:1021E000749680E1DF011D928A95E9F7709680E28E
:1021F000DF011D928A95E9F7BE016C5B7F4FCE012E
:10220000049656DE002319F0175DB12EB01A61E076
:1022100070E08B2D90E041D28C01F4012081DC0133
:1022200053962C93539780E257968C9388E1898339
:10223000898130E0285E3F4F90E0821793079CF43D
:1022400099818981D801A90FB11DF601E80FF11D0F
:10225000789780818C9389818F5F8983898190E0D1
:10226000821793076CF38981F801E80FF11D80E86C
:102270008083FE01EC50FF4F80E1DF011D928A95C3
:10228000E9F71A828A81823008F048C0DB2CD694A4
:10229000D694D694D694198289818D1538F54981C2
:1022A000B0E14B9FA0011124B801CE018C509F4F8B
:1022B00037DF40E150E0BE016C5E7F4FCE018C50B5
:1022C0009F4F1EDFBE016C5B7F4FCE018C509F4F36
:1022D0000E946A00BE016C507F4FCE0144963FDFE2
:1022E00089818F5F898389818D15C8F24A8150E089
:1022F000BE016C5E7F4FCE0184961FDF60E170E00F
:10230000CE01449637DFF80183818F5F83838A8112
:102310008F5F8A838A81823008F4BDCFFE01EC5F33
:10232000FE4F80E1DF011D928A95E9F719828981CC
:102330008031C0F499818981E4E0F1E0EC0FFD1F68
:10234000E90FF11D24E230E02C0F3D1F40E1849F96
:10235000200D311D1124208389818F5F898389811C
:10236000803140F389818A838A818031F8F49A81AF
:1023700029818A81E4EFF0E0EC0FFD1FE90FF11DE8
:1023800090E0820F911D82959295907F9827807F93
:102390009827A4E2B0E0AC0FBD1F8A0F9B1F80837B
:1023A0008A818F5F8A838A81803108F3BE016C5BEA
:1023B0007F4FCE018C5F9E4F7BDD198289818230F9
:1023C00058F5BE016C5B7F4FCE018C509F4F0E9431
:1023D0006A001A828A818031C8F429819A818A81AF
:1023E000F701B0E12B9FE00DF11D1124E90FF11D64
:1023F000A4EFB0E0AC0FBD1FA80FB11D8C9180837E
:102400008A818F5F8A838A81803138F389818F5FE7
:10241000898389818230A8F2C801F1D1CD5EDE4F77
:102420000FB6F894DEBF0FBECDBFDF91CF911F91E5
:102430000F91FF90EF90DF90CF90BF909F908F9083
:102440000895EF92FF920F931F93CF93DF93CDB731
:10245000DEB7CE51D1400FB6F894DEBF0FBECDBF70
:102460008C017B011A82FE01339680E2DF011D920E
:102470008A95E9F7B0968CE0DF011D928A95E9F71D
:1024800019828981803140F48981898189818F5FB6
:10249000898389818031C0F3B801605F7F4FCE01AD
:1024A00003965DDE198289818031A0F4998189814A
:1024B000E3E0F0E0EC0FFD1FE90FF11DD801A80FDC
:1024C000B11D50968C91808389818F5F898389812A
:1024D000803160F3BE01615D7F4FC801E1DCAE0178
:1024E0004D5D5F4FBE01615D7F4FCE0103960E943F
:1024F0007901198289818031D0F49981298189817A
:10250000B801690F711DF701E80FF11DA3E0B0E0FC
:10251000AC0FBD1FA20FB11D90818C918927DB01EB
:102520008C9389818F5F89838981803130F319820F
:1025300089818031D8F4998129818981B801690F15
:10254000711DF701E80FF11DA3E1B0E0AC0FBD1F55
:10255000A20FB11D90898C918927DB0150968C9335
:1025600089818F5F89838981803128F3C25EDE4F44
:102570000FB6F894DEBF0FBECDBFDF91CF911F9194
:102580000F91FF90EF9008950F931F93CF93DF93D8
:102590008C01CA01E901AB014B5F5F4FB901F5DD69
:1025A000BE01C8014EDFDF91CF911F910F910895B9
:1025B0008F929F92AF92BF92CF92DF92EF92FF9253
:1025C0000F931F93CF93DF93CDB7DEB7C058D109D8
:1025D0000FB6F894DEBF0FBECDBFCE0101964C0101
:1025E00082E2F40111928A95E9F7BE016D5D7F4F99
:1025F00086E0FB0111928A95E9F788E1E6E1F3E0D4
:10260000DE01999601900D928A95E1F780E29E0194
:102610002F5B3F4FF901482F11924A95E9F78E0140
:102620000F591F4F90E1F801492F11924A95E9F790
:1026300040E1EEE2F3E0DE01AF58BF4F01900D92B2
:102640004A95E1F71AA29BA39FA39CA39DA38EA3E7
:1026500088E188A7A12CB12CCE018F589F4F6C0127
:10266000E12CF12CAE01475D5F4FC4018DDF80E0AE
:1026700090E0C058DF4F0FB6F894DEBF0FBECDBF5D
:10268000DF91CF911F910F91FF90EF90DF90CF904E
:10269000BF90AF909F908F9008950F931F93CF930B
:1026A000DF93869F8001879F100D969F100D112448
:1026B000C8010DD0EC01009721F0A80160E070E0A6
:1026C00027D1CE01DF91CF911F910F9108950F93E4
:1026D0001F93CF93DF938230910510F482E090E056
:1026E000E0914003F091410320E030E0A0E0B0E051
:1026F000309719F1408151810281138148175907A0
:10270000C8F08417950769F4109731F012960C936E
:10271000129713961C9327C0009340031093410314
:1027200022C02115310519F04217530718F49A01F8
:10273000BD01EF01DF01F801DBCF21153105F9F013
:10274000281B390B2430310580F48A819B81611567
:10275000710521F0FB019383828304C090934103B0
:1027600080934003FE01329644C0FE01E20FF31F46
:102770008193919322503109398328833AC0209163
:102780003E0330913F03232B41F42091020330910B
:10279000030330933F0320933E03209100033091C5
:1027A00001032115310541F42DB73EB740910403D3
:1027B00050910503241B350BE0913E03F0913F033C
:1027C000E217F307A0F42E1B3F0B2817390778F008
:1027D000AC014E5F5F4F2417350748F04E0F5F1F67
:1027E00050933F0340933E038193919302C0E0E0F6
:1027F000F0E0CF01DF91CF911F910F910895CF931A
:10280000DF93009709F481C0FC0132971382128292
:10281000A0914003B0914103109781F42081318150
:10282000820F931F20913E0330913F0328173907F1
:1028300051F5F0933F03E0933E0367C0ED0120E0C4
:1028400030E0CE17DF0740F44A815B819E014115DD
:102850005105F1F0EA01F5CFD383C2834081518164
:10286000840F951FC817D90759F488819981840F5F
:10287000951F0296918380838A819B8193838283B3
:102880002115310529F4F0934103E09340033DC045
:10289000E901FB83EA8349915991C40FD51FEC17D5
:1028A000FD0761F480819181840F951F0296E901F3
:1028B00099838883828193819B838A83E0E0F0E01F
:1028C00012968D919C911397009719F0FD01DC01F0
:1028D000F7CF8D919C9111979D012E5F3F4F820FF5
:1028E000931F20913E0330913F032817390769F465
:1028F000309729F4109241031092400302C01382D2
:102900001282B0933F03A0933E03DF91CF910895CD
:10291000DC0101C06D9341505040E0F70895F894F8
:02292000FFCFE7
:10292200637C777BF26B6FC53001672BFED7AB768A
:10293200CA82C97DFA5947F0ADD4A2AF9CA472C035
:10294200B7FD9326363FF7CC34A5E5F171D83115A2
:1029520004C723C31896059A071280E2EB27B275C3
:1029620009832C1A1B6E5AA0523BD6B329E32F843B
:1029720053D100ED20FCB15B6ACBBE394A4C58CF33
:10298200D0EFAAFB434D338545F9027F503C9FA807
:1029920051A3408F929D38F5BCB6DA2110FFF3D2D5
:1029A200CD0C13EC5F974417C4A77E3D645D197389
:1029B20060814FDC222A908846EEB814DE5E0BDB83
:1029C200E0323A0A4906245CC2D3AC629195E479BA
:1029D200E7C8376D8DD54EA96C56F4EA657AAE0814
:1029E200BA78252E1CA6B4C6E8DD741F4BBD8B8AAF
:1029F200703EB5664803F60E613557B986C11D9E15
:102A0200E1F8981169D98E949B1E87E9CE5528DF8B
:102A12008CA1890DBFE6426841992D0FB054BB16B7
:102A2200C6F8EEF6FFD6DE916002CE56E7B54DEC63
:102A32008F1F89FAEFB28EFB41B35F452353E49BAC
:102A420075E13D4C6C7EF5836851D1F9E2AB622AA7
:102A52000895469D30370A2F0E241BDFCD4E7FEAA4
:102A6200121D583436DCB45BA476B77D52DD5E139A
:102A7200A6B900C140E379B6D48D67729498B08547
:102A8200BBC54FED869A66118AE904FEA078254BF4
:102A9200A25D80053F2170F16377AF4220E5FDBF63
:102AA200811826C3BE35882E9355FC7AC8BA32E601
:102AB200C0199EA344543B0B8CC76B28A7BC16AD10
:102AC200DB647414920C48B89FBD43C43931D3F20D
:102AD200D58B6EDA01B19C49D8ACF3CFCAF447105A
:102AE2006FF04A5C38577397CBA1E83E96610D0FA1
:102AF200E07C71CC9006F71CC26AAE6917993A273E
:102B0200D9EB2B22D2A907332D3C15C987AA50A590
:102B12000359091A65D784D082295A1E7BA86D2CC5
:102B22000000420320000001020304050607080911
:102B32000A0B0C0D0E0F3DA93EDD17944F791E3383
:102B420099672CC6EA938A3FFF1409023D0C4EE9AD
:0E2B5200A2CF6E8BFA48BBBE5699DD5ABA026E
:00000001FF
