S01700004763634170706C69636174696F6E312E737265635B
S113000033C000004EC000004CC000004AC00000D5
S113001048C0000046C0000044C0000042C00000C8
S113002040C000003EC000003CC000003AC00000D8
S113003038C0000036C0000034C0000032C00000E8
S113004030C000002EC000002CC000002AC00000F8
S113005028C0000026C0000024C0000022C0000008
S113006020C000001EC0000011241FBECFEFD8E046
S1130070DEBFCDBF13E0A0E0B1E0EEEFF6E302C0D7
S113008005900D92AE33B107D9F723E0AEE3B3E0A8
S113009001C01D92A234B207E1F70E94C6190C9464
S11300A07D1BAECF4EE003C04CE001C04AE00F928E
S11300B01F922F923F924F925F926F927F928F92F4
S11300C09F92AF92BF92CF92DF92EF92FF920F93E3
S11300D01F932F933F934F935F936F93CF93DF932C
S11300E08F939F93DB01FC01842FE894819091907E
S11300F0A190B190C190D190E190F19001911191B2
S11301002191319141915191619171919BE1F0E281
S11301100D9080240D9090240D90A0240D90B02477
S11301200D90C0240D90D0240D90E0240D90F02467
S11301300D9000250D9010250D9020250D90302553
S11301400D9040250D9050250D9060250D90702543
S113015066F5FF91EF9181929192A192B192C19231
S1130160D192E192F19201931193219331934193AE
S1130170519361937193DF91CF916F915F914F91FF
S11301803F912F911F910F91FF90EF90DF90CF90AF
S1130190BF90AF909F908F907F906F905F904F90A3
S11301A03F902F901F900F9008958A9509F46894BA
S11301B0E82D8490EC2DC490E02F0491E42F449119
S11301C0E92D2490ED2D9490E12FD490E52F1491F6
S11301D0522DEA2D2490EE2D3490E22FA490E62F98
S11301E0E490222D632DEB2D2490E72FB490E32F80
S11301F07491EF2D3491F22C0EF48ACF0A2C0B2437
S1130200402C282C89240824880C08F4892680246E
S11302108224392C3A24330C08F4392630249324CC
S1130220440C08F449264024A4242B24220C08F46A
S113023029262024B2240E2C0F24402C2C2CCD242F
S11302400C24CC0C08F4C926C024C2243D2C3E2422
S1130250330C08F439263024D324440C08F44926FA
S11302604024E4242F24220C08F429262024F224F8
S1130270022E0326402C202E01270026000F08F40E
S1130280092700250225312E3226330C08F439269D
S113029030241325440C08F449264024242523261D
S11302A0220C08F4292620243225062E0726402C69
S11302B0242E45270426440F08F4492740254225C7
S11302C0352E3626330C08F4392630245325440CB5
S11302D008F44926402464252726220C08F42926FC
S11302E02024722515CF0F921F922F923F924F9286
S11302F05F926F927F928F929F92AF92BF92CF92B2
S1130300DF92EF92FF920F931F932F933F93CF931C
S1130310DF938F939F93DB01FC0101901190219057
S11303203190419051906190719081909190A19001
S1130330B190C190D190E190F190AF93BF934F935E
S11303405F93F1E0D2E00D9100260D9110260D91FE
S113035020260D9130260D9140260D9150260D91A9
S113036060260D9170260D9180260D9190260D9199
S1130370A0260D91B0260D91C0260D91D0260D9189
S1130380E0260D91F026F394E02D1081212F322FD9
S1130390C02D08813027E52D4081042724273427E8
S11303A0C52D488104271427EA2D408104271427EA
S11303B03427CA2D488114272427EF2D4081042790
S11303C014272427CF2D488124273427002EE42DF9
S11303D05081652F762FC42D48817427E92D008123
S11303E0402760277027C92D088140275027EE2D0C
S11303F00081402750277027CE2D08815027602781
S1130400E32D0081402750276027C32D08816027F2
S11304107027442E552E332EE82D4081542F352F2E
S1130420C82D08813027ED2D9081092759273927B8
S1130430CD2D988109274927E22D90810927492745
S11304403927C22D988149275927E72D90810927FB
S113045049275927C72D988159273927802E942E4B
S1130460A52E772EEC2D5081752F972FCC2D4881FA
S11304709427E12D0081402770279027C12D088102
S113048040275027E62D0081402750279027C62D6E
S1130490088150277027EB2D0081402750277027B3
S11304A0CB2D088170279027C42ED52EE72EF92E48
S11304B0112E222E662EB32E0D9100260D9110269C
S11304C00D9120260D9130260D9140260D91502638
S11304D00D9160260D9170260D9180260D91902628
S11304E00D91A0260D91B0260D91C0260D91D02618
S11304F00D91E0260D91F0265F914F91FA014F93F3
S11305005F93419251926192719281929192A192E0
S1130510B192C192D192E192F192E02D1081212FFA
S1130520322FC02D08813027E52D40810427242750
S11305303427C52D488104271427EA2D4081042738
S113054014273427CA2D488114272427EF2D4081EE
S1130550042714272427CF2D488124273427002E4D
S1130560E42D5081652F762FC42D48817427E92D01
S11305700081402760277027C92D08814027502714
S1130580EE2D0081402750277027CE2D088150275B
S11305906027E32D0081402750276027C32D088161
S11305A060277027442E552E332EE82D4081542F7A
S11305B0352FC82D08813027ED2D90810927592723
S11305C03927CD2D988109274927E22D90810927C4
S11305D049273927C22D988149275927E72D90812A
S11305E0092749275927C72D988159273927802E4C
S11305F0942EA52E772EEC2D5081752F972FCC2D70
S113060048819427E12D0081402770279027C12D30
S1130610088140275027E62D008140275027902746
S1130620C62D088150277027EB2D008140275027C5
S11306307027CB2D088170279027C42ED52EE72E46
S1130640F92E112E222E662EB32E0D9100260D9119
S113065010260D9120260D9130260D9140260D91E6
S113066050260D9160260D9170260D9180260D91D6
S113067090260D91A0260D91B0260D91C0260D91C6
S1130680D0260D91E0260D91F026E02D1081212F2A
S1130690322FC02D08813027E52D408104272427DF
S11306A03427C52D488104271427EA2D40810427C7
S11306B014273427CA2D488114272427EF2D40817D
S11306C0042714272427CF2D488124273427002EDC
S11306D0E42D5081652F762FC42D48817427E92D90
S11306E00081402760277027C92D088140275027A3
S11306F0EE2D0081402750277027CE2D08815027EA
S11307006027E32D0081402750276027C32D0881EF
S113071060277027442E552E332EE82D4081542F08
S1130720352FC82D08813027ED2D908109275927B1
S11307303927CD2D988109274927E22D9081092752
S113074049273927C22D988149275927E72D9081B8
S1130750092749275927C72D988159273927802EDA
S1130760942EA52E772EEC2D5081752F972FCC2DFE
S113077048819427E12D0081402770279027C12DBF
S1130780088140275027E62D0081402750279027D5
S1130790C62D088150277027EB2D00814027502754
S11307A07027CB2D088170279027C42ED52EE72ED5
S11307B0F92E112E222E662EB32E0D9100260D91A8
S11307C010260D9120260D9130260D9140260D9175
S11307D050260D9160260D9170260D9180260D9165
S11307E090260D91A0260D91B0260D91C0260D9155
S11307F0D0260D91E0260D91F026E02D1081212FB9
S1130800322FC02D08813027E52D4081042724276D
S11308103427C52D488104271427EA2D4081042755
S113082014273427CA2D488114272427EF2D40810B
S1130830042714272427CF2D488124273427002E6A
S1130840E42D5081652F762FC42D48817427E92D1E
S11308500081402760277027C92D08814027502731
S1130860EE2D0081402750277027CE2D0881502778
S11308706027E32D0081402750276027C32D08817E
S113088060277027442E552E332EE82D4081542F97
S1130890352FC82D08813027ED2D90810927592740
S11308A03927CD2D988109274927E22D90810927E1
S11308B049273927C22D988149275927E72D908147
S11308C0092749275927C72D988159273927802E69
S11308D0942EA52E772EEC2D5081752F972FCC2D8D
S11308E048819427E12D0081402770279027C12D4E
S11308F0088140275027E62D008140275027902764
S1130900C62D088150277027EB2D008140275027E2
S11309107027CB2D088170279027C42ED52EE72E63
S1130920F92E112E222E662EB32E0D9100260D9136
S113093010260D9120260D9130260D9140260D9103
S113094050260D9160260D9170260D9180260D91F3
S113095090260D91A0260D91B0260D91C0260D91E3
S1130960D0260D91E0260D91F026E02D1081212F47
S1130970322FC02D08813027E52D408104272427FC
S11309803427C52D488104271427EA2D40810427E4
S113099014273427CA2D488114272427EF2D40819A
S11309A0042714272427CF2D488124273427002EF9
S11309B0E42D5081652F762FC42D48817427E92DAD
S11309C00081402760277027C92D088140275027C0
S11309D0EE2D0081402750277027CE2D0881502707
S11309E06027E32D0081402750276027C32D08810D
S11309F060277027442E552E332EE82D4081542F26
S1130A00352FC82D08813027ED2D908109275927CE
S1130A103927CD2D988109274927E22D908109276F
S1130A2049273927C22D988149275927E72D9081D5
S1130A30092749275927C72D988159273927802EF7
S1130A40942EA52E772EEC2D5081752F972FCC2D1B
S1130A5048819427E12D0081402770279027C12DDC
S1130A60088140275027E62D0081402750279027F2
S1130A70C62D088150277027EB2D00814027502771
S1130A807027CB2D088170279027C42ED52EE72EF2
S1130A90F92E112E222E662EB32E0D9100260D91C5
S1130AA010260D9120260D9130260D9140260D9192
S1130AB050260D9160260D9170260D9180260D9182
S1130AC090260D91A0260D91B0260D91C0260D9172
S1130AD0D0260D91E0260D91F026E02D1081212FD6
S1130AE0322FC02D08813027E52D4081042724278B
S1130AF03427C52D488104271427EA2D4081042773
S1130B0014273427CA2D488114272427EF2D408128
S1130B10042714272427CF2D488124273427002E87
S1130B20E42D5081652F762FC42D48817427E92D3B
S1130B300081402760277027C92D0881402750274E
S1130B40EE2D0081402750277027CE2D0881502795
S1130B506027E32D0081402750276027C32D08819B
S1130B6060277027442E552E332EE82D4081542FB4
S1130B70352FC82D08813027ED2D9081092759275D
S1130B803927CD2D988109274927E22D90810927FE
S1130B9049273927C22D988149275927E72D908164
S1130BA0092749275927C72D988159273927802E86
S1130BB0942EA52E772EEC2D5081752F972FCC2DAA
S1130BC048819427E12D0081402770279027C12D6B
S1130BD0088140275027E62D008140275027902781
S1130BE0C62D088150277027EB2D00814027502700
S1130BF07027CB2D088170279027C42ED52EE72E81
S1130C00F92E112E222E662EB32E0D9100260D9153
S1130C1010260D9120260D9130260D9140260D9120
S1130C2050260D9160260D9170260D9180260D9110
S1130C3090260D91A0260D91B0260D91C0260D9100
S1130C40D0260D91E0260D91F026E02D1081212F64
S1130C50322FC02D08813027E52D40810427242719
S1130C603427C52D488104271427EA2D4081042701
S1130C7014273427CA2D488114272427EF2D4081B7
S1130C80042714272427CF2D488124273427002E16
S1130C90E42D5081652F762FC42D48817427E92DCA
S1130CA00081402760277027C92D088140275027DD
S1130CB0EE2D0081402750277027CE2D0881502724
S1130CC06027E32D0081402750276027C32D08812A
S1130CD060277027442E552E332EE82D4081542F43
S1130CE0352FC82D08813027ED2D908109275927EC
S1130CF03927CD2D988109274927E22D908109278D
S1130D0049273927C22D988149275927E72D9081F2
S1130D10092749275927C72D988159273927802E14
S1130D20942EA52E772EEC2D5081752F972FCC2D38
S1130D3048819427E12D0081402770279027C12DF9
S1130D40088140275027E62D00814027502790270F
S1130D50C62D088150277027EB2D0081402750278E
S1130D607027CB2D088170279027C42ED52EE72E0F
S1130D70F92E112E222E662EB32E0D9100260D91E2
S1130D8010260D9120260D9130260D9140260D91AF
S1130D9050260D9160260D9170260D9180260D919F
S1130DA090260D91A0260D91B0260D91C0260D918F
S1130DB0D0260D91E0260D91F026E02D1081212FF3
S1130DC0322FC02D08813027E52D408104272427A8
S1130DD03427C52D488104271427EA2D4081042790
S1130DE014273427CA2D488114272427EF2D408146
S1130DF0042714272427CF2D488124273427002EA5
S1130E00E42D5081652F762FC42D48817427E92D58
S1130E100081402760277027C92D0881402750276B
S1130E20EE2D0081402750277027CE2D08815027B2
S1130E306027E32D0081402750276027C32D0881B8
S1130E4060277027442E552E332EE82D4081542FD1
S1130E50352FC82D08813027ED2D9081092759277A
S1130E603927CD2D988109274927E22D908109271B
S1130E7049273927C22D988149275927E72D908181
S1130E80092749275927C72D988159273927802EA3
S1130E90942EA52E772EEC2D5081752F972FCC2DC7
S1130EA048819427E12D0081402770279027C12D88
S1130EB0088140275027E62D00814027502790279E
S1130EC0C62D088150277027EB2D0081402750271D
S1130ED07027CB2D088170279027C42ED52EE72E9E
S1130EE0F92E112E222E662EB32E0D9100260D9171
S1130EF010260D9120260D9130260D9140260D913E
S1130F0050260D9160260D9170260D9180260D912D
S1130F1090260D91A0260D91B0260D91C0260D911D
S1130F20D0260D91E0260D91F026E02D1081212F81
S1130F30322FC02D08813027E52D40810427242736
S1130F403427C52D488104271427EA2D408104271E
S1130F5014273427CA2D488114272427EF2D4081D4
S1130F60042714272427CF2D488124273427002E33
S1130F70E42D5081652F762FC42D48817427E92DE7
S1130F800081402760277027C92D088140275027FA
S1130F90EE2D0081402750277027CE2D0881502741
S1130FA06027E32D0081402750276027C32D088147
S1130FB060277027442E552E332EE82D4081542F60
S1130FC0352FC82D08813027ED2D90810927592709
S1130FD03927CD2D988109274927E22D90810927AA
S1130FE049273927C22D988149275927E72D908110
S1130FF0092749275927C72D988159273927802E32
S1131000942EA52E772EEC2D5081752F972FCC2D55
S113101048819427E12D0081402770279027C12D16
S1131020088140275027E62D00814027502790272C
S1131030C62D088150277027EB2D008140275027AB
S11310407027CB2D088170279027C42ED52EE72E2C
S1131050F92E112E222E662EB32E0D9100260D91FF
S113106010260D9120260D9130260D9140260D91CC
S113107050260D9160260D9170260D9180260D91BC
S113108090260D91A0260D91B0260D91C0260D91AC
S1131090D0260D91E0260D91F026E02D0080E42D60
S11310A04080E82D8080EC2DC080E12D4081E52D2D
S11310B01080E92D5080ED2D9080D42EE22D4081BA
S11310C0E62D5081EA2D2080EE2D6080A42EE52EA1
S11310D0E32D4081EF2D3080EB2DF080E72DB080A3
S11310E0742E0D9100260D9110260D9120260D9140
S11310F030260D9140260D9150260D9160260D91BC
S113110070260D9180260D9190260D91A0260D91AB
S1131110B0260D91C0260D91D0260D91E0260D919B
S1131120F0265F914F91BF91AF91FF91EF918F01A5
S11311300192119221923192419251926192719253
S113114081929192A192B192C192D192E192F19243
S1131150F8010081039500838F0101901190219083
S11311603190419051906190719081909190A190B3
S1131170B190C190D190E190F190F801EF93FF9379
S1131180AF93BF934F935F930CE0A00F0D91C026D4
S11311900D91D0260D91E0260D91F026F1E0E02D81
S11311A01081212F322FC02D08813027E52D408159
S11311B0042724273427C52D488104271427EA2D22
S11311C04081042714273427CA2D48811427242753
S11311D0EF2D4081042714272427CF2D488124276D
S11311E03427002E112E222E332E0D9100260D9120
S11311F010260D9120260D913026FF91EF918F013D
S1131200419051906190719081909190A190B19092
S1131210C190D190E190F1900F931F93F1E0E02DF4
S11312201081212F322FC02D08813027E52D4081D8
S1131230042724273427C52D488104271427EA2DA1
S11312404081042714273427CA2D488114272427D2
S1131250EF2D4081042714272427CF2D48812427EC
S11312603427002EE42D5081652F762FC42D48811C
S11312707427E92D0081402760277027C92D088134
S113128040275027EE2D0081402750277027CE2D70
S1131290088150276027E32D0081402750276027CD
S11312A0C32D088160277027442E552E332EE82D38
S11312B04081542F352FC82D08813027ED2D908182
S11312C0092759273927CD2D988109274927E22D48
S11312D09081092749273927C22D98814927592701
S11312E0E72D9081092749275927C72D9881592728
S11312F03927802E942EA52E772EEC2D5081752F14
S1131300972FCC2D48819427E12D00814027702709
S11313109027C12D088140275027E62D00814027C2
S113132050279027C62D088150277027EB2D008168
S1131330402750277027CB2D088170279027C42E73
S1131340D52EE72EF92E112E222E662EB32E0D91B8
S113135000260D9110260D9120260D9130260D9119
S113136040260D9150260D9160260D9170260D9109
S113137080260D9190260D91A0260D91B0260D91F9
S1131380C0260D91D0260D91E0260D91F026E02D7A
S11313901081212F322FC02D08813027E52D408167
S11313A0042724273427C52D488104271427EA2D30
S11313B04081042714273427CA2D48811427242761
S11313C0EF2D4081042714272427CF2D488124277B
S11313D03427002EE42D5081652F762FC42D4881AB
S11313E07427E92D0081402760277027C92D0881C3
S11313F040275027EE2D0081402750277027CE2DFF
S1131400088150276027E32D00814027502760275B
S1131410C32D088160277027442E552E332EE82DC6
S11314204081542F352FC82D08813027ED2D908110
S1131430092759273927CD2D988109274927E22DD6
S11314409081092749273927C22D9881492759278F
S1131450E72D9081092749275927C72D98815927B6
S11314603927802E942EA52E772EEC2D5081752FA2
S1131470972FCC2D48819427E12D00814027702798
S11314809027C12D088140275027E62D0081402751
S113149050279027C62D088150277027EB2D0081F7
S11314A0402750277027CB2D088170279027C42E02
S11314B0D52EE72EF92E112E222E662EB32E0D9147
S11314C000260D9110260D9120260D9130260D91A8
S11314D040260D9150260D9160260D9170260D9198
S11314E080260D9190260D91A0260D91B0260D9188
S11314F0C0260D91D0260D91E0260D91F026E02D09
S11315001081212F322FC02D08813027E52D4081F5
S1131510042724273427C52D488104271427EA2DBE
S11315204081042714273427CA2D488114272427EF
S1131530EF2D4081042714272427CF2D4881242709
S11315403427002EE42D5081652F762FC42D488139
S11315507427E92D0081402760277027C92D088151
S113156040275027EE2D0081402750277027CE2D8D
S1131570088150276027E32D0081402750276027EA
S1131580C32D088160277027442E552E332EE82D55
S11315904081542F352FC82D08813027ED2D90819F
S11315A0092759273927CD2D988109274927E22D65
S11315B09081092749273927C22D9881492759271E
S11315C0E72D9081092749275927C72D9881592745
S11315D03927802E942EA52E772EEC2D5081752F31
S11315E0972FCC2D48819427E12D00814027702727
S11315F09027C12D088140275027E62D00814027E0
S113160050279027C62D088150277027EB2D008185
S1131610402750277027CB2D088170279027C42E90
S1131620D52EE72EF92E112E222E662EB32E0D91D5
S113163000260D9110260D9120260D9130260D9136
S113164040260D9150260D9160260D9170260D9126
S113165080260D9190260D91A0260D91B0260D9116
S1131660C0260D91D0260D91E0260D91F026E02D97
S11316701081212F322FC02D08813027E52D408184
S1131680042724273427C52D488104271427EA2D4D
S11316904081042714273427CA2D4881142724277E
S11316A0EF2D4081042714272427CF2D4881242798
S11316B03427002EE42D5081652F762FC42D4881C8
S11316C07427E92D0081402760277027C92D0881E0
S11316D040275027EE2D0081402750277027CE2D1C
S11316E0088150276027E32D008140275027602779
S11316F0C32D088160277027442E552E332EE82DE4
S11317004081542F352FC82D08813027ED2D90812D
S1131710092759273927CD2D988109274927E22DF3
S11317209081092749273927C22D988149275927AC
S1131730E72D9081092749275927C72D98815927D3
S11317403927802E942EA52E772EEC2D5081752FBF
S1131750972FCC2D48819427E12D008140277027B5
S11317609027C12D088140275027E62D008140276E
S113177050279027C62D088150277027EB2D008114
S1131780402750277027CB2D088170279027C42E1F
S1131790D52EE72EF92E112E222E662EB32E0D9164
S11317A000260D9110260D9120260D9130260D91C5
S11317B040260D9150260D9160260D9170260D91B5
S11317C080260D9190260D91A0260D91B0260D91A5
S11317D0C0260D91D0260D91E0260D91F026E02D26
S11317E01081212F322FC02D08813027E52D408113
S11317F0042724273427C52D488104271427EA2DDC
S11318004081042714273427CA2D4881142724270C
S1131810EF2D4081042714272427CF2D4881242726
S11318203427002EE42D5081652F762FC42D488156
S11318307427E92D0081402760277027C92D08816E
S113184040275027EE2D0081402750277027CE2DAA
S1131850088150276027E32D008140275027602707
S1131860C32D088160277027442E552E332EE82D72
S11318704081542F352FC82D08813027ED2D9081BC
S1131880092759273927CD2D988109274927E22D82
S11318909081092749273927C22D9881492759273B
S11318A0E72D9081092749275927C72D9881592762
S11318B03927802E942EA52E772EEC2D5081752F4E
S11318C0972FCC2D48819427E12D00814027702744
S11318D09027C12D088140275027E62D00814027FD
S11318E050279027C62D088150277027EB2D0081A3
S11318F0402750277027CB2D088170279027C42EAE
S1131900D52EE72EF92E112E222E662EB32E0D91F2
S113191000260D9110260D9120260D9130260D9153
S113192040260D9150260D9160260D9170260D9143
S113193080260D9190260D91A0260D91B0260D9133
S1131940C0260D91D0260D91E0260D91F026E02DB4
S11319501081212F322FC02D08813027E52D4081A1
S1131960042724273427C52D488104271427EA2D6A
S11319704081042714273427CA2D4881142724279B
S1131980EF2D4081042714272427CF2D48812427B5
S11319903427002EE42D5081652F762FC42D4881E5
S11319A07427E92D0081402760277027C92D0881FD
S11319B040275027EE2D0081402750277027CE2D39
S11319C0088150276027E32D008140275027602796
S11319D0C32D088160277027442E552E332EE82D01
S11319E04081542F352FC82D08813027ED2D90814B
S11319F0092759273927CD2D988109274927E22D11
S1131A009081092749273927C22D988149275927C9
S1131A10E72D9081092749275927C72D98815927F0
S1131A203927802E942EA52E772EEC2D5081752FDC
S1131A30972FCC2D48819427E12D008140277027D2
S1131A409027C12D088140275027E62D008140278B
S1131A5050279027C62D088150277027EB2D008131
S1131A60402750277027CB2D088170279027C42E3C
S1131A70D52EE72EF92E112E222E662EB32E0D9181
S1131A8000260D9110260D9120260D9130260D91E2
S1131A9040260D9150260D9160260D9170260D91D2
S1131AA080260D9190260D91A0260D91B0260D91C2
S1131AB0C0260D91D0260D91E0260D91F026E02D43
S1131AC01081212F322FC02D08813027E52D408130
S1131AD0042724273427C52D488104271427EA2DF9
S1131AE04081042714273427CA2D4881142724272A
S1131AF0EF2D4081042714272427CF2D4881242744
S1131B003427002EE42D5081652F762FC42D488173
S1131B107427E92D0081402760277027C92D08818B
S1131B2040275027EE2D0081402750277027CE2DC7
S1131B30088150276027E32D008140275027602724
S1131B40C32D088160277027442E552E332EE82D8F
S1131B504081542F352FC82D08813027ED2D9081D9
S1131B60092759273927CD2D988109274927E22D9F
S1131B709081092749273927C22D98814927592758
S1131B80E72D9081092749275927C72D988159277F
S1131B903927802E942EA52E772EEC2D5081752F6B
S1131BA0972FCC2D48819427E12D00814027702761
S1131BB09027C12D088140275027E62D008140271A
S1131BC050279027C62D088150277027EB2D0081C0
S1131BD0402750277027CB2D088170279027C42ECB
S1131BE0D52EE72EF92E112E222E662EB32E0D9110
S1131BF000260D9110260D9120260D9130260D9171
S1131C0040260D9150260D9160260D9170260D9160
S1131C1080260D9190260D91A0260D91B0260D9150
S1131C20C0260D91D0260D91E0260D91F026E02DD1
S1131C301081212F322FC02D08813027E52D4081BE
S1131C40042724273427C52D488104271427EA2D87
S1131C504081042714273427CA2D488114272427B8
S1131C60EF2D4081042714272427CF2D48812427D2
S1131C703427002EE42D5081652F762FC42D488102
S1131C807427E92D0081402760277027C92D08811A
S1131C9040275027EE2D0081402750277027CE2D56
S1131CA0088150276027E32D0081402750276027B3
S1131CB0C32D088160277027442E552E332EE82D1E
S1131CC04081542F352FC82D08813027ED2D908168
S1131CD0092759273927CD2D988109274927E22D2E
S1131CE09081092749273927C22D988149275927E7
S1131CF0E72D9081092749275927C72D988159270E
S1131D003927802E942EA52E772EEC2D5081752FF9
S1131D10972FCC2D48819427E12D008140277027EF
S1131D209027C12D088140275027E62D00814027A8
S1131D3050279027C62D088150277027EB2D00814E
S1131D40402750277027CB2D088170279027C42E59
S1131D50D52EE72EF92E112E222E662EB32E0D919E
S1131D6000260D9110260D9120260D9130260D91FF
S1131D7040260D9150260D9160260D9170260D91EF
S1131D8080260D9190260D91A0260D91B0260D91DF
S1131D90C0260D91D0260D91E0260D91F026E02D60
S1131DA00080E42D4080E82D8080EC2DC080E12D62
S1131DB04081E52D1080E92D5080ED2D9080D42EAA
S1131DC0E22D4081E62D5081EA2D2080EE2D6080A9
S1131DD0A42EE52EE32D4081EF2D3080EB2DF080F5
S1131DE0E72DB080742E0D9100260D9110260D91D3
S1131DF020260D9130260D9140260D9150260D91EF
S1131E0060260D9170260D9180260D9190260D91DE
S1131E10A0260D91B0260D91C0260D91D0260D91CE
S1131E20E0260D91F0265F914F91BF91AF91FF9104
S1131E30EF910192119221923192419251926192C9
S1131E40719281929192A192B192C192D192E192B6
S1131E50F192DF91CF913F912F911F910F91FF90BC
S1131E60EF90DF90CF90BF90AF909F908F907F9036
S1131E706F905F904F903F902F901F900F90089518
S1131E80AB0171E060E007C0AB0170E060EC03C03F
S1131E90AB01772760E8EF92FF920F931F93CF93E4
S1131EA0DF93FA01EA01DC017695679566956695FC
S1131EB0262F0D9001922A95E1F76695669563FBAE
S1131EC0362F762F795F770F770FDF011497262F40
S1131ED0E0E0F0E27F0111E04D915D918D919D91E3
S1131EE03217B1F05EF5022F0770043039F5F701AF
S1131EF0E40FF11D4491F701E50FF11D5491F70131
S1131F00E80FF11D8491F701E90FF11D949116C0BA
S1131F10360FF701E40FF11D0491F701E50FF11DF0
S1131F204491F701E80FF11D5491F701E90FF11DF8
S1131F308491902F4127110F08F41BE1FD010990B2
S1131F40042601920990052601920990082601921F
S1131F500990092601922395271709F0BDCFE8942B
S1131F60DF91CF911F910F91FF90EF9008950000A2
S1131F70000000000000000000000000000000005D
S1131F80000000000000000000000000000000004D
S1131F90000000000000000000000000000000003D
S1131FA0000000000000000000000000000000002D
S1131FB0000000000000000000000000000000001D
S1131FC0000000000000000000000000000000000D
S1131FD000000000000000000000000000000000FD
S1131FE000000000000000000000000000000000ED
S1131FF000000000000000000000000000000000DD
S1132000637C777BF26B6FC53001672BFED7AB76B1
S1132010CA82C97DFA5947F0ADD4A2AF9CA472C05C
S1132020B7FD9326363FF7CC34A5E5F171D83115C9
S113203004C723C31896059A071280E2EB27B275EA
S113204009832C1A1B6E5AA0523BD6B329E32F8462
S113205053D100ED20FCB15B6ACBBE394A4C58CF5A
S1132060D0EFAAFB434D338545F9027F503C9FA82E
S113207051A3408F929D38F5BCB6DA2110FFF3D2FC
S1132080CD0C13EC5F974417C4A77E3D645D1973B0
S113209060814FDC222A908846EEB814DE5E0BDBAA
S11320A0E0323A0A4906245CC2D3AC629195E479E1
S11320B0E7C8376D8DD54EA96C56F4EA657AAE083B
S11320C0BA78252E1CA6B4C6E8DD741F4BBD8B8AD6
S11320D0703EB5664803F60E613557B986C11D9E3C
S11320E0E1F8981169D98E949B1E87E9CE5528DFB3
S11320F08CA1890DBFE6426841992D0FB054BB16DF
S11321002F923F924F925F926F927F928F929F9203
S1132110AF92BF92CF92DF92EF92FF920F931F93F1
S1132120CF93DF93CDB7DEB7C656D1400FB6F89440
S1132130DEBF0FBECDBF8C012B017A01CB59DE4F20
S11321401882C556D140CC59DE4F1882C456D140AE
S1132150CD59DE4F1882C356D140DA018C91875E87
S1132160CE59DE4F8883C256D140CE59DE4F888186
S1132170C256D1408F70CF59DE4F8883C156D140AB
S113218080E1E6E0F3E0DE01AF5ABE4F01900D922C
S11321908A95E1F75E01BFEBAB1ABEEFBB0A80E1A3
S11321A0F50111928A95E9F71E01F1EF2F0E311C0A
S11321B080E3D1011D928A95E9F7BE016F5F7F4FDD
S11321C0CE018F5A9E4F5CDECF59DE4F8881C156B7
S11321D0D140882389F0CF59DE4F9881C156D14030
S11321E0CE59DE4F8881C256D140891B805FCE59BB
S11321F0DE4F8883C256D140CE59DE4F8881C25605
S1132200D14061E070E090E00E943B1A3C01F7018C
S11322102081DC0153962C93539780E357968C933B
S113222088E1CB59DE4F8883C556D14030E0295E22
S11322303F4FCB59DE4F8881C556D14090E02817D7
S1132240390754F10115110599F0CB59DE4F9881E6
S1132250C556D140CB59DE4F8881C556D140D301F4
S1132260A90FB11DF801E80FF11D789780818C93B7
S1132270CB59DE4F8881C556D1408F5FCB59DE4F95
S11322808883C556D140CB59DE4F8881C556D1408D
S113229090E028173907B4F6CB59DE4F8881C5562C
S11322A0D140F301E80FF11D80E880836E01BFEC9B
S11322B0CB1ABEEFDB0A80E1F60111928A95E9F7A9
S11322C0CC59DE4F1882C456D140CC59DE4F888198
S11322D0C456D140833008F0A9C0F30183818F5FD5
S11322E0CA59DE4F8883C656D14090E07601F0E1AA
S11322F0EF0EF11C450120E1820E911CCB59DE4FFB
S11323001882C556D140CE59DE4F8881C256D1407D
S1132310CB59DE4F2881C556D14082958F7028173E
S113232008F049C0CB59DE4F8881C556D140D3014E
S113233030E1839FA00DB11D11248601F6018D911A
S11323408193EE15FF05D9F7D5011196F60101C069
S11323509D91808189278193EE15FF05C9F7BE0100
S11323606F5F7F4FC6010E945200F501D8018D9125
S11323708D018193AE15BF05C9F7CB59DE4F888116
S1132380C556D1408F5FCB59DE4F8883C556D140A7
S1132390CE59DE4F8881C256D140CB59DE4F988149
S11323A0C556D14082958F70981718F4F501908125
S11323B0B9CFD5019C91CC59DE4F8881C456D14008
S11323C0D101E0E18E9FA00DB11D1124F5013196DC
S11323D001C091919D938E169F06D9F7F501119234
S11323E08E169F06E1F7CA59DE4FE881C656D140E2
S11323F0D3011396EC93CC59DE4F8881C456D14057
S11324008F5FCC59DE4F8883C456D140CC59DE4F00
S11324108881C456D140EF5FCA59DE4FE883C6565F
S1132420D140833018F4D5019C9168CFC3010E9438
S1132430ED1ACE018F5D9E4F20E1DC011D922A959D
S1132440E9F7CB59DE4F1882C556D140CB59DE4F40
S11324502881C556D140203230F5CB59DE4F388122
S1132460C556D140CB59DE4F2881C556D140FC0119
S1132470E30FF11DA10160E1269F400D511D1124C0
S11324804083CB59DE4F2881C556D1402F5FCB59AD
S1132490DE4F2883C556D140CB59DE4F2881C5561F
S11324A0D1402032D0F2CB59DE4F2881C556D140DD
S11324B0CC59DE4F2883C456D140CC59DE4F2881F5
S11324C0C456D140203180F5CC59DE4F3881C456F2
S11324D0D140CB59DE4F4881C556D140CC59DE4F4F
S11324E02881C456D140F601E30FF11D30E0240FDA
S11324F0311D22953295307F3227207F3227220DDD
S1132500331D2083CC59DE4F2881C456D1402F5F20
S1132510CC59DE4F2883C456D140CC59DE4F288194
S1132520C456D140203180F2BE016F5F7F4FA8DCDA
S1132530CB59DE4F1882C556D140CB59DE4F888126
S1132540C556D140833008F053C0BE016F5F7F4F42
S1132550C6010E945200CC59DE4F1882C456D140A5
S1132560CC59DE4F8881C456D140803170F5CB59A7
S1132570DE4F2881C556D140CC59DE4F9881C456D0
S1132580D140CC59DE4F8881C456D140F201A0E13C
S11325902A9FE00DF11D1124E90FF11DD601A80FAA
S11325A0B11D8C918083CC59DE4F8881C456D140B3
S11325B08F5FCC59DE4F8883C456D140CC59DE4F4F
S11325C08881C456D140803190F2CB59DE4F888146
S11325D0C556D1408F5FCB59DE4F8883C556D14055
S11325E0CB59DE4F8881C556D140833008F4ADCF36
S11325F0CA59DE4F0FB6F894DEBF0FBECDBFDF91D0
S1132600CF911F910F91FF90EF90DF90CF90BF90EB
S1132610AF909F908F907F906F905F904F903F907E
S11326202F900895AF92BF92CF92DF92EF92FF92D4
S11326300F931F93CF93DF93CDB7DEB7CE52D14024
S11326400FB6F894DEBF0FBECDBF7C016B01C35D36
S1132650DE4F1882CD52D1408E010F501F4F80E3C0
S1132660F80111928A95E9F75E01FFEDAF1AFEEFCA
S1132670BF0A8CE0F50111928A95E9F7C25DDE4F3D
S11326801882CE52D140C25DDE4F8881CE52D140F5
S11326908032E0F4C25DDE4F8881CE52D140C25D0B
S11326A0DE4F8881CE52D140C25DDE4F8881CE524A
S11326B0D1408F5FC25DDE4F8883CE52D140C25D70
S11326C0DE4F8881CE52D140803220F3D7019096DC
S11326D0F8019801205F3F4F8D918193E217F30732
S11326E0D9F7C25DDE4F1882CE52D140C25DDE4FB3
S11326F08881CE52D140803128F5C25DDE4F988169
S1132700CE52D140C25DDE4F8881CE52D140F80115
S1132710E90FF11DD701A80FB11D90968C9180830C
S1132720C25DDE4F8881CE52D1408F5FC25DDE4FE5
S11327308883CE52D140C25DDE4F8881CE52D140D3
S11327408031D8F2BE016F5F7F4FC70199DBA501CD
S1132750BE016F5F7F4FC8010E947301C25DDE4FEF
S11327601882CE52D140C25DDE4F8881CE52D14014
S1132770803280F5C25DDE4F9881CE52D140C25D79
S1132780DE4F2881CE52D140C25DDE4F8881CE52C9
S1132790D140B701690F711DA601480F511DD80121
S11327A0A20FB11DFA0190818C918927FB018083CE
S11327B0C25DDE4F8881CE52D1408F5FC25DDE4F55
S11327C08883CE52D140C25DDE4F8881CE52D14043
S11327D0803280F2C25DDE4F1882CE52D140C25D9B
S11327E0DE4F8881CE52D140803188F5C25DDE4F04
S11327F09881CE52D140C25DDE4F2881CE52D14065
S1132800C25DDE4F8881CE52D140B701690F711D80
S1132810A601480F511DD801A20FB11DFA0190A1C4
S113282090968C918927FB0180A3C25DDE4F88813D
S1132830CE52D1408F5FC25DDE4F8883CE52D140ED
S1132840C25DDE4F8881CE52D140803178F2C25DC4
S1132850DE4F0FB6F894DEBF0FBECDBFDF91CF9130
S11328601F910F91FF90EF90DF90CF90BF90AF90AA
S113287008958F929F92AF92BF92CF92DF92EF9280
S1132880FF920F931F93CF93DF93CDB7DEB7E297F9
S11328900FB6F894DEBF0FBECDBF5C017B011AAA50
S11328A0F90182809180980C99AA61E070E0892DE9
S11328B090E0E1D58C01CE0101966C0180E3F60134
S11328C011928A95E9F71AAA8AA9881580F49AA917
S11328D08AA9F801E90FF11DD701A80FB11D8C9148
S11328E080838AA98F5F8AAB8AA9881580F38AAA14
S11328F08AA98915A0F4882D90E02AA9EAA9D8010B
S1132900A20FB11DF0E0E81BF90BEE0DFF1D2081B5
S11329102C932AA92F5F2AAB2AA9291570F3AE019B
S11329204F5C5F4FB601C801EBDBB601C5017ADE2F
S1132930C80153D6E2960FB6F894DEBF0FBECDBFE2
S1132940DF91CF911F910F91FF90EF90DF90CF9087
S1132950BF90AF909F908F9008952F923F924F9287
S11329605F926F927F928F929F92AF92BF92CF921B
S1132970DF92EF92FF920F931F93CF93DF93CDB724
S1132980DEB7C95BD1400FB6F894DEBF0FBECDBF32
S11329904C015B012A01CC54DE4F39832883C45B8C
S11329A0D140CA54DE4F19830883C65BD140CD544D
S11329B0DE4F1882C35BD140CE54DE4F1882C25B17
S11329C0D140CF54DE4F1882C15BD1401E012FE5A8
S11329D0221A2EEF320A80E1D1011D928A95E9F77D
S11329E03E01BFEA6B1ABEEF7B0A80E3F301282F96
S11329F011922A95E9F7AE014F575E4FC854DE4F46
S1132A0059834883C85BD14090E2DA011D929A95BC
S1132A10E9F76E01BFEDCB1ABEEFDB0AF601282FF2
S1132A2011922A95E9F78E010F501F4FD8011D927C
S1132A308A95E9F7CD54DE4F1882C35BD140CD545B
S1132A40DE4F8881C35BD140803240F5CD54DE4FE8
S1132A509881C35BD140CD54DE4F8881C35BD140A4
S1132A60E1E8F1E0EC0FFD1FE90FF11D9401280FDF
S1132A70311DD9018C918083CD54DE4F8881C35B95
S1132A80D1408F5FCD54DE4F8883C35BD140CD549A
S1132A90DE4F8881C35BD1408032C0F2C40180968E
S1132AA0F6019601205F3F4FDC014D91CD0141932A
S1132AB02E173F07C9F7CD54DE4F1882C35BD140B0
S1132AC0CD54DE4F8881C35BD140803138F5CD547D
S1132AD0DE4F8881C35BD140CD54DE4F2881C35B78
S1132AE0D140A801480F511DF401E20FF11DE05C33
S1132AF0FF4F2081DA012C93CD54DE4F9881C35BC4
S1132B00D1409F5FCD54DE4F9883C35BD140CD54F9
S1132B10DE4F8881C35BD1408031C8F2BE016F5F54
S1132B207F4FCE018F579E4FABD9F40181A98130DD
S1132B3009F4A7C24114510409F469C1A7014C5F07
S1132B405F4FB301C201DCDAB301C4016BDDCD54C4
S1132B50DE4F1882C35BD140CD54DE4F8881C35B06
S1132B60D140833008F057C0F40187A58F5F87A751
S1132B70BE016F5F7F4FC8010E945200CE54DE4FEA
S1132B801882C25BD140CE54DE4F8881C25BD140F3
S1132B90803170F5CD54DE4F2881C35BD140CE54D3
S1132BA0DE4F9881C25BD140CE54DE4F8881C25B38
S1132BB0D140F50130E1239FE00DF11D1124E90F0F
S1132BC0F11DD801A80FB11D8C918083CE54DE4F26
S1132BD08881C25BD1408F5FCE54DE4F8883C25B55
S1132BE0D140CE54DE4F8881C25BD140803190F217
S1132BF0CD54DE4F8881C35BD1408F5FCD54DE4F0F
S1132C008883C35BD140CD54DE4F8881C35BD14000
S1132C10833008F4A9CFCD54DE4F1882C35BD14072
S1132C20CD54DE4F8881C35BD140833008F05AC055
S1132C30D4019F968C919F978F5F9F968C93BE0132
S1132C406F5F7F4FC8010E945200CE54DE4F18823E
S1132C50C25BD140CE54DE4F8881C25BD14080310B
S1132C6070F5CD54DE4F2881C35BD140CE54DE4F86
S1132C709881C25BD140CE54DE4F8881C25BD14083
S1132C80F601B0E12B9FE00DF11D1124E90FF11DB8
S1132C90D801A80FB11D8C918083CE54DE4F88815A
S1132CA0C25BD1408F5FCE54DE4F8883C25BD1407C
S1132CB0CE54DE4F8881C25BD140803190F2CD5436
S1132CC0DE4F8881C35BD1408F5FCD54DE4F888354
S1132CD0C35BD140CD54DE4F8881C35BD140833088
S1132CE008F4A6CFCD54DE4F1882C35BD140CD5437
S1132CF0DE4F8881C35BD140833030F5CD54DE4F45
S1132D008881C35BD140CD54DE4F9881C35BD140F1
S1132D10F601E90FF11DD301A80FB11D9C9180812B
S1132D2089278083CD54DE4F8881C35BD1408F5F78
S1132D30CD54DE4F8883C35BD140CD54DE4F8881B0
S1132D40C35BD1408330D0F2CD54DE4F1882C35BD5
S1132D50D140CD54DE4F8881C35BD140803278F5B9
S1132D60CD54DE4F9881C35BD140CD54DE4F888172
S1132D70C35BD140CD54DE4F2881C35BD140B40145
S1132D80690F711DF601E80FF11DD301A20FB11DEA
S1132D9090818C918927DB018C93CD54DE4F8881FF
S1132DA0C35BD1408F5FCD54DE4F8883C35BD1407A
S1132DB0CD54DE4F8881C35BD140803288F2CD543C
S1132DC0DE4F1882C35BD140CD54DE4F8881C35B94
S1132DD0D140F40180A98F5F80ABC754DE4F0FB69A
S1132DE0F894DEBF0FBECDBFDF91CF911F910F913D
S1132DF0FF90EF90DF90CF90BF90AF909F908F9017
S1132E007F906F905F904F903F902F900895CD5496
S1132E10DE4F1882C35BD140CD54DE4F8881C35B43
S1132E20D140833008F057C0F40187A58F5F87A78E
S1132E30BE016F5F7F4FC8010E945200CE54DE4F27
S1132E401882C25BD140CE54DE4F8881C25BD14030
S1132E50803170F5CD54DE4F2881C35BD140CE5410
S1132E60DE4F9881C25BD140CE54DE4F8881C25B75
S1132E70D140F50130E1239FE00DF11D1124E90F4C
S1132E80F11DD801A80FB11D8C918083CE54DE4F63
S1132E908881C25BD1408F5FCE54DE4F8883C25B92
S1132EA0D140CE54DE4F8881C25BD140803190F254
S1132EB0CD54DE4F8881C35BD1408F5FCD54DE4F4C
S1132EC08883C35BD140CD54DE4F8881C35BD1403E
S1132ED0833008F4A9CFCD54DE4F1882C35BD140B0
S1132EE0CD54DE4F8881C35BD140833008F05AC093
S1132EF0D4019F968C919F978F5F9F968C93BE0170
S1132F006F5F7F4FC8010E945200CE54DE4F18827B
S1132F10C25BD140CE54DE4F8881C25BD140803148
S1132F2070F5CD54DE4F2881C35BD140CE54DE4FC3
S1132F309881C25BD140CE54DE4F8881C25BD140C0
S1132F40F601B0E12B9FE00DF11D1124E90FF11DF5
S1132F50D801A80FB11D8C918083CE54DE4F888197
S1132F60C25BD1408F5FCE54DE4F8883C25BD140B9
S1132F70CE54DE4F8881C25BD140803190F2CD5473
S1132F80DE4F8881C35BD1408F5FCD54DE4F888391
S1132F90C35BD140CD54DE4F8881C35BD1408330C5
S1132FA008F4A6CFCD54DE4F1882C35BD140CD5474
S1132FB0DE4F8881C35BD140833030F5CD54DE4F82
S1132FC08881C35BD140CD54DE4F9881C35BD1402F
S1132FD0F601E90FF11DD301A80FB11D9C91808169
S1132FE089278083CD54DE4F8881C35BD1408F5FB6
S1132FF0CD54DE4F8883C35BD140CD54DE4F8881EE
S1133000C35BD1408330D0F2CD54DE4F1882C35B12
S1133010D140CD54DE4F8881C35BD140803208F06B
S1133020CECECD54DE4F9881C35BD140CD54DE4F1C
S11330308881C35BD140CD54DE4F2881C35BD1402E
S1133040B401690F711DF601E80FF11DD301A20F40
S1133050B11D90818C918927DB018C93CD54DE4F77
S11330608881C35BD1408F5FCD54DE4F8883C35BBF
S1133070D140CD54DE4F8881C35BD140803288F289
S11330809ECE9701CA54DE4F48815981C65BD14018
S1133090CC54DE4F68817981C45BD140C401E9DB43
S11330A0A7014C5F5F4FB301C1012AD8CD54DE4F55
S11330B01882C35BD140CD54DE4F8881C35BD140BD
S11330C0833008F057C0F40187A58F5F87A7BE013E
S11330D06F5F7F4FC8010E945200CE54DE4F1882AA
S11330E0C25BD140CE54DE4F8881C25BD140803177
S11330F070F5CD54DE4F2881C35BD140CE54DE4FF2
S11331009881C25BD140CE54DE4F8881C25BD140EE
S1133110F50130E1239FE00DF11D1124E90FF11DAC
S1133120D801A80FB11D8C918083CE54DE4F8881C5
S1133130C25BD1408F5FCE54DE4F8883C25BD140E7
S1133140CE54DE4F8881C25BD140803190F2CD54A1
S1133150DE4F8881C35BD1408F5FCD54DE4F8883BF
S1133160C35BD140CD54DE4F8881C35BD1408330F3
S113317008F4A9CFCD54DE4F1882C35BD140CD549F
S1133180DE4F8881C35BD140833008F05AC0D4013C
S11331909F968C919F978F5F9F968C93BE016F5FD4
S11331A07F4FC8010E945200CE54DE4F1882C25B8A
S11331B0D140CE54DE4F8881C25BD140803170F55E
S11331C0CD54DE4F2881C35BD140CE54DE4F98816D
S11331D0C25BD140CE54DE4F8881C25BD140F60140
S11331E0B0E12B9FE00DF11D1124E90FF11DD80171
S11331F0A80FB11D8C918083CE54DE4F8881C25BB1
S1133200D1408F5FCE54DE4F8883C25BD140CE5411
S1133210DE4F8881C25BD140803190F2CD54DE4FC5
S11332208881C35BD1408F5FCD54DE4F8883C35BFD
S1133230D140CD54DE4F8881C35BD140833008F444
S1133240A6CFCD54DE4F1882C35BD140CD54DE4FA0
S11332508881C35BD140803330F5CD54DE4F888103
S1133260C35BD140CD54DE4F9881C35BD140F6019E
S1133270E90FF11DD301A80FB11D9C91808189270D
S11332808083CD54DE4F8881C35BD1408F5FCD54A2
S1133290DE4F8883C35BD140CD54DE4F8881C35B4E
S11332A0D1408033D0F2CD54DE4F1882C35BD1407D
S11332B0CD54DE4F8881C35BD140803208F07FCD8E
S11332C0CD54DE4F9881C35BD140CD54DE4F88810D
S11332D0C35BD140CD54DE4F2881C35BD140B401E0
S11332E0690F711DF601E80FF11DD301A20FB11D85
S11332F090818C918927DB018C93CD54DE4F88819A
S1133300C35BD1408F5FCD54DE4F8883C35BD14014
S1133310CD54DE4F8881C35BD140803288F24FCDDB
S11333204F925F926F927F928F929F92AF92BF92D1
S1133330CF92DF92EF92FF920F931F93CF93DF937D
S1133340EC014B01CA01390128018701AB014B5F34
S11333505F4FB9010E948010B301CE0163D974019B
S11333609601A501B201CE01F8DADF91CF911F9148
S11333700F91FF90EF90DF90CF90BF90AF909F9010
S11333808F907F906F905F904F9008958F929F924F
S1133390AF92BF92CF92DF92EF92FF920F931F935F
S11333A0CF93DF93CDB7DEB7C05AD1090FB6F894E7
S11333B0DEBF0FBECDBFCE0101964C0182E3F40106
S11333C011928A95E9F7BE0165567F4F86E0FB01AD
S11333D011928A95E9F788E1E6E1F3E0DE01AD595F
S11333E0BF4F01900D928A95E1F79E012D5C3F4FEE
S11333F080E3F90111928A95E9F78E0105571F4F71
S113340090E1F801892F11928A95E9F780E1EEE2C3
S1133410F3E0DE01A558BF4F01900D928A95E1F7C4
S1133420FB0194839183928380E2838388E1858383
S1133430A12CB12CCE0185589F4F6C01E12CF12CAD
S1133440AE014D595F4FC4016BDF80E090E0C05680
S1133450DF4F0FB6F894DEBF0FBECDBFDF91CF9123
S11334601F910F91FF90EF90DF90CF90BF90AF909E
S11334709F908F9008950F931F93CF93DF93869F10
S11334808001879F100D969F100D1124C8010DD047
S1133490EC01009721F0A80160E070E027D1CE0193
S11334A0DF91CF911F910F9108950F931F93CF93A5
S11334B0DF938230910510F482E090E0E0914003C4
S11334C0F091410320E030E0A0E0B0E0309719F142
S11334D0408151810281138148175907C8F084172C
S11334E0950769F4109731F012960C93129713967E
S11334F01C9327C0009340031093410322C021155D
S1133500310519F04217530718F49A01BD01EF0170
S1133510DF01F801DBCF21153105F9F0281B390B48
S11335202430310580F48A819B816115710521F075
S1133530FB019383828304C09093410380934003EF
S1133540FE01329644C0FE01E20FF31F8193919372
S113355022503109398328833AC020913E033091A7
S11335603F03232B41F42091020330910303309352
S11335703F0320933E032091000330910103211562
S1133580310541F42DB73EB7409104035091050332
S1133590241B350BE0913E03F0913F03E217F30740
S11335A0A0F42E1B3F0B2817390778F0AC014E5FAF
S11335B05F4F2417350748F04E0F5F1F50933F03AA
S11335C040933E038193919302C0E0E0F0E0CF0189
S11335D0DF91CF911F910F910895CF93DF930097BF
S11335E009F481C0FC01329713821282A091400336
S11335F0B0914103109781F420813181820F931F90
S113360020913E0330913F032817390751F5F09379
S11336103F03E0933E0367C0ED0120E030E0CE17A6
S1133620DF0740F44A815B819E0141155105F1F0A9
S1133630EA01F5CFD383C28340815181840F951F62
S1133640C817D90759F488819981840F951F029668
S1133650918380838A819B819383828321153105A1
S113366029F4F0934103E09340033DC0E901FB8357
S1133670EA8349915991C40FD51FEC17FD0761F4F2
S113368080819181840F951F0296E9019983888333
S1133690828193819B838A83E0E0F0E012968D918E
S11336A09C911397009719F0FD01DC01F7CF8D91E0
S11336B09C9111979D012E5F3F4F820F931F209184
S11336C03E0330913F032817390769F4309729F4F2
S11336D0109241031092400302C013821282B093ED
S11336E03F03A0933E03DF91CF910895DC0101C015
S11136F06D9341505040E0F70895F894FFCFD9
S11336FE637C777BF26B6FC53001672BFED7AB769D
S113370ECA82C97DFA5947F0ADD4A2AF9CA472C047
S113371EB7FD9326363FF7CC34A5E5F171D83115B4
S113372E04C723C31896059A071280E2EB27B275D5
S113373E09832C1A1B6E5AA0523BD6B329E32F844D
S113374E53D100ED20FCB15B6ACBBE394A4C58CF45
S113375ED0EFAAFB434D338545F9027F503C9FA819
S113376E51A3408F929D38F5BCB6DA2110FFF3D2E7
S113377ECD0C13EC5F974417C4A77E3D645D19739B
S113378E60814FDC222A908846EEB814DE5E0BDB95
S113379EE0323A0A4906245CC2D3AC629195E479CC
S11337AEE7C8376D8DD54EA96C56F4EA657AAE0826
S11337BEBA78252E1CA6B4C6E8DD741F4BBD8B8AC1
S11337CE703EB5664803F60E613557B986C11D9E27
S11337DEE1F8981169D98E949B1E87E9CE5528DF9E
S11337EE8CA1890DBFE6426841992D0FB054BB16CA
S11337FEC6F8EEF6FFD6DE916002CE56E7B54DEC76
S113380E8F1F89FAEFB28EFB41B35F452353E49BBE
S113381E75E13D4C6C7EF5836851D1F9E2AB622AB9
S113382E0895469D30370A2F0E241BDFCD4E7FEAB6
S113383E121D583436DCB45BA476B77D52DD5E13AC
S113384EA6B900C140E379B6D48D67729498B08559
S113385EBBC54FED869A66118AE904FEA078254B06
S113386EA25D80053F2170F16377AF4220E5FDBF75
S113387E811826C3BE35882E9355FC7AC8BA32E613
S113388EC0199EA344543B0B8CC76B28A7BC16AD22
S113389EDB647414920C48B89FBD43C43931D3F21F
S11338AED58B6EDA01B19C49D8ACF3CFCAF447106C
S11338BE6FF04A5C38577397CBA1E83E96610D0FB3
S11338CEE07C71CC9006F71CC26AAE6917993A2750
S11338DED9EB2B22D2A907332D3C15C987AA50A5A3
S11338EE0359091A65D784D082295A1E7BA86D2CD8
S11338FE0000420320000001020304050607080924
S113390E0A0B0C0D0E0F3DA93EDD17944F791E3395
S113391E99672CC6EA938A3FFF1409023D0C4EE9BF
S111392EA2CF6E8BFA48BBBE5699DD5ABA0280
S9030000FC
