S01700004763634170706C69636174696F6E312E737265635B
S113000045C0000062C0000060C000005EC0000087
S11300105CC000005AC0000058C0000056C0000078
S113002054C0000052C0000050C000004EC0000088
S11300304CC000004AC0000048C0000046C0000098
S113004044C0000042C0000040C000003EC00000A8
S11300503CC000003AC0000038C0000036C00000B8
S113006034C0000032C0000030C000002EC00000C8
S11300702CC000002AC0000028C0000026C00000D8
S113008024C0000022C0000020C0000011241FBEB4
S1130090CFEFD0E1DEBFCDBF13E0A0E0B1E0ECE7ED
S11300A0F8E300E00BBF02C007900D92A631B10740
S11300B0D9F723E0A6E1B3E001C01D92AA31B2074B
S11300C0E1F70E94921A0C943C1C9ACF4EE003C0B4
S11300D04CE001C04AE00F921F922F923F924F9240
S11300E05F926F927F928F929F92AF92BF92CF92C4
S11300F0DF92EF92FF920F931F932F933F934F93AF
S11301005F936F93CF93DF938F939F93DB01FC01F6
S1130110842FE89481909190A190B190C190D19056
S1130120E190F1900191119121913191419151917D
S1130130619171919BE1F0E20D9080240D909024E7
S11301400D90A0240D90B0240D90C0240D90D024C7
S11301500D90E0240D90F0240D9000250D901025B5
S11301600D9020250D9030250D9040250D905025A3
S11301700D9060250D90702566F5FF91EF918192A9
S11301809192A192B192C192D192E192F192019392
S11301901193219331934193519361937193DF911F
S11301A0CF916F915F914F913F912F911F910F913B
S11301B0FF90EF90DF90CF90BF90AF909F908F9083
S11301C07F906F905F904F903F902F901F900F9073
S11301D008958A9509F46894E82D8490EC2DC490D0
S11301E0E02F0491E42F4491E92D2490ED2D949077
S11301F0E12FD490E52F1491522DEA2D2490EE2D69
S11302003490E22FA490E62FE490222D632DEB2D61
S11302102490E72FB490E32F7491EF2D3491F22CB6
S11302200EF48ACF0A2C0B24402C282C8924082471
S1130230880C08F4892680248224392C3A24330C2F
S113024008F4392630249324440C08F44926402425
S1130250A4242B24220C08F429262024B2240E2CB6
S11302600F24402C2C2CCD240C24CC0C08F4C926AF
S1130270C024C2243D2C3E24330C08F439263024F7
S1130280D324440C08F449264024E4242F24220CCB
S113029008F429262024F224022E0326402C202EA2
S11302A001270026000F08F4092700250225312E16
S11302B03226330C08F4392630241325440C08F470
S11302C04926402424252326220C08F42926202408
S11302D03225062E0726402C242E45270426440FBB
S11302E008F4492740254225352E3626330C08F4D8
S11302F0392630245325440C08F449264024642527
S11303002726220C08F429262024722515CF0F92C3
S11303101F922F923F924F925F926F927F928F9291
S11303209F92AF92BF92CF92DF92EF92FF920F9380
S11303301F932F933F93CF93DF938F939F93DB016F
S1130340FC01019011902190319041905190619065
S1130350719081909190A190B190C190D190E190D1
S1130360F190AF93BF934F935F93F1E0D2E00D917F
S113037000260D9110260D9120260D9130260D9109
S113038040260D9150260D9160260D9170260D91F9
S113039080260D9190260D91A0260D91B0260D91E9
S11303A0C0260D91D0260D91E0260D91F026F394F0
S11303B0E02D1081212F322FC02D08813027E52D0B
S11303C04081042724273427C52D48810427142776
S11303D0EA2D4081042714273427CA2D4881142785
S11303E02427EF2D4081042714272427CF2D48816B
S11303F024273427002EE42D5081652F762FC42D19
S113040048817427E92D0081402760277027C92D72
S1130410088140275027EE2D008140275027702760
S1130420CE2D088150276027E32D008140275027D7
S11304306027C32D088160277027442E552E332E44
S1130440E82D4081542F352FC82D08813027ED2DFC
S11304509081092759273927CD2D988109274927C4
S1130460E22D9081092749273927C22D98814927F0
S11304705927E72D9081092749275927C72D9881A6
S113048059273927802E942EA52E772EEC2D5081B6
S1130490752F972FCC2D48819427E12D008140277B
S11304A070279027C12D088140275027E62D008111
S11304B0402750279027C62D088150277027EB2D01
S11304C00081402750277027CB2D08817027902763
S11304D0C42ED52EE72EF92E112E222E662EB32EE3
S11304E00D9100260D9110260D9120260D91302698
S11304F00D9140260D9150260D9160260D91702688
S11305000D9180260D9190260D91A0260D91B02677
S11305100D91C0260D91D0260D91E0260D91F02667
S11305205F914F91FA014F935F934192519261927F
S1130530719281929192A192B192C192D192E192DF
S1130540F192E02D1081212F322FC02D0881302708
S1130550E52D4081042724273427C52D488104270D
S11305601427EA2D4081042714273427CA2D4881F3
S113057014272427EF2D4081042714272427CF2D67
S1130580488124273427002EE42D5081652F762FAF
S1130590C42D48817427E92D0081402760277027E6
S11305A0C92D088140275027EE2D00814027502770
S11305B07027CE2D088150276027E32D0081402726
S11305C050276027C32D088160277027442E552E9D
S11305D0332EE82D4081542F352FC82D0881302724
S11305E0ED2D9081092759273927CD2D9881092789
S11305F04927E22D9081092749273927C22D98815F
S113060049275927E72D9081092749275927C72DBD
S1130610988159273927802E942EA52E772EEC2DDC
S11306205081752F972FCC2D48819427E12D00817F
S1130630402770279027C12D088140275027E62D99
S11306400081402750279027C62D08815027702706
S1130650EB2D0081402750277027CB2D0881702770
S11306609027C42ED52EE72EF92E112E222E662E7B
S1130670B32E0D9100260D9110260D9120260D917B
S113068030260D9140260D9150260D9160260D9136
S113069070260D9180260D9190260D91A0260D9126
S11306A0B0260D91C0260D91D0260D91E0260D9116
S11306B0F026E02D1081212F322FC02D0881302704
S11306C0E52D4081042724273427C52D488104279C
S11306D01427EA2D4081042714273427CA2D488182
S11306E014272427EF2D4081042714272427CF2DF6
S11306F0488124273427002EE42D5081652F762F3E
S1130700C42D48817427E92D008140276027702774
S1130710C92D088140275027EE2D008140275027FE
S11307207027CE2D088150276027E32D00814027B4
S113073050276027C32D088160277027442E552E2B
S1130740332EE82D4081542F352FC82D08813027B2
S1130750ED2D9081092759273927CD2D9881092717
S11307604927E22D9081092749273927C22D9881ED
S113077049275927E72D9081092749275927C72D4C
S1130780988159273927802E942EA52E772EEC2D6B
S11307905081752F972FCC2D48819427E12D00810E
S11307A0402770279027C12D088140275027E62D28
S11307B00081402750279027C62D08815027702795
S11307C0EB2D0081402750277027CB2D08817027FF
S11307D09027C42ED52EE72EF92E112E222E662E0A
S11307E0B32E0D9100260D9110260D9120260D910A
S11307F030260D9140260D9150260D9160260D91C5
S113080070260D9180260D9190260D91A0260D91B4
S1130810B0260D91C0260D91D0260D91E0260D91A4
S1130820F026E02D1081212F322FC02D0881302792
S1130830E52D4081042724273427C52D488104272A
S11308401427EA2D4081042714273427CA2D488110
S113085014272427EF2D4081042714272427CF2D84
S1130860488124273427002EE42D5081652F762FCC
S1130870C42D48817427E92D008140276027702703
S1130880C92D088140275027EE2D0081402750278D
S11308907027CE2D088150276027E32D0081402743
S11308A050276027C32D088160277027442E552EBA
S11308B0332EE82D4081542F352FC82D0881302741
S11308C0ED2D9081092759273927CD2D98810927A6
S11308D04927E22D9081092749273927C22D98817C
S11308E049275927E72D9081092749275927C72DDB
S11308F0988159273927802E942EA52E772EEC2DFA
S11309005081752F972FCC2D48819427E12D00819C
S1130910402770279027C12D088140275027E62DB6
S11309200081402750279027C62D08815027702723
S1130930EB2D0081402750277027CB2D088170278D
S11309409027C42ED52EE72EF92E112E222E662E98
S1130950B32E0D9100260D9110260D9120260D9198
S113096030260D9140260D9150260D9160260D9153
S113097070260D9180260D9190260D91A0260D9143
S1130980B0260D91C0260D91D0260D91E0260D9133
S1130990F026E02D1081212F322FC02D0881302721
S11309A0E52D4081042724273427C52D48810427B9
S11309B01427EA2D4081042714273427CA2D48819F
S11309C014272427EF2D4081042714272427CF2D13
S11309D0488124273427002EE42D5081652F762F5B
S11309E0C42D48817427E92D008140276027702792
S11309F0C92D088140275027EE2D0081402750271C
S1130A007027CE2D088150276027E32D00814027D1
S1130A1050276027C32D088160277027442E552E48
S1130A20332EE82D4081542F352FC82D08813027CF
S1130A30ED2D9081092759273927CD2D9881092734
S1130A404927E22D9081092749273927C22D98810A
S1130A5049275927E72D9081092749275927C72D69
S1130A60988159273927802E942EA52E772EEC2D88
S1130A705081752F972FCC2D48819427E12D00812B
S1130A80402770279027C12D088140275027E62D45
S1130A900081402750279027C62D088150277027B2
S1130AA0EB2D0081402750277027CB2D088170271C
S1130AB09027C42ED52EE72EF92E112E222E662E27
S1130AC0B32E0D9100260D9110260D9120260D9127
S1130AD030260D9140260D9150260D9160260D91E2
S1130AE070260D9180260D9190260D91A0260D91D2
S1130AF0B0260D91C0260D91D0260D91E0260D91C2
S1130B00F026E02D1081212F322FC02D08813027AF
S1130B10E52D4081042724273427C52D4881042747
S1130B201427EA2D4081042714273427CA2D48812D
S1130B3014272427EF2D4081042714272427CF2DA1
S1130B40488124273427002EE42D5081652F762FE9
S1130B50C42D48817427E92D008140276027702720
S1130B60C92D088140275027EE2D008140275027AA
S1130B707027CE2D088150276027E32D0081402760
S1130B8050276027C32D088160277027442E552ED7
S1130B90332EE82D4081542F352FC82D088130275E
S1130BA0ED2D9081092759273927CD2D98810927C3
S1130BB04927E22D9081092749273927C22D988199
S1130BC049275927E72D9081092749275927C72DF8
S1130BD0988159273927802E942EA52E772EEC2D17
S1130BE05081752F972FCC2D48819427E12D0081BA
S1130BF0402770279027C12D088140275027E62DD4
S1130C000081402750279027C62D08815027702740
S1130C10EB2D0081402750277027CB2D08817027AA
S1130C209027C42ED52EE72EF92E112E222E662EB5
S1130C30B32E0D9100260D9110260D9120260D91B5
S1130C4030260D9140260D9150260D9160260D9170
S1130C5070260D9180260D9190260D91A0260D9160
S1130C60B0260D91C0260D91D0260D91E0260D9150
S1130C70F026E02D1081212F322FC02D088130273E
S1130C80E52D4081042724273427C52D48810427D6
S1130C901427EA2D4081042714273427CA2D4881BC
S1130CA014272427EF2D4081042714272427CF2D30
S1130CB0488124273427002EE42D5081652F762F78
S1130CC0C42D48817427E92D0081402760277027AF
S1130CD0C92D088140275027EE2D00814027502739
S1130CE07027CE2D088150276027E32D00814027EF
S1130CF050276027C32D088160277027442E552E66
S1130D00332EE82D4081542F352FC82D08813027EC
S1130D10ED2D9081092759273927CD2D9881092751
S1130D204927E22D9081092749273927C22D988127
S1130D3049275927E72D9081092749275927C72D86
S1130D40988159273927802E942EA52E772EEC2DA5
S1130D505081752F972FCC2D48819427E12D008148
S1130D60402770279027C12D088140275027E62D62
S1130D700081402750279027C62D088150277027CF
S1130D80EB2D0081402750277027CB2D0881702739
S1130D909027C42ED52EE72EF92E112E222E662E44
S1130DA0B32E0D9100260D9110260D9120260D9144
S1130DB030260D9140260D9150260D9160260D91FF
S1130DC070260D9180260D9190260D91A0260D91EF
S1130DD0B0260D91C0260D91D0260D91E0260D91DF
S1130DE0F026E02D1081212F322FC02D08813027CD
S1130DF0E52D4081042724273427C52D4881042765
S1130E001427EA2D4081042714273427CA2D48814A
S1130E1014272427EF2D4081042714272427CF2DBE
S1130E20488124273427002EE42D5081652F762F06
S1130E30C42D48817427E92D00814027602770273D
S1130E40C92D088140275027EE2D008140275027C7
S1130E507027CE2D088150276027E32D008140277D
S1130E6050276027C32D088160277027442E552EF4
S1130E70332EE82D4081542F352FC82D088130277B
S1130E80ED2D9081092759273927CD2D98810927E0
S1130E904927E22D9081092749273927C22D9881B6
S1130EA049275927E72D9081092749275927C72D15
S1130EB0988159273927802E942EA52E772EEC2D34
S1130EC05081752F972FCC2D48819427E12D0081D7
S1130ED0402770279027C12D088140275027E62DF1
S1130EE00081402750279027C62D0881502770275E
S1130EF0EB2D0081402750277027CB2D08817027C8
S1130F009027C42ED52EE72EF92E112E222E662ED2
S1130F10B32E0D9100260D9110260D9120260D91D2
S1130F2030260D9140260D9150260D9160260D918D
S1130F3070260D9180260D9190260D91A0260D917D
S1130F40B0260D91C0260D91D0260D91E0260D916D
S1130F50F026E02D1081212F322FC02D088130275B
S1130F60E52D4081042724273427C52D48810427F3
S1130F701427EA2D4081042714273427CA2D4881D9
S1130F8014272427EF2D4081042714272427CF2D4D
S1130F90488124273427002EE42D5081652F762F95
S1130FA0C42D48817427E92D0081402760277027CC
S1130FB0C92D088140275027EE2D00814027502756
S1130FC07027CE2D088150276027E32D008140270C
S1130FD050276027C32D088160277027442E552E83
S1130FE0332EE82D4081542F352FC82D088130270A
S1130FF0ED2D9081092759273927CD2D988109276F
S11310004927E22D9081092749273927C22D988144
S113101049275927E72D9081092749275927C72DA3
S1131020988159273927802E942EA52E772EEC2DC2
S11310305081752F972FCC2D48819427E12D008165
S1131040402770279027C12D088140275027E62D7F
S11310500081402750279027C62D088150277027EC
S1131060EB2D0081402750277027CB2D0881702756
S11310709027C42ED52EE72EF92E112E222E662E61
S1131080B32E0D9100260D9110260D9120260D9161
S113109030260D9140260D9150260D9160260D911C
S11310A070260D9180260D9190260D91A0260D910C
S11310B0B0260D91C0260D91D0260D91E0260D91FC
S11310C0F026E02D0080E42D4080E82D8080EC2D7A
S11310D0C080E12D4081E52D1080E92D5080ED2D5B
S11310E09080D42EE22D4081E62D5081EA2D20807F
S11310F0EE2D6080A42EE52EE32D4081EF2D30806F
S1131100EB2DF080E72DB080742E0D9100260D910B
S113111010260D9120260D9130260D9140260D911B
S113112050260D9160260D9170260D9180260D910B
S113113090260D91A0260D91B0260D91C0260D91FB
S1131140D0260D91E0260D91F0265F914F91BF912D
S1131150AF91FF91EF918F010192119221923192FF
S1131160419251926192719281929192A192B19223
S1131170C192D192E192F192F8010081039500832A
S11311808F01019011902190319041905190619084
S1131190719081909190A190B190C190D190E19083
S11311A0F190F801EF93FF93AF93BF934F935F9345
S11311B00CE0A00F0D91C0260D91D0260D91E026D4
S11311C00D91F026F1E0E02D1081212F322FC02D5A
S11311D008813027E52D4081042724273427C52D95
S11311E0488104271427EA2D408104271427342733
S11311F0CA2D488114272427EF2D40810427142762
S11312002427CF2D488124273427002E112E222E67
S1131210332E0D9100260D9110260D9120260D914F
S11312203026FF91EF918F01419051906190719020
S113123081909190A190B190C190D190E190F19062
S11312400F931F93F1E0E02D1081212F322FC02D39
S113125008813027E52D4081042724273427C52D14
S1131260488104271427EA2D4081042714273427B2
S1131270CA2D488114272427EF2D408104271427E1
S11312802427CF2D488124273427002EE42D508194
S1131290652F762FC42D48817427E92D00814027BE
S11312A060277027C92D088140275027EE2D008123
S11312B0402750277027CE2D088150276027E32D23
S11312C00081402750276027C32D0881602770279D
S11312D0442E552E332EE82D4081542F352FC82D02
S11312E008813027ED2D9081092759273927CD2DE5
S11312F0988109274927E22D908109274927392711
S1131300C22D988149275927E72D9081092749271C
S11313105927C72D988159273927802E942EA52E19
S1131320772EEC2D5081752F972FCC2D4881942743
S1131330E12D0081402770279027C12D0881402787
S11313405027E62D0081402750279027C62D08817D
S113135050277027EB2D0081402750277027CB2D75
S1131360088170279027C42ED52EE72EF92E112E32
S1131370222E662EB32E0D9100260D9110260D916E
S113138020260D9130260D9140260D9150260D9169
S113139060260D9170260D9180260D9190260D9159
S11313A0A0260D91B0260D91C0260D91D0260D9149
S11313B0E0260D91F026E02D1081212F322FC02D33
S11313C008813027E52D4081042724273427C52DA3
S11313D0488104271427EA2D408104271427342741
S11313E0CA2D488114272427EF2D40810427142770
S11313F02427CF2D488124273427002EE42D508123
S1131400652F762FC42D48817427E92D008140274C
S113141060277027C92D088140275027EE2D0081B1
S1131420402750277027CE2D088150276027E32DB1
S11314300081402750276027C32D0881602770272B
S1131440442E552E332EE82D4081542F352FC82D90
S113145008813027ED2D9081092759273927CD2D73
S1131460988109274927E22D90810927492739279F
S1131470C22D988149275927E72D908109274927AB
S11314805927C72D988159273927802E942EA52EA8
S1131490772EEC2D5081752F972FCC2D48819427D2
S11314A0E12D0081402770279027C12D0881402716
S11314B05027E62D0081402750279027C62D08810C
S11314C050277027EB2D0081402750277027CB2D04
S11314D0088170279027C42ED52EE72EF92E112EC1
S11314E0222E662EB32E0D9100260D9110260D91FD
S11314F020260D9130260D9140260D9150260D91F8
S113150060260D9170260D9180260D9190260D91E7
S1131510A0260D91B0260D91C0260D91D0260D91D7
S1131520E0260D91F026E02D1081212F322FC02DC1
S113153008813027E52D4081042724273427C52D31
S1131540488104271427EA2D4081042714273427CF
S1131550CA2D488114272427EF2D408104271427FE
S11315602427CF2D488124273427002EE42D5081B1
S1131570652F762FC42D48817427E92D00814027DB
S113158060277027C92D088140275027EE2D008140
S1131590402750277027CE2D088150276027E32D40
S11315A00081402750276027C32D088160277027BA
S11315B0442E552E332EE82D4081542F352FC82D1F
S11315C008813027ED2D9081092759273927CD2D02
S11315D0988109274927E22D90810927492739272E
S11315E0C22D988149275927E72D9081092749273A
S11315F05927C72D988159273927802E942EA52E37
S1131600772EEC2D5081752F972FCC2D4881942760
S1131610E12D0081402770279027C12D08814027A4
S11316205027E62D0081402750279027C62D08819A
S113163050277027EB2D0081402750277027CB2D92
S1131640088170279027C42ED52EE72EF92E112E4F
S1131650222E662EB32E0D9100260D9110260D918B
S113166020260D9130260D9140260D9150260D9186
S113167060260D9170260D9180260D9190260D9176
S1131680A0260D91B0260D91C0260D91D0260D9166
S1131690E0260D91F026E02D1081212F322FC02D50
S11316A008813027E52D4081042724273427C52DC0
S11316B0488104271427EA2D40810427142734275E
S11316C0CA2D488114272427EF2D4081042714278D
S11316D02427CF2D488124273427002EE42D508140
S11316E0652F762FC42D48817427E92D008140276A
S11316F060277027C92D088140275027EE2D0081CF
S1131700402750277027CE2D088150276027E32DCE
S11317100081402750276027C32D08816027702748
S1131720442E552E332EE82D4081542F352FC82DAD
S113173008813027ED2D9081092759273927CD2D90
S1131740988109274927E22D9081092749273927BC
S1131750C22D988149275927E72D908109274927C8
S11317605927C72D988159273927802E942EA52EC5
S1131770772EEC2D5081752F972FCC2D48819427EF
S1131780E12D0081402770279027C12D0881402733
S11317905027E62D0081402750279027C62D088129
S11317A050277027EB2D0081402750277027CB2D21
S11317B0088170279027C42ED52EE72EF92E112EDE
S11317C0222E662EB32E0D9100260D9110260D911A
S11317D020260D9130260D9140260D9150260D9115
S11317E060260D9170260D9180260D9190260D9105
S11317F0A0260D91B0260D91C0260D91D0260D91F5
S1131800E0260D91F026E02D1081212F322FC02DDE
S113181008813027E52D4081042724273427C52D4E
S1131820488104271427EA2D4081042714273427EC
S1131830CA2D488114272427EF2D4081042714271B
S11318402427CF2D488124273427002EE42D5081CE
S1131850652F762FC42D48817427E92D00814027F8
S113186060277027C92D088140275027EE2D00815D
S1131870402750277027CE2D088150276027E32D5D
S11318800081402750276027C32D088160277027D7
S1131890442E552E332EE82D4081542F352FC82D3C
S11318A008813027ED2D9081092759273927CD2D1F
S11318B0988109274927E22D90810927492739274B
S11318C0C22D988149275927E72D90810927492757
S11318D05927C72D988159273927802E942EA52E54
S11318E0772EEC2D5081752F972FCC2D488194277E
S11318F0E12D0081402770279027C12D08814027C2
S11319005027E62D0081402750279027C62D0881B7
S113191050277027EB2D0081402750277027CB2DAF
S1131920088170279027C42ED52EE72EF92E112E6C
S1131930222E662EB32E0D9100260D9110260D91A8
S113194020260D9130260D9140260D9150260D91A3
S113195060260D9170260D9180260D9190260D9193
S1131960A0260D91B0260D91C0260D91D0260D9183
S1131970E0260D91F026E02D1081212F322FC02D6D
S113198008813027E52D4081042724273427C52DDD
S1131990488104271427EA2D40810427142734277B
S11319A0CA2D488114272427EF2D408104271427AA
S11319B02427CF2D488124273427002EE42D50815D
S11319C0652F762FC42D48817427E92D0081402787
S11319D060277027C92D088140275027EE2D0081EC
S11319E0402750277027CE2D088150276027E32DEC
S11319F00081402750276027C32D08816027702766
S1131A00442E552E332EE82D4081542F352FC82DCA
S1131A1008813027ED2D9081092759273927CD2DAD
S1131A20988109274927E22D9081092749273927D9
S1131A30C22D988149275927E72D908109274927E5
S1131A405927C72D988159273927802E942EA52EE2
S1131A50772EEC2D5081752F972FCC2D488194270C
S1131A60E12D0081402770279027C12D0881402750
S1131A705027E62D0081402750279027C62D088146
S1131A8050277027EB2D0081402750277027CB2D3E
S1131A90088170279027C42ED52EE72EF92E112EFB
S1131AA0222E662EB32E0D9100260D9110260D9137
S1131AB020260D9130260D9140260D9150260D9132
S1131AC060260D9170260D9180260D9190260D9122
S1131AD0A0260D91B0260D91C0260D91D0260D9112
S1131AE0E0260D91F026E02D1081212F322FC02DFC
S1131AF008813027E52D4081042724273427C52D6C
S1131B00488104271427EA2D408104271427342709
S1131B10CA2D488114272427EF2D40810427142738
S1131B202427CF2D488124273427002EE42D5081EB
S1131B30652F762FC42D48817427E92D0081402715
S1131B4060277027C92D088140275027EE2D00817A
S1131B50402750277027CE2D088150276027E32D7A
S1131B600081402750276027C32D088160277027F4
S1131B70442E552E332EE82D4081542F352FC82D59
S1131B8008813027ED2D9081092759273927CD2D3C
S1131B90988109274927E22D908109274927392768
S1131BA0C22D988149275927E72D90810927492774
S1131BB05927C72D988159273927802E942EA52E71
S1131BC0772EEC2D5081752F972FCC2D488194279B
S1131BD0E12D0081402770279027C12D08814027DF
S1131BE05027E62D0081402750279027C62D0881D5
S1131BF050277027EB2D0081402750277027CB2DCD
S1131C00088170279027C42ED52EE72EF92E112E89
S1131C10222E662EB32E0D9100260D9110260D91C5
S1131C2020260D9130260D9140260D9150260D91C0
S1131C3060260D9170260D9180260D9190260D91B0
S1131C40A0260D91B0260D91C0260D91D0260D91A0
S1131C50E0260D91F026E02D1081212F322FC02D8A
S1131C6008813027E52D4081042724273427C52DFA
S1131C70488104271427EA2D408104271427342798
S1131C80CA2D488114272427EF2D408104271427C7
S1131C902427CF2D488124273427002EE42D50817A
S1131CA0652F762FC42D48817427E92D00814027A4
S1131CB060277027C92D088140275027EE2D008109
S1131CC0402750277027CE2D088150276027E32D09
S1131CD00081402750276027C32D08816027702783
S1131CE0442E552E332EE82D4081542F352FC82DE8
S1131CF008813027ED2D9081092759273927CD2DCB
S1131D00988109274927E22D9081092749273927F6
S1131D10C22D988149275927E72D90810927492702
S1131D205927C72D988159273927802E942EA52EFF
S1131D30772EEC2D5081752F972FCC2D4881942729
S1131D40E12D0081402770279027C12D088140276D
S1131D505027E62D0081402750279027C62D088163
S1131D6050277027EB2D0081402750277027CB2D5B
S1131D70088170279027C42ED52EE72EF92E112E18
S1131D80222E662EB32E0D9100260D9110260D9154
S1131D9020260D9130260D9140260D9150260D914F
S1131DA060260D9170260D9180260D9190260D913F
S1131DB0A0260D91B0260D91C0260D91D0260D912F
S1131DC0E0260D91F026E02D0080E42D4080E82DE2
S1131DD08080EC2DC080E12D4081E52D1080E92D1F
S1131DE05080ED2D9080D42EE22D4081E62D50813F
S1131DF0EA2D2080EE2D6080A42EE52EE32D408177
S1131E00EF2D3080EB2DF080E72DB080742E0D91F6
S1131E1000260D9110260D9120260D9130260D914E
S1131E2040260D9150260D9160260D9170260D913E
S1131E3080260D9190260D91A0260D91B0260D912E
S1131E40C0260D91D0260D91E0260D91F0265F91CC
S1131E504F91BF91AF91FF91EF9101921192219215
S1131E603192419251926192719281929192A19296
S1131E70B192C192D192E192F192DF91CF913F91CF
S1131E802F911F910F91FF90EF90DF90CF90BF9013
S1131E90AF909F908F907F906F905F904F903F9006
S1131EA02F901F900F900895AB0171E060E007C080
S1131EB0AB0170E060EC03C0AB01772760E8EF9200
S1131EC0FF920F931F93CF93DF93FA01EA01DC0192
S1131ED07695679566956695262F0D9001922A95BD
S1131EE0E1F76695669563FB362F762F795F770F5A
S1131EF0770FDF011497262FE0E0F0E27F0111E075
S1131F004D915D918D919D913217B1F05EF5022F47
S1131F100770043039F5F701E40FF11D4491F7011E
S1131F20E50FF11D5491F701E80FF11D8491F701BC
S1131F30E90FF11D949116C0360FF701E40FF11D5E
S1131F400491F701E50FF11D4491F701E80FF11D2C
S1131F505491F701E90FF11D8491902F4127110F3E
S1131F6008F41BE1FD01099004260192099005265D
S1131F70019209900826019209900926019223955D
S1131F80271709F0BDCFE894DF91CF911F910F91EE
S1131F90FF90EF9008950000000000000000000092
S1131FA0000000000000000000000000000000002D
S1131FB0000000000000000000000000000000001D
S1131FC0000000000000000000000000000000000D
S1131FD000000000000000000000000000000000FD
S1131FE000000000000000000000000000000000ED
S1131FF000000000000000000000000000000000DD
S1132000637C777BF26B6FC53001672BFED7AB76B1
S1132010CA82C97DFA5947F0ADD4A2AF9CA472C05C
S1132020B7FD9326363FF7CC34A5E5F171D83115C9
S113203004C723C31896059A071280E2EB27B275EA
S113204009832C1A1B6E5AA0523BD6B329E32F8462
S113205053D100ED20FCB15B6ACBBE394A4C58CF5A
S1132060D0EFAAFB434D338545F9027F503C9FA82E
S113207051A3408F929D38F5BCB6DA2110FFF3D2FC
S1132080CD0C13EC5F974417C4A77E3D645D1973B0
S113209060814FDC222A908846EEB814DE5E0BDBAA
S11320A0E0323A0A4906245CC2D3AC629195E479E1
S11320B0E7C8376D8DD54EA96C56F4EA657AAE083B
S11320C0BA78252E1CA6B4C6E8DD741F4BBD8B8AD6
S11320D0703EB5664803F60E613557B986C11D9E3C
S11320E0E1F8981169D98E949B1E87E9CE5528DFB3
S11320F08CA1890DBFE6426841992D0FB054BB16DF
S11321002F923F924F925F926F927F928F929F9203
S1132110AF92BF92CF92DF92EF92FF920F931F93F1
S1132120CF93DF93CDB7DEB7C654D1400FB6F89442
S1132130DEBF0FBECDBF8C013B017A01CB5BDE4F0E
S11321401882C554D140CC5BDE4F1882C454D140B0
S1132150CD5BDE4F1882C354D140DA018C91875E87
S1132160CE5BDE4F8883C254D140CE5BDE4F888184
S1132170C254D1408F70CF5BDE4F8883C154D140AD
S113218080E1E6E0F3E0DE01AF5CBE4F01900D922A
S11321908A95E1F75E01BFEDAB1ABEEFBB0A80E1A1
S11321A0F50111928A95E9F71E01F1ED2F0E311C0C
S11321B080E3D1011D928A95E9F7BE016F5F7F4FDD
S11321C0CE018F5C9E4F74DECF5BDE4F8881C1549D
S11321D0D140882389F0CF5BDE4F9881C154D14030
S11321E0CE5BDE4F8881C254D140891B805FCE5BB9
S11321F0DE4F8883C254D140CE5BDE4F8881C25407
S1132200D14061E070E090E00E94FA1A2C01F701DD
S11322102081DC0153962C93539788E257968C9334
S113222088E1CB5BDE4F8883C554D14030E0295E22
S11322303F4FCB5BDE4F8881C554D14090E02817D7
S1132240390754F10115110599F0CB5BDE4F9881E4
S1132250C554D140CB5BDE4F8881C554D140D201F7
S1132260A90FB11DF801E80FF11D789780818C93B7
S1132270CB5BDE4F8881C554D1408F5FCB5BDE4F93
S11322808883C554D140CB5BDE4F8881C554D1408F
S113229090E028173907B4F6CB5BDE4F8881C5542C
S11322A0D140F201E80FF11D80E88083CE5BDE4F60
S11322B08881C254D14082958F70CE5BDE4F888373
S11322C0C254D1406E01BFEECB1ABEEFDB0A80E1EF
S11322D0F60111928A95E9F7CC5BDE4F1882C4545B
S11322E0D140CC5BDE4F8881C454D140833008F0A8
S11322F0A4C0F20183818F5FCA5BDE4F8883C6541A
S1132300D14090E07601F0E1EF0EF11C450120E1AF
S1132310820E911CCB5BDE4F1882C554D140CB5B3F
S1132320DE4F2881C554D140CE5BDE4F8881C25434
S1132330D140281708F046C0CB5BDE4F8881C554D6
S1132340D1408295807FD201A80FB11D8601F6018C
S11323508D918193EE15FF05D9F7D5011196F601FC
S113236001C09D91808189278193EE15FF05C9F7EE
S1132370BE016F5F7F4FC6010E946800F501D8015E
S11323808D918D018193AE15BF05C9F7CB5BDE4FEF
S11323908881C554D1408F5FCB5BDE4F8883C554A1
S11323A0D140CB5BDE4F9881C554D140CE5BDE4F2C
S11323B08881C254D140981718F4F5019081BCCF9C
S11323C0D5019C91CC5BDE4F8881C454D140D101AE
S11323D0E0E18E9FA00DB11D1124F501319601C0DD
S11323E091919D938E169F06D9F7F50111928E1641
S11323F09F06E1F7CA5BDE4FE881C654D140D201A3
S11324001396EC93CC5BDE4F8881C454D1408F5F2C
S1132410CC5BDE4F8883C454D140CC5BDE4F8881D3
S1132420C454D140EF5FCA5BDE4FE883C654D14049
S1132430833018F4D5019C916DCFC2010E94AC1B6E
S1132440CE018F5F9E4F20E1DC011D922A95E9F7B2
S113245028E1CE5BDE4F2883C254D140CB5BDE4FF4
S11324601882C554D140CB5BDE4F2881C554D1407E
S1132470CE5BDE4F3881C254D140231758F5CB5B75
S1132480DE4F3881C554D140CB5BDE4F2881C55423
S1132490D140FC01E30FF11DA10160E1269F400D35
S11324A0511D11244083CB5BDE4F2881C554D1409C
S11324B02F5FCB5BDE4F2883C554D140CB5BDE4F0F
S11324C03881C554D140CE5BDE4F2881C254D140FF
S11324D03217A8F2CB5BDE4F2881C554D140CC5BC8
S11324E0DE4F2883C454D140CC5BDE4F2881C454D2
S11324F0D140203180F5CC5BDE4F3881C454D140CB
S1132500CB5BDE4F4881C554D140CC5BDE4F288184
S1132510C454D140F601E30FF11D30E0240F311D06
S113252022953295307F3227207F3227220D331DAA
S11325302083CC5BDE4F2881C454D1402F5FCC5B19
S1132540DE4F2883C454D140CC5BDE4F2881C45471
S1132550D140203180F2BE016F5F7F4FA9DCCB5B9D
S1132560DE4F1882C554D140CB5BDE4F8881C55401
S1132570D140833008F062C0BE016F5F7F4FC60157
S11325800E946800CC5BDE4F1882C454D140CC5BFF
S1132590DE4F8881C454D140803198F03CC0CC5B7C
S11325A0DE4F8881C454D1408F5FCC5BDE4F88837B
S11325B0C454D140CC5BDE4F8881C454D1408031B7
S11325C050F5CB5BDE4F2881C554D140CC5BDE4F48
S11325D09881C454D140CC5BDE4F8881C454D1402F
S11325E0F301A0E12A9FE00DF11D1124E90FF11D73
S11325F0D601A80FB11D8C918083CB5BDE4F8881FF
S1132600C554D140823059F6CC5BDE4F8881C45426
S1132610D140873021F6CB5BDE4F8881C554D14051
S11326208F5FCB5BDE4F8883C554D140CB5BDE4FDD
S11326308881C554D140833008F49ECFCA5BDE4FF5
S11326400FB6F894DEBF0FBECDBFDF91CF911F91BF
S11326500F91FF90EF90DF90CF90BF90AF909F903D
S11326608F907F906F905F904F903F902F90089540
S1132670AF92BF92CF92DF92EF92FF920F931F938C
S1132680CF93DF93CDB7DEB7C750D1400FB6F894E0
S1132690DEBF0FBECDBF7C016B01CB5FDE4F188266
S11326A0C550D1408E010F521F4F88E2F80111929C
S11326B08A95E9F75E01F9EFAF0EB11C8CE0F501E4
S11326C011928A95E9F788E1CA5FDE4F8883C65084
S11326D0D140C95FDE4F1882C750D140C95FDE4F79
S11326E09881C750D140CA5FDE4F8881C650D1401F
S11326F0981708F5C95FDE4F8881C750D140C95F7C
S1132700DE4F8881C750D140C95FDE4F8881C750F2
S1132710D1408F5FC95FDE4F8883C750D140C95F06
S1132720DE4F9881C750D140CA5FDE4F8881C650C2
S1132730D1409817F8F2D7015896F8019801205F14
S11327403F4F8D918193E217F307D9F7C95FDE4FAD
S11327501882C750D140C95FDE4F8881C750D1402D
S1132760803128F5C95FDE4F9881C750D140C95FD9
S1132770DE4F8881C750D140F801E90FF11DD70120
S1132780A80FB11D58968C918083C95FDE4F888154
S1132790C750D1408F5FC95FDE4F8883C750D14097
S11327A0C95FDE4F8881C750D1408031D8F2BE0165
S11327B06F5F7F4FC7017CDBA501BE016F5F7F4F59
S11327C0C8010E94870188E1CA5FDE4F8883C65032
S11327D0D140C95FDE4F1882C750D140C95FDE4F78
S11327E09881C750D140CA5FDE4F8881C650D1401E
S11327F09817A8F5C95FDE4F9881C750D140C95FCB
S1132800DE4F2881C750D140C95FDE4F8881C75051
S1132810D140B701690F711DA601480F511DD801A0
S1132820A20FB11DFA0190818C918927FB0180834D
S1132830C95FDE4F8881C750D1408F5FC95FDE4FCB
S11328408883C750D140C95FDE4F9881C750D140BB
S1132850CA5FDE4F8881C650D140981758F2C95FCD
S1132860DE4F1882C750D140C95FDE4F8881C75000
S1132870D1408031E8F5C95FDE4F2881C750D1408F
S1132880CA5FDE4F9881C650D140C95FDE4F888150
S1132890C750D140CA5FDE4F5881C650D140C95F8E
S11328A0DE4F4881C750D140B701620F711DD60178
S11328B0A50FB11DA40FB11DF801E90FF11DE80F1B
S11328C0F11D9C9180818927FB01808FC95FDE4FB8
S11328D08881C750D1408F5FC95FDE4F8883C7505E
S11328E0D140C95FDE4F8881C750D140803118F292
S11328F0C95FDE4F0FB6F894DEBF0FBECDBFDF91C8
S1132900CF911F910F91FF90EF90DF90CF90BF90E8
S1132910AF9008958F929F92AF92BF92CF92DF9221
S1132920EF92FF920F931F93CF93DF93CDB7DEB750
S1132930AA970FB6F894DEBF0FBECDBF5C017B0132
S11329401AA6F90182809180980C99A661E070E042
S1132950892D90E04FD68C01CE0101966C0188E25E
S1132960F60111928A95E9F71AA68AA5881580F4CA
S11329709AA58AA5F801E90FF11DD701A80FB11D89
S11329808C9180838AA58F5F8AA78AA5881580F396
S11329908AA68AA58915A0F4882D90E02AA5EAA51F
S11329A0D801A20FB11DF0E0E81BF90BEE0DFF1DDD
S11329B020812C932AA52F5F2AA72AA5291570F315
S11329C0AE01475D5F4FB601C8019ADBB601C50190
S11329D04FDEC801C1D6AA960FB6F894DEBF0FBE6B
S11329E0CDBFDF91CF911F910F91FF90EF90DF90BA
S11329F0CF90BF90AF909F908F9008952F923F9269
S1132A004F925F926F927F928F929F92AF92BF92FA
S1132A10CF92DF92EF92FF920F931F93CF93DF93A6
S1132A20CDB7DEB7C957D1400FB6F894DEBF0FBE9D
S1132A30CDBF4C015B012A01CC58DE4F398328837A
S1132A40C457D140CA58DE4F19830883C657D140B2
S1132A50CD58DE4F1882C357D140CE58DE4F18826E
S1132A60C257D140CF58DE4F1882C157D1401E0102
S1132A702FE9221A2EEF320A80E1D1011D928A95A4
S1132A80E9F73E01BFED6B1ABEEF7B0A88E2F30162
S1132A90282F11922A95E9F7AE01475B5E4FC8587B
S1132AA0DE4F59834883C857D14098E1DA01E92FB2
S1132AB01D92EA95E9F76E01F9EFCF0ED11CD6010C
S1132AC0E82F1D92EA95E9F78E010F521F4FD801A6
S1132AD01D928A95E9F7CE58DE4F9883C257D140AC
S1132AE0CD58DE4F1882C357D140CD58DE4F988160
S1132AF0C357D140CE58DE4F8881C257D140981772
S1132B0068F5CD58DE4F9881C357D140CD58DE4F7C
S1132B108881C357D140E9E4F1E0EC0FFD1FE90FD0
S1132B20F11D9401280F311DD9018C918083CD585A
S1132B30DE4F8881C357D1408F5FCD58DE4F8883E5
S1132B40C357D140CD58DE4F9881C357D140CE589A
S1132B50DE4F8881C257D140981798F2C401489635
S1132B60F6019601205F3F4FDC014D91CD01419369
S1132B702E173F07C9F7CD58DE4F1882C357D140EF
S1132B80CD58DE4F8881C357D140803160F5CD5890
S1132B90DE4F8881C357D140CE58DE4F3881C257AB
S1132BA0D140CD58DE4F2881C357D140A801480FEA
S1132BB0511DF401E30FF11DE20FF11D208DDA0127
S1132BC02C93CD58DE4F9881C357D1409F5FCD5889
S1132BD0DE4F9883C357D140CD58DE4F8881C35709
S1132BE0D1408031A0F2BE016F5F7F4FCE01875B81
S1132BF09E4F5ED9F40181A5813009F46DC1A7010E
S1132C004114510409F4B7C24C5F5F4FB301C201D0
S1132C1077DAB301C4012CDDCD58DE4F1882C357D7
S1132C20D140CD58DE4F8881C357D140833008F05E
S1132C3057C0F40187A18F5F87A3BE016F5F7F4FE9
S1132C40C8010E946800CE58DE4F1882C257D14096
S1132C50CE58DE4F8881C257D140803170F5CD58AF
S1132C60DE4F2881C357D140CE58DE4F9881C257DA
S1132C70D140CE58DE4F8881C257D140F50130E1B2
S1132C80239FE00DF11D1124E90FF11DD801A80FB8
S1132C90B11D8C918083CE58DE4F8881C257D140BC
S1132CA08F5FCE58DE4F8883C257D140CE58DE4F57
S1132CB08881C257D140803190F2CD58DE4F88814F
S1132CC0C357D1408F5FCD58DE4F8883C357D1405F
S1132CD0CD58DE4F8881C357D140833008F4A9CF43
S1132CE0CD58DE4F1882C357D140CD58DE4F88816E
S1132CF0C357D140833008F05AC0D40197968C91C1
S1132D0097978F5F97968C93BE016F5F7F4FC80133
S1132D100E946800CE58DE4F1882C257D140CE5868
S1132D20DE4F8881C257D140803170F5CD58DE4FD7
S1132D302881C357D140CE58DE4F9881C257D14025
S1132D40CE58DE4F8881C257D140F601B0E12B9FA7
S1132D50E00DF11D1124E90FF11DD801A80FB11DDB
S1132D608C918083CE58DE4F8881C257D1408F5FCB
S1132D70CE58DE4F8883C257D140CE58DE4F88816B
S1132D80C257D140803190F2CD58DE4F8881C3576D
S1132D90D1408F5FCD58DE4F8883C357D140CD5883
S1132DA0DE4F8881C357D140833008F4A6CFCD5875
S1132DB0DE4F1882C357D140CD58DE4F8881C357A8
S1132DC0D140833030F5CD58DE4F8881C357D14090
S1132DD0CD58DE4F9881C357D140F601E90FF11D5C
S1132DE0D301A80FB11D9C91808189278083CD5880
S1132DF0DE4F8881C357D1408F5FCD58DE4F888323
S1132E00C357D140CD58DE4F8881C357D14083305A
S1132E10D0F2CD58DE4F1882C357D140CD58DE4F83
S1132E208881C357D140883178F5CD58DE4F9881D9
S1132E30C357D140CD58DE4F8881C357D140CD58B8
S1132E40DE4F2881C357D140B401690F711DF601CB
S1132E50E80FF11DD301A20FB11D90818C91892738
S1132E60DB018C93CD58DE4F8881C357D1408F5FEF
S1132E70CD58DE4F8883C357D140CD58DE4F88816B
S1132E80C357D140883188F2CD58DE4F1882C357DA
S1132E90D140CD58DE4F8881C357D140F40180A57D
S1132EA08F5F80A7C758DE4F0FB6F894DEBF0FBE02
S1132EB0CDBFDF91CF911F910F91FF90EF90DF90E5
S1132EC0CF90BF90AF909F908F907F906F905F90C6
S1132ED04F903F902F9008959701CA58DE4F488134
S1132EE05981C657D140CC58DE4F68817981C45787
S1132EF0D140C4010FDDA7014C5F5F4FB301C10195
S1132F00FFD8CD58DE4F1882C357D140CD58DE4F7D
S1132F108881C357D140833008F057C0F40187A19A
S1132F208F5F87A3BE016F5F7F4FC8010E94680057
S1132F30CE58DE4F1882C257D140CE58DE4F88811A
S1132F40C257D140803170F5CD58DE4F2881C35728
S1132F50D140CE58DE4F9881C257D140CE58DE4F73
S1132F608881C257D140F50130E1239FE00DF11D66
S1132F701124E90FF11DD801A80FB11D8C91808394
S1132F80CE58DE4F8881C257D1408F5FCE58DE4F76
S1132F908883C257D140CE58DE4F8881C257D14072
S1132FA0803190F2CD58DE4F8881C357D1408F5F76
S1132FB0CD58DE4F8883C357D140CD58DE4F88812A
S1132FC0C357D140833008F4A9CFCD58DE4F1882BF
S1132FD0C357D140CD58DE4F8881C357D140833089
S1132FE008F05AC0D40197968C9197978F5F979663
S1132FF08C93BE016F5F7F4FC8010E946800CE585A
S1133000DE4F1882C257D140CE58DE4F8881C25756
S1133010D140803170F5CD58DE4F2881C357D1405F
S1133020CE58DE4F9881C257D140CE58DE4F8881AA
S1133030C257D140F601B0E12B9FE00DF11D1124E0
S1133040E90FF11DD801A80FB11D8C918083CE58D2
S1133050DE4F8881C257D1408F5FCE58DE4F8883C0
S1133060C257D140CE58DE4F8881C257D1408031FB
S113307090F2CD58DE4F8881C357D1408F5FCD5831
S1133080DE4F8883C357D140CD58DE4F8881C35764
S1133090D140833008F4A6CFCD58DE4F1882C357F1
S11330A0D140CD58DE4F8881C357D140883230F5A6
S11330B0CD58DE4F8881C357D140CD58DE4F98811B
S11330C0C357D140F601E90FF11DD301A80FB11D7B
S11330D09C91808189278083CD58DE4F8881C35796
S11330E0D1408F5FCD58DE4F8883C357D140CD5830
S11330F0DE4F8881C357D1408832D0F2CD58DE4F9D
S11331001882C357D140CD58DE4F8881C357D14070
S1133110883108F0B9CECD58DE4F9881C357D140DD
S1133120CD58DE4F8881C357D140CD58DE4F28811A
S1133130C357D140B401690F711DF601E80FF11DA9
S1133140D301A20FB11D90818C918927DB018C934F
S1133150CD58DE4F8881C357D1408F5FCD58DE4FA5
S11331608883C357D140CD58DE4F8881C357D1409F
S1133170883188F289CEB301C1010E948010CD58F4
S1133180DE4F1882C357D140CD58DE4F8881C357D4
S1133190D140833008F057C0F40187A18F5F87A323
S11331A0BE016F5F7F4FC8010E946800CE58DE4F9A
S11331B01882C257D140CE58DE4F8881C257D140C1
S11331C0803170F5CD58DE4F2881C357D140CE5899
S11331D0DE4F9881C257D140CE58DE4F8881C25706
S11331E0D140F50130E1239FE00DF11D1124E90FD9
S11331F0F11DD801A80FB11D8C918083CE58DE4FEC
S11332008881C257D1408F5FCE58DE4F8883C25722
S1133210D140CE58DE4F8881C257D140803190F2E0
S1133220CD58DE4F8881C357D1408F5FCD58DE4FD4
S11332308883C357D140CD58DE4F8881C357D140CE
S1133240833008F4A9CFCD58DE4F1882C357D1403C
S1133250CD58DE4F8881C357D140833008F05AC01F
S1133260D40197968C9197978F5F97968C93BE0114
S11332706F5F7F4FC8010E946800CE58DE4F1882EE
S1133280C257D140CE58DE4F8881C257D1408031D9
S113329070F5CD58DE4F2881C357D140CE58DE4F4C
S11332A09881C257D140CE58DE4F8881C257D14051
S11332B0F601B0E12B9FE00DF11D1124E90FF11D82
S11332C0D801A80FB11D8C918083CE58DE4F888120
S11332D0C257D1408F5FCE58DE4F8883C257D1404A
S11332E0CE58DE4F8881C257D140803190F2CD58FC
S11332F0DE4F8881C357D1408F5FCD58DE4F88831E
S1133300C357D140CD58DE4F8881C357D140833055
S113331008F4A6CF88E1CE58DE4F8883C257D14047
S1133320CD58DE4F1882C357D140CD58DE4F888127
S1133330C357D140833030F5CD58DE4F8881C35711
S1133340D140CD58DE4F9881C357D140F601E90FE3
S1133350F11DD301A80FB11D9C9180818927808321
S1133360CD58DE4F8881C357D1408F5FCD58DE4F93
S11333708883C357D140CD58DE4F8881C357D1408D
S11333808330D0F2CD58DE4F1882C357D140CD5888
S1133390DE4F9881C357D140CE58DE4F8881C25743
S11333A0D1409817A0F5CD58DE4F9881C357D1402E
S11333B0CD58DE4F8881C357D140CD58DE4F288188
S11333C0C357D140B401690F711DF601E80FF11D17
S11333D0D301A20FB11D90818C918927DB018C93BD
S11333E0CD58DE4F8881C357D1408F5FCD58DE4F13
S11333F08883C357D140CD58DE4F9881C357D140FD
S1133400CE58DE4F8881C257D140981760F2CE580B
S1133410DE4F9881C257D14083E0891BCE58DE4FDE
S11334208883C257D140CD58DE4F1882C357D1404C
S1133430CD58DE4F9881C357D140CE58DE4F888196
S1133440C257D140981708F029CDCD58DE4F988146
S1133450C357D140CD58DE4F8881C357D140CD5892
S1133460DE4F2881C357D140B401690F711DF601A5
S1133470E80FF11DD301A20FB11D908950968C91D4
S11334808927DB0158968C93CD58DE4F8881C3572A
S1133490D1408F5FCD58DE4F8883C357D140CD587C
S11334A0DE4F9881C357D140CE58DE4F8881C25732
S11334B0D140981750F2F2CC4F925F926F927F9264
S11334C08F929F92AF92BF92CF92DF92EF92FF9230
S11334D00F931F93CF93DF93EC014B01CA01390182
S11334E028018701AB014B5F5F4FB9010E94801037
S11334F0B301CE01BDD874019601A501B201CE017C
S11335007DDADF91CF911F910F91FF90EF90DF90C3
S1133510CF90BF90AF909F908F907F906F905F906F
S11335204F9008958F929F92AF92BF92CF92DF9265
S1133530EF92FF920F931F93CF93DF93CDB7DEB734
S1133540C858D1090FB6F894DEBF0FBECDBFCE0167
S113355001964C018AE2D4011D928A95E9F7FE0195
S1133560ED57FF4F86E0DF011D928A95E9F7AE0122
S11335704D585F4F90E1DA01892F1D928A95E9F742
S11335809E01255D3F4F88E2D9011D928A95E9F796
S11335908E010D591F4FD801892F1D928A95E9F785
S11335A06E01A3E5CA0ED11CD601892F1D928A95FE
S11335B0E9F79483918392839583A12CB12CE12C18
S11335C0F12CBF01C40178DF80E090E0C857DF4FE1
S11335D00FB6F894DEBF0FBECDBFDF91CF911F9120
S11335E00F91FF90EF90DF90CF90BF90AF909F909E
S11335F08F9008950F931F93CF93DF93869F80013D
S1133600879F100D969F100D1124C8010DD0EC0159
S1133610009721F0A80160E070E027D1CE01DF918E
S1133620CF911F910F9108950F931F93CF93DF9321
S11336308230910510F482E090E0E0911803F0915B
S1133640190320E030E0A0E0B0E0309719F14081A8
S113365051810281138148175907C8F084179507CF
S113366069F4109731F012960C93129713961C93E9
S113367027C0009318031093190322C021153105A4
S113368019F04217530718F49A01BD01EF01DF0145
S1133690F801DBCF21153105F9F0281B390B243053
S11336A0310580F48A819B816115710521F0FB014C
S11336B09383828304C09093190380931803FE01BB
S11336C0329644C0FE01E20FF31F8193919322507E
S11336D03109398328833AC02091160330911703A6
S11336E0232B41F4209102033091030330931703F9
S11336F02093160320910003309101032115310515
S113370041F42DB73EB74091040350910503241BA7
S1133710350BE0911603F0911703E217F307A0F4B9
S11337202E1B3F0B2817390778F0AC014E5F5F4F13
S11337302417350748F04E0F5F1F5093170340932B
S113374016038193919302C0E0E0F0E0CF01DF9192
S1133750CF911F910F910895CF93DF93009709F4B0
S113376081C0FC01329713821282A0911803B09198
S11337701903109781F420813181820F931F2091C6
S11337801603309117032817390751F5F0931703DF
S1133790E093160367C0ED0120E030E0CE17DF07A9
S11337A040F44A815B819E0141155105F1F0EA0123
S11337B0F5CFD383C28340815181840F951FC817ED
S11337C0D90759F488819981840F951F02969183B2
S11337D080838A819B81938382832115310529F417
S11337E0F0931903E09318033DC0E901FB83EA83D6
S11337F049915991C40FD51FEC17FD0761F48081DD
S11338009181840F951F0296E901998388838281AF
S113381093819B838A83E0E0F0E012968D919C91E2
S11338201397009719F0FD01DC01F7CF8D919C915E
S113383011979D012E5F3F4F820F931F2091160316
S1133840309117032817390769F4309729F4109237
S113385019031092180302C013821282B093170343
S1133860A0931603DF91CF910895DC0101C06D93FD
S10F387041505040E0F70895F894FFCF59
S113387C637C777BF26B6FC53001672BFED7AB761D
S113388CCA82C97DFA5947F0ADD4A2AF9CA472C0C8
S113389CB7FD9326363FF7CC34A5E5F171D8311535
S11338AC04C723C31896059A071280E2EB27B27556
S11338BC09832C1A1B6E5AA0523BD6B329E32F84CE
S11338CC53D100ED20FCB15B6ACBBE394A4C58CFC6
S11338DCD0EFAAFB434D338545F9027F503C9FA89A
S11338EC51A3408F929D38F5BCB6DA2110FFF3D268
S11338FCCD0C13EC5F974417C4A77E3D645D19731C
S113390C60814FDC222A908846EEB814DE5E0BDB15
S113391CE0323A0A4906245CC2D3AC629195E4794C
S113392CE7C8376D8DD54EA96C56F4EA657AAE08A6
S113393CBA78252E1CA6B4C6E8DD741F4BBD8B8A41
S113394C703EB5664803F60E613557B986C11D9EA7
S113395CE1F8981169D98E949B1E87E9CE5528DF1E
S113396C8CA1890DBFE6426841992D0FB054BB164A
S113397CC6F8EEF6FFD6DE916002CE56E7B54DECF6
S113398C8F1F89FAEFB28EFB41B35F452353E49B3F
S113399C75E13D4C6C7EF5836851D1F9E2AB622A3A
S11339AC0895469D30370A2F0E241BDFCD4E7FEA37
S11339BC121D583436DCB45BA476B77D52DD5E132D
S11339CCA6B900C140E379B6D48D67729498B085DA
S11339DCBBC54FED869A66118AE904FEA078254B87
S11339ECA25D80053F2170F16377AF4220E5FDBFF6
S11339FC811826C3BE35882E9355FC7AC8BA32E694
S1133A0CC0199EA344543B0B8CC76B28A7BC16ADA2
S1133A1CDB647414920C48B89FBD43C43931D3F29F
S1133A2CD58B6EDA01B19C49D8ACF3CFCAF44710EC
S1133A3C6FF04A5C38577397CBA1E83E96610D0F33
S1133A4CE07C71CC9006F71CC26AAE6917993A27D0
S1133A5CD9EB2B22D2A907332D3C15C987AA50A523
S1133A6C0359091A65D784D082295A1E7BA86D2C58
S1133A7C00001A03200000010203040506070809CC
S1093A8C0A0B0C0D0E0FE5
S9030000FC
