:10000000FFC1000012C2000010C200000EC20000BA
:100010000CC200000AC2000008C2000006C20000B4
:1000200004C2000002C2000000C20000FEC10000C5
:10003000FCC10000FAC10000F8C10000F6C10000D8
:10004000F4C10000F2C10000F0C10000EEC10000E8
:10005000ECC10000EAC10000E8C10000E6C10000F8
:10006000E4C10000E2C10000E0C10000DEC1000008
:10007000DCC10000DAC10000D8C10000D6C1000018
:10008000D4C10000D2C10000D0C1000000000000B7
:100090000000000000000000000000000000000060
:1000A0000000000000000000000000000000000050
:1000B0000000000000000000000000000000000040
:1000C0000000000000000000000000000000000030
:1000D0000000000000000000000000000000000020
:1000E0000000000000000000000000000000000010
:1000F0000000000000000000000000000000000000
:1001000000020406080A0C0E10121416181A1C1EFF
:1001100020222426282A2C2E30323436383A3C3EEF
:1001200040424446484A4C4E50525456585A5C5EDF
:1001300060626466686A6C6E70727476787A7C7ECF
:1001400080828486888A8C8E90929496989A9C9EBF
:10015000A0A2A4A6A8AAACAEB0B2B4B6B8BABCBEAF
:10016000C0C2C4C6C8CACCCED0D2D4D6D8DADCDE9F
:10017000E0E2E4E6E8EAECEEF0F2F4F6F8FAFCFE8F
:100180001B191F1D131117150B090F0D030107056F
:100190003B393F3D333137352B292F2D232127255F
:1001A0005B595F5D535157554B494F4D434147454F
:1001B0007B797F7D737177756B696F6D636167653F
:1001C0009B999F9D939197958B898F8D838187852F
:1001D000BBB9BFBDB3B1B7B5ABA9AFADA3A1A7A51F
:1001E000DBD9DFDDD3D1D7D5CBC9CFCDC3C1C7C50F
:1001F000FBF9FFFDF3F1F7F5EBE9EFEDE3E1E7E5FF
:10020000637C777BF26B6FC53001672BFED7AB76D3
:10021000CA82C97DFA5947F0ADD4A2AF9CA472C07E
:10022000B7FD9326363FF7CC34A5E5F171D83115EB
:1002300004C723C31896059A071280E2EB27B2750C
:1002400009832C1A1B6E5AA0523BD6B329E32F8484
:1002500053D100ED20FCB15B6ACBBE394A4C58CF7C
:10026000D0EFAAFB434D338545F9027F503C9FA850
:1002700051A3408F929D38F5BCB6DA2110FFF3D21E
:10028000CD0C13EC5F974417C4A77E3D645D1973D2
:1002900060814FDC222A908846EEB814DE5E0BDBCC
:1002A000E0323A0A4906245CC2D3AC629195E47903
:1002B000E7C8376D8DD54EA96C56F4EA657AAE085D
:1002C000BA78252E1CA6B4C6E8DD741F4BBD8B8AF8
:1002D000703EB5664803F60E613557B986C11D9E5E
:1002E000E1F8981169D98E949B1E87E9CE5528DFD5
:1002F0008CA1890DBFE6426841992D0FB054BB1601
:1003000001020408102040801B366CD8AB000000AE
:1003100000000000000000000000000000000000DD
:1003200000000000000000000000000000000000CD
:1003300000000000000000000000000000000000BD
:1003400000000000000000000000000000000000AD
:10035000000000000000000000000000000000009D
:10036000000000000000000000000000000000008D
:10037000000000000000000000000000000000007D
:10038000000000000000000000000000000000006D
:10039000000000000000000000000000000000005D
:1003A000000000000000000000000000000000004D
:1003B000000000000000000000000000000000003D
:1003C000000000000000000000000000000000002D
:1003D000000000000000000000000000000000001D
:1003E000000000000000000000000000000000000D
:1003F00000000000000000000000000000000000FD
:1004000011241FBECFEFD0E1DEBFCDBF11E0A0E0D1
:10041000B1E0E8E0F0E100E00BBF02C007900D9210
:10042000A031B107D9F779D5EDC5EACD0F923F924A
:100430004F925F926F927F928F920F931F93CF9301
:10044000DF93EF93FF93DC01EC0104E01BE1E0E0BC
:10045000F1E02990499059906990022C0424E02DF4
:1004600004900424052406240D92042C0524E02D78
:1004700004900224052406240D92052C0624E02D68
:1004800004900224042406240D92062C0224E02D5C
:1004900004900224042405240D920A95D1F6FF91BC
:1004A000EF91DF91CF911F910F918F907F906F907F
:1004B0005F904F903F900F9008950F921F922F9250
:1004C0003F924F925F926F927F928F929F92AF92E4
:1004D000BF92CF92DF92EF92FF920F931F93CF9331
:1004E000DF93EF93FF93EC01DC01E0E0F2E0E991B0
:1004F0000490E9911490E9912490E9913490E99164
:100500004490E9915490E9916490E9917490E99153
:100510008490E9919490E991A490E991B490E99143
:10052000C490E991D490E991E490E991F4900D920E
:100530005D92AD92FD924D929D92ED923D928D9283
:10054000DD922D927D92CD921D926D92BD92FF9182
:10055000EF91DF91CF911F910F91FF90EF90DF907E
:10056000CF90BF90AF909F908F907F906F905F9053
:100570004F903F902F901F900F900895DC01409670
:10058000EC91F0E0E050FE4FE491ED93A817B9072D
:10059000B9F70895FC0185859181958795819183AF
:1005A0009185958381879285868522812287268100
:1005B0002687928386838781938197839785938308
:1005C0009385978783870895DB01FC01AC01405F29
:1005D0005F4F9D91208192279193E417F507C9F70A
:1005E0000895CF93DF93CDB7DEB764970FB6F89435
:1005F000DEBF0FBECDBFDC0119829E012E5F3F4FD3
:1006000080E1F90111928A95E9F71C963C911C97BB
:1006100039831D962C911D972A8B1E969C911E97AF
:100620009B8B1F968C911F978C8BEA89F0E0E05092
:10063000FE4FE491EE87EB89F0E0E050FE4FE4914D
:10064000EF87EC89F0E0E050FE4FE491E88BE98120
:10065000F0E0E050FE4FE491E98BFB0140814A8BD2
:10066000EA89F0E0E050FD4FE491E983EE8559819D
:100670005E27EC915E275A83EF8511965C91119766
:100680005E275B83E88912965C9112975E275C83F4
:10069000E98913965C9113975E275D83EA8114962E
:1006A0005C9114975E275E83EB8115965C9115979C
:1006B0005E275F83EC8116965C9116975E275887BC
:1006C000ED8117965C9117975E275987EE811896F2
:1006D0005C9118975E275A87EF8119965C9119975C
:1006E0005E275B87E8851A965C911A975E275C8780
:1006F000E9851B965C911B975E275D875A85352798
:100700003E873B8523272F872C859227988B9D85B5
:100710008927898B4F5FFB01408319828981803152
:1007200098F499818981E2E0F0E0EC0FFD1FE80F79
:10073000F11D8081FD01E90FF11D808399819F5F8B
:1007400099838981803168F364960FB6F894DEBF8F
:100750000FBECDBFDF91CF910895FC01409611925D
:10076000E817F907E1F70895FB01DC019B01205F21
:100770003F4F81918D93E217F307D9F70895CF92F8
:10078000DF92EF92FF920F931F93CF93DF93CDB73A
:10079000DEB729970FB6F894DEBF0FBECDBFAC0110
:1007A00019821A821B821C821D821E821F82188659
:1007B000DB013C91311120C081E08887BA016C5F78
:1007C0007F4F8E010B5F1F4FFE013996680180E05D
:1007D000FF24F394E12CDB012E91BD019291920F45
:1007E000980FD6019E936D018F2D921708F08E2DD4
:1007F000E017F10781F737C0313009F581E08F83C9
:10080000BA016D5F7F4FFE0138966E01B4E0CB0EEA
:10081000D11C8E010B5F1F4F20E0F12CDB019E915C
:10082000BD018291890F820FD6018E936D01232F16
:10083000891708F02F2DE017F10781F71DC032301E
:1008400089F481E08E83FA01318121E0230F2A832C
:1008500090818D81980F81E0231708F080E0890F47
:1008600089830AC080E0333039F491E09D83DA0156
:100870009C919F5F890F8983198689858430BCF498
:1008800029859985FA01E20FF11D27FDFA95A1E06E
:10089000B0E0AC0FBD1FA90FB11D97FDBA959C919B
:1008A000908399859F5F9987998594304CF3299619
:1008B0000FB6F894DEBF0FBECDBFDF91CF911F9171
:1008C0000F91FF90EF90DF90CF900895AF92BF927D
:1008D000DF92EF92FF920F931F93CF93DF93CDB7E9
:1008E000DEB728970FB6F894DEBF0FBECDBFAC01C0
:1008F00019821A821B821C821D821E821F82188608
:1009000081E088878A010C5F1F4FFE013596DE016A
:100910001996BF017F015F0180E031E0D12CF80121
:1009200022918F019E91920F980FF50192935F0192
:10093000832F921708F08D2DAE15BF0581F7FE01AC
:100940003196DA0181918D93E617F707D9F728964A
:100950000FB6F894DEBF0FBECDBFDF91CF911F91D0
:100960000F91FF90EF90DF90BF90AF9008958F921E
:100970009F92AF92BF92CF92DF92EF92FF920F932E
:100980001F93CF93DF93CDB7DEB7A8970FB6F89438
:10099000DEBF0FBECDBF7C015B016A0180E18E012D
:1009A0000F5F1F4FD801E82F1D92EA95E9F7FE016E
:1009B0007196DF011D928A95E9F719A21AA21CA26D
:1009C0001BA2CA01CADEB601C801CEDE18A61FA24C
:1009D0008FA198A504970CF0A6C0802E912E1EA280
:1009E0001DA28DA19EA105970CF08EC019A2B50184
:1009F000CE014196B9DEBE016F5E7F4F882D992DE5
:100A0000E3DDBE016F5D7F4FCE014196EADD882DAB
:100A1000992D53DD882D992D09DDBE016F5E7F4F25
:100A2000882D992DD1DDBE016F5D7F4FCE0141969E
:100A3000D8DD882D992DA2DD1AA28AA1843008F074
:100A400050C08FA198A5039739F1EFA1F8A58AA10D
:100A50003196EE0FFF1FEE0FFF1FE00FF11FE80FA3
:100A6000F11D808190E09CA38BA36BA17CA12FA1A1
:100A700038A59AA14DA15EA1322F2227330F330F43
:100A80002E0D3F1D892F90E0982F8827840F951FEA
:100A9000820F931FA6D21EC08AA1F801E80FF11D94
:100AA000808190E09CA38BA36BA17CA12FA138A592
:100AB0009AA14DA15EA1322F2227330F330F2E0DA5
:100AC0003F1D892F90E0982F8827840F951F820F54
:100AD000931F87D28AA18F5F8AA38AA1843008F4EA
:100AE000B0CFBE01695D7F4FC60149DEB601882DDA
:100AF000992D3ADE8DA19EA101969EA38DA38DA175
:100B00009EA105970CF472CF882D992D26DEC60183
:100B100024DE8FA198A5019698A78FA38FA198A5F1
:100B200004970CF45CCFA8960FB6F894DEBF0FBE06
:100B3000CDBFDF91CF911F910F91FF90EF90DF908C
:100B4000CF90BF90AF909F908F9008952F923F923B
:100B50004F925F926F927F928F929F92AF92BF92CD
:100B6000CF92DF92EF92FF920F931F93CF93DF9379
:100B7000CDB7DEB7A4970FB6F894DEBF0FBECDBFDA
:100B8000FC014BA35CA380E1AE014F5F5F4FDA0134
:100B9000982F1D929A95E9F7198A6E01A2E1CA0E63
:100BA000D11CD6011D928A95E9F78080912CB4EF73
:100BB0009B1A860E971E8A0183811B01280E311C09
:100BC0006280712C8CEF781A660E771E4180512C52
:100BD00098EF591A460E571EA22EB32E7A01A4E0A2
:100BE000AAA3C401F6D1F7018083C101F2D1D701D4
:100BF00014968C93C301EDD1F7018087C201E9D12E
:100C0000D7011C968C93F5018081D6018C93848149
:100C100014968C931497808518968C9318978485D6
:100C20001C968C93BAA1B150BAA39394FFEFEF1A1C
:100C3000FF0A339473945394BFEFAB1ABB0AEFEFE0
:100C4000CE1ADE0AFAA1F111CCCFBE016F5E7F4F42
:100C5000CE014296C6DCBE016F5E7F4FCE0142964A
:100C6000C0DCCE01019696DCCE010196DFDBBE0131
:100C70006E5E7F4FCE010196A7DCBE016F5E7F4F97
:100C8000CE014296AEDC0F2EF7E0FF2EF02DCE0106
:100C9000019613DCCE010196C9DBBE016E5E7F4F6B
:100CA000CE01019691DCBE016F5E7F4FCE01429670
:100CB00098DCFA94F110EBCFCE010196FEDBBE0179
:100CC0006E5E7F4FCE0101967FDCEBA1FCA19E0101
:100CD0002F5E3F4FD8018D918D018193A217B307ED
:100CE000C9F7A4960FB6F894DEBF0FBECDBFDF9153
:100CF000CF911F910F91FF90EF90DF90CF90BF9019
:100D0000AF909F908F907F906F905F904F903F90AB
:100D10002F9008952F923F924F925F926F927F9201
:100D20008F929F92AF92BF92CF92DF92EF92FF92FB
:100D30000F931F93CF93DF93CDB7DEB7C25CD1097A
:100D40000FB6F894DEBF0FBECDBF6C01CF53DF4F9F
:100D50006883C15CD040CE53DF4F7883C25CD04003
:100D60002A011801122F1F7080E59E012F5F3F4F4F
:100D70005901D901E82F1D92EA95E9F7FE01EF5AD2
:100D8000FF4FDF011D928A95E9F78E2D9F2DE5DC3F
:100D9000F60145019E012F5B3F4FA5010BC06191FC
:100DA0006D93E817F907D9F7405F5F4FFC014217D1
:100DB000530721F0CF014096DA01F1CF11110EC097
:100DC000F601E05CFF4FAE014F5A5F4F8191D901B0
:100DD0008D939D01A417B507C9F71EC0F601E05C0D
:100DE000FF4F8FEF810F90E08F5B9F4FC80ED91E92
:100DF0008191D9018D939D01EC15FD05C9F7812FD6
:100E000090E1911BE1E4F0E0EC0FFD1FE80FF11D14
:100E100090838F5F8031B1F75E01B1E5AB0EB11CFD
:100E2000350110E00F2EF1EBCF2ED12CF02DCC0E92
:100E3000DD1EE0E1CE0ED11C4DC0112309F444C0EB
:100E40008E2D9F2D43DD40C08D9181932E173F073E
:100E5000D9F79101AE014F545F4FB201CE018F55CA
:100E60009F4F74DEFE01EF54FF4F9301A401919157
:100E7000DA018D91AD018927D9018D939D01CE169F
:100E8000DF06A9F71F5F1530C1F6CF53DF4FE881AA
:100E9000C15CD040CE53DF4FF881C25CD040AE0180
:100EA0004F555F4F0CC08D9181932E173F07D9F797
:100EB000B0E1AB0EB11CF9014A155B05A1F09F0131
:100EC000205F3F4FD501EFCFE0E18E0E911CF0E1A6
:100ED0006F0E711CAE2DBF2DFE01EF55FF4F9F0110
:100EE000205F3F4FB1CFCE53DF4F0FB6F894DEBF38
:100EF0000FBECDBFDF91CF911F910F91FF90EF906B
:100F0000DF90CF90BF90AF909F908F907F906F9029
:100F10005F904F903F902F900895AF92BF92CF92E5
:100F2000DF92EF92FF920F931F93CF93DF93CDB792
:100F3000DEB7C05CD1090FB6F894DEBF0FBECDBFDF
:100F400080E59E012F5F3F4F6901F901282F119223
:100F50002A95E9F75E0131E5A30EB11CF501119266
:100F60008A95E9F780E1E0E0F1E0DE01AF55BF4F9F
:100F700001900D928A95E1F77E01F1EBEF0EF11CE5
:100F800080E1F70111928A95E9F7A701BE016F553B
:100F90007F4F80E090E0EBDC8E010F551F4F20E883
:100FA00040E050E0B501C601B5DE80E090E0C054FD
:100FB000DF4F0FB6F894DEBF0FBECDBFDF91CF91EC
:100FC0001F910F91FF90EF90DF90CF90BF90AF9067
:100FD0000895E199FECF9FBB8EBBE09A99278DB310
:100FE0000895262FE199FECF9FBB8EBBE09A019713
:100FF0000DB2021631F02DBB0FB6F894E29AE19AC9
:081000000FBE0895F894FFCF24
:10100800000102030405060708090A0B0C0D0E0F60
:00000001FF
