S01C0000546573745F417373656D626C7920696E204156522E73726563C9
S11300007FC1000092C1000090C100008EC10000B9
S11300108CC100008AC1000088C1000086C10000B4
S113002084C1000082C1000080C100007EC10000C4
S11300307CC100007AC1000078C1000076C10000D4
S113004074C1000072C1000070C100006EC10000E4
S11300506CC100006AC1000068C1000066C10000F4
S113006064C1000062C1000060C100005EC1000004
S11300705CC100005AC1000058C1000056C1000014
S113008054C1000052C1000050C100000000000033
S1130090000000000000000000000000000000005C
S11300A0000000000000000000000000000000004C
S11300B0000000000000000000000000000000003C
S11300C0000000000000000000000000000000002C
S11300D0000000000000000000000000000000001C
S11300E0000000000000000000000000000000000C
S11300F000000000000000000000000000000000FC
S1130100637C777BF26B6FC53001672BFED7AB76D0
S1130110CA82C97DFA5947F0ADD4A2AF9CA472C07B
S1130120B7FD9326363FF7CC34A5E5F171D83115E8
S113013004C723C31896059A071280E2EB27B27509
S113014009832C1A1B6E5AA0523BD6B329E32F8481
S113015053D100ED20FCB15B6ACBBE394A4C58CF79
S1130160D0EFAAFB434D338545F9027F503C9FA84D
S113017051A3408F929D38F5BCB6DA2110FFF3D21B
S1130180CD0C13EC5F974417C4A77E3D645D1973CF
S113019060814FDC222A908846EEB814DE5E0BDBC9
S11301A0E0323A0A4906245CC2D3AC629195E47900
S11301B0E7C8376D8DD54EA96C56F4EA657AAE085A
S11301C0BA78252E1CA6B4C6E8DD741F4BBD8B8AF5
S11301D0703EB5664803F60E613557B986C11D9E5B
S11301E0E1F8981169D98E949B1E87E9CE5528DFD2
S11301F08CA1890DBFE6426841992D0FB054BB16FE
S113020001020408102040801B366CD8AB000000AB
S113021000000000000000000000000000000000DA
S113022000000000000000000000000000000000CA
S113023000000000000000000000000000000000BA
S113024000000000000000000000000000000000AA
S1130250000000000000000000000000000000009A
S1130260000000000000000000000000000000008A
S1130270000000000000000000000000000000007A
S1130280000000000000000000000000000000006A
S1130290000000000000000000000000000000005A
S11302A0000000000000000000000000000000004A
S11302B0000000000000000000000000000000003A
S11302C0000000000000000000000000000000002A
S11302D0000000000000000000000000000000001A
S11302E0000000000000000000000000000000000A
S11302F000000000000000000000000000000000FA
S113030011241FBECFEFD0E1DEBFCDBF11E0A0E0CE
S1130310B1E0EEE9F7E000E00BBF02C007900D92F8
S1130320A032B107D9F7FCD138C26ACEDC019C01F6
S1130330205F3F4F9C91FB01E90FF11DE491ED9388
S1130340A217B307B9F70895FC01858591819587B4
S11303509581918391859583818792858685228174
S11303602287268126879283868387819381978338
S1130370978593839385978783870895FF920F9337
S11303801F93CF93DF9300D000D0CDB7DEB7AC017D
S11303908C01005F1F4F0F2EFBE1FF2EF02DBE01DD
S11303A06B5F7F4FDA01FC9111963C911197EF2F0F
S11303B0E32712962C911297322713969C918E2F35
S11303C0881F8827881F8F9D802D1124AE2FAA0F88
S11303D08A27A32FA9278A278983832F881F882701
S11303E0881F8F9D802D1124330F38278F2F82274C
S11303F0892738273A83822F8927382F331F3327B9
S1130400331F3F9D302D1124880F83273E2F39271A
S113041083278B839F27892F881F8827881F8F9D79
S1130420802D1124990F98272E2792279C83FE0153
S11304303196DA0181918D93E617F707D9F74C5F6E
S11304405F4F4017510709F0ADCF0F900F900F90F9
S11304500F90DF91CF911F910F91FF900895DB01D1
S1130460FC01AC01405F5F4F9D91208192279193E5
S1130470E417F507C9F70895EF92FF920F931F93BE
S1130480CF93DF93CDB7DEB764970FB6F894DEBF92
S11304900FBECDBFDC0119828E010E5F1F4F80E1BC
S11304A0F80111928A95E9F71C96EC901C97E98261
S11304B01D96FC901D97FA8A1E960C911E970B8B25
S11304C01F961C911F971C8B8A89FA01E80FF11D56
S11304D0E491EE878B89FA01E80FF11DE491EF872F
S11304E08C89FA01E80FF11DE491E88B8981FA0106
S11304F0E80FF11D4491498BF90180818A8B9A8917
S1130500FB01E90FF11D649169834E85998194275C
S11305104C9194279A834F8511969C911197942717
S11305209B83488912969C91129794279C834989AE
S113053013969C91139794279D834A8114969C91BA
S1130540149794279E834B8115969C911597942715
S11305509F834C8116969C911697942798874D817A
S113056017969C911797942799874E8118969C917A
S1130570189794279A874F8119969C9119979427D5
S11305809B8778851A969C911A9779277C879985F9
S11305901B967C911B9779277D876A856E256E87CC
S11305A05B855F255F874C854027488B9D85912718
S11305B0998B8F5FF901808319828981803198F446
S11305C099818981E2E0F0E0EC0FFD1FE80FF11D55
S11305D08081FD01E90FF11D808399819F5F9983DB
S11305E08981803168F364960FB6F894DEBF0FBE3C
S11305F0CDBFDF91CF911F910F91FF90EF900895A0
S11306007F928F929F92AF92BF92CF92DF92EF929E
S1130610FF920F931F93CF93DF93CDB7DEB7A197CC
S11306200FB6F894DEBF0FBECDBF862E972E5901AC
S1130630198ADE01529620E1FD0111922A95E9F70B
S11306409E012F5F3F4F7901242F352FBD016E018D
S113065041E1C40ED11CF701DC014D91CD01419360
S1130660D9014D919D01DB014D93BD01EC15FD05B3
S113067099F7BE016E5E7F4FCE010196F0DE9E01BA
S11306802F5E3F4FA501B801CE014296F5DE0F2E35
S1130690F9E07F2EF02DB501CE01019647DECE01A3
S11306A0019652DECE01019669DEBE016E5E7F4F79
S11306B0CE010196D4DE9E012F5E3F4FA501B80105
S11306C0CE014296D9DE7A947110E5CFB501CE0100
S11306D001962CDECE01019637DEBE016E5E7F4FA1
S11306E0CE010196BCDEE82DF92DD7018D917D0157
S11306F08193AC15BD05C9F7A1960FB6F894DEBF7A
S11307000FBECDBFDF91CF911F910F91FF90EF905E
S1130710DF90CF90BF90AF909F908F907F9008957F
S11307200F931F93CF93DF93CDB7DEB7E0970FB648
S1130730F894DEBF0FBECDBF80E1E0E0F1E0DE0162
S1130740119601900D928A95E1F780E1E0E1F1E0E4
S1130750DE01519601900D928A95E1F7BE016F5D1D
S11307607F4F80E1FB0111928A95E9F700E012E0E6
S113077020E031E0AE014F5E5F4FCE01019640DFD5
S113078080E090E0E0960FB6F894DEBF0FBECDBFD8
S1110790DF91CF911F910F910895F894FFCF40
S113079E3243F6A8885A308D313198A2E0370734A7
S11307AE2B7E151628AED2A6ABF7158809CF4F3C73
S9030000FC
