S01C0000546573745F417373656D626C7920696E204156522E73726563C9
S1130000FFC1000012C2000010C200000EC20000B6
S11300100CC200000AC2000008C2000006C20000B0
S113002004C2000002C2000000C20000FEC10000C1
S1130030FCC10000FAC10000F8C10000F6C10000D4
S1130040F4C10000F2C10000F0C10000EEC10000E4
S1130050ECC10000EAC10000E8C10000E6C10000F4
S1130060E4C10000E2C10000E0C10000DEC1000004
S1130070DCC10000DAC10000D8C10000D6C1000014
S1130080D4C10000D2C10000D0C1000000000000B3
S1130090000000000000000000000000000000005C
S11300A0000000000000000000000000000000004C
S11300B0000000000000000000000000000000003C
S11300C0000000000000000000000000000000002C
S11300D0000000000000000000000000000000001C
S11300E0000000000000000000000000000000000C
S11300F000000000000000000000000000000000FC
S113010001020408102040801B366CD8AB000000AC
S113011000000000000000000000000000000000DB
S113012000000000000000000000000000000000CB
S113013000000000000000000000000000000000BB
S113014000000000000000000000000000000000AB
S1130150000000000000000000000000000000009B
S1130160000000000000000000000000000000008B
S1130170000000000000000000000000000000007B
S1130180000000000000000000000000000000006B
S1130190000000000000000000000000000000005B
S11301A0000000000000000000000000000000004B
S11301B0000000000000000000000000000000003B
S11301C0000000000000000000000000000000002B
S11301D0000000000000000000000000000000001B
S11301E0000000000000000000000000000000000B
S11301F000000000000000000000000000000000FB
S1130200637C777BF26B6FC53001672BFED7AB76CF
S1130210CA82C97DFA5947F0ADD4A2AF9CA472C07A
S1130220B7FD9326363FF7CC34A5E5F171D83115E7
S113023004C723C31896059A071280E2EB27B27508
S113024009832C1A1B6E5AA0523BD6B329E32F8480
S113025053D100ED20FCB15B6ACBBE394A4C58CF78
S1130260D0EFAAFB434D338545F9027F503C9FA84C
S113027051A3408F929D38F5BCB6DA2110FFF3D21A
S1130280CD0C13EC5F974417C4A77E3D645D1973CE
S113029060814FDC222A908846EEB814DE5E0BDBC8
S11302A0E0323A0A4906245CC2D3AC629195E479FF
S11302B0E7C8376D8DD54EA96C56F4EA657AAE0859
S11302C0BA78252E1CA6B4C6E8DD741F4BBD8B8AF4
S11302D0703EB5664803F60E613557B986C11D9E5A
S11302E0E1F8981169D98E949B1E87E9CE5528DFD1
S11302F08CA1890DBFE6426841992D0FB054BB16FD
S113030000020406080A0C0E10121416181A1C1EF9
S113031020222426282A2C2E30323436383A3C3EE9
S113032040424446484A4C4E50525456585A5C5ED9
S113033060626466686A6C6E70727476787A7C7EC9
S113034080828486888A8C8E90929496989A9C9EB9
S1130350A0A2A4A6A8AAACAEB0B2B4B6B8BABCBEA9
S1130360C0C2C4C6C8CACCCED0D2D4D6D8DADCDE99
S1130370E0E2E4E6E8EAECEEF0F2F4F6F8FAFCFE89
S11303801B191F1D131117150B090F0D0301070569
S11303903B393F3D333137352B292F2D2321272559
S11303A05B595F5D535157554B494F4D4341474549
S11303B07B797F7D737177756B696F6D6361676539
S11303C09B999F9D939197958B898F8D8381878529
S11303D0BBB9BFBDB3B1B7B5ABA9AFADA3A1A7A519
S11303E0DBD9DFDDD3D1D7D5CBC9CFCDC3C1C7C509
S11303F0FBF9FFFDF3F1F7F5EBE9EFEDE3E1E7E5F9
S113040011241FBECFEFD0E1DEBFCDBF11E0A0E0CD
S1130410B1E0EAECF1E100E00BBF02C007900D92FD
S1130420A032B107D9F777D6CEC6EACD0F923F9264
S11304304F925F926F927F928F920F931F93CF93FD
S1130440DF93EF93FF93FC01EC0104E01BE129909F
S1130450499059906990322C3424732C770C832C56
S1130460880C8824881C819E0724042405240624DF
S11304700192342C3524732C770C832C880C88241B
S1130480881C819E07240224052406240192352C0D
S11304903624732C770C832C880C8824881C819E2A
S11304A007240224042406240192362C3224732CBB
S11304B0770C832C880C8824881C819E07240224B2
S11304C00424052401920A9511F6FF91EF91DF911E
S11304D0CF911F910F918F907F906F905F904F906D
S11304E03F900F9008950F923F924F925F926F92B8
S11304F07F928F920F931F93CF93DF93EF93FF938A
S1130500DC01EC0104E01BE1E0E0F3E02990499018
S113051059906990022C0424E02D049004240524AD
S113052006240D92042C0524E02D049002240524B5
S113053006240D92052C0624E02D049002240424A4
S113054006240D92062C0224E02D04900224042497
S113055005240D920A95D1F6FF91EF91DF91CF9189
S11305601F910F918F907F906F905F904F903F906D
S11305700F900895CF93DF93CDB7DEB727970FB6CB
S1130580F894DEBF0FBECDBF9F838E831A8219827B
S113059023C08981882F90E02E813F81820F931F91
S11305A0FC0180818A838981882F90E02E813F819C
S11305B0820F931F2A81222F30E020503E4F3C832C
S11305C02B832B813C81F90124912D832D81FC0106
S11305D0208389818F5F898389818031D0F20000F3
S11305E027960FB6F894DEBF0FBECDBFDF91CF9133
S11305F00895CF93DF9300D000D0CDB7DEB79C83AE
S11306008B838B819C81FC01858589838B819C8173
S11306100D962B813C81F9012181FC0120838B8182
S11306209C8101962B813C81F9012581FC01208369
S11306308B819C8105962B813C81F9012185FC01EC
S113064020838B819C8109962981FC0120838B81E5
S11306509C81FC01828589838B819C81FC01868538
S11306608A838B819C810A962B813C81F9012281AA
S1130670FC0120838B819C810E962B813C81F901A6
S11306802681FC0120838B819C8102962981FC01B7
S113069020838B819C8106962A81FC0120838B8197
S11306A09C81FC01878189838B819C8107962B81A6
S11306B03C81F9012381FC0120838B819C81039679
S11306C02B813C81F9012785FC0120838B819C814E
S11306D00F962B813C81F9012385FC0120838B81BA
S11306E09C810B962981FC01208300000F900F90C0
S11306F00F900F90DF91CF910895CF93DF93CDB7F3
S1130700DEB72E970FB6F894DEBF0FBECDBF9E871F
S11307108D871A82198298C189819A81880F991FBD
S1130720880F991F9C018D859E85820F931FFC0164
S1130730408189819A81880F991F880F991F01969A
S11307402D853E85820F931FFC01808184278D8334
S11307508D81882F90E0880F991F282F8D81982FE5
S1130760991F9927991F8BE1989F802D1124822727
S11307708D8389819A81880F991F880F991F01960B
S11307802D853E85820F931FFC01408189819A81CA
S1130790880F991F880F991F02962D853E85820F19
S11307A0931FFC018081482789819A81880F991FB2
S11307B0880F991F03962D853E85820F931FFC0198
S11307C0808184278E839D818E8189278987898171
S11307D09A81880F991F880F991F01962D853E8550
S11307E0820F931FFC01408189819A81880F991F90
S11307F0880F991F02962D853E85820F931FFC0159
S1130800808184278D838D81882F90E0880F991FA4
S1130810282F8D81982F991F9927991F8BE1989FD5
S1130820802D112482278D8389819A81880F991FB5
S1130830880F991F9C018D859E85820F931FFC0153
S1130840408189819A81880F991F880F991F029688
S11308502D853E85820F931FFC0180814827898165
S11308609A81880F991F880F991F03962D853E85BD
S1130870820F931FFC01808184278E839D818E814A
S113088089278A8789819A81880F991F880F991FE0
S113089002962D853E85820F931FFC01408189813C
S11308A09A81880F991F880F991F03962D853E857D
S11308B0820F931FFC01808184278D838D81882F73
S11308C090E0880F991F282F8D81982F991F9927C1
S11308D0991F8BE1989F802D112482278D83898114
S11308E09A81880F991F880F991F9C018D859E8579
S11308F0820F931FFC01408189819A81880F991F7F
S1130900880F991F01962D853E85820F931FFC0148
S11309108081482789819A81880F991F880F991FA0
S113092003962D853E85820F931FFC0180818427C9
S11309308E839D818E8189278B8789819A81880FF7
S1130940991F880F991F9C018D859E85820F931F87
S1130950FC01408189819A81880F991F880F991F12
S113096003962D853E85820F931FFC018081842789
S11309708D838D81882F90E0880F991F282F8D817A
S1130980982F991F9927991F8BE1989F802D1124E7
S113099082278D8389819A81880F991F880F991FD7
S11309A09C018D859E85820F931FFC014081898166
S11309B09A81880F991F880F991F01962D853E856E
S11309C0820F931FFC018081482789819A81880FB7
S11309D0991F880F991F02962D853E85820F931FBC
S11309E0FC01808184278E839D818E8189278C8759
S11309F01C821B8220C089819A819C01220F331F93
S1130A00220F331F8B819C81820F931F9C018D8544
S1130A109E85820F931FAE01475F5F4F2B813C8100
S1130A20240F351FF9012081FC0120838B819C81D7
S1130A3001969C838B838B819C810497E4F289814A
S1130A409A8101969A83898389819A8104970CF407
S1130A5063CE00002E960FB6F894DEBF0FBECDBF56
S1130A60DF91CF910895CF93DF9300D000D000D0D1
S1130A70CDB7DEB79C838B837E836D831A82198204
S1130A801EC089819A812B813C81820F931F298109
S1130A903A814B815C81240F351FF90160812981E2
S1130AA03A814D815E81240F351FF901208126276B
S1130AB0FC01208389819A8101969A8389838981A3
S1130AC09A814097F4F2000026960FB6F894DEBFA0
S1130AD00FBECDBFDF91CF910895CF93DF93CDB7F4
S1130AE0DEB7A7970FB6F894DEBF0FBECDBF9DA3A8
S1130AF08CA37FA36EA3188A20E1CE014196FC014A
S1130B00322F11923A95E9F78CA19DA1FC018485BD
S1130B10888B8CA19DA1FC01858589A38CA19DA1B5
S1130B20FC0186858AA38CA19DA1FC0187858BA3EA
S1130B3089A1882F90E080509E4F9A838983898170
S1130B409A81FC0184918B838B818D8F8AA1882F5C
S1130B5090E080509E4F9D838C838C819D81FC010D
S1130B6084918E838E818E8F8BA1882F90E080500C
S1130B709E4F98878F838F819885FC018491898704
S1130B8089858F8F8889882F90E080509E4F9B871E
S1130B908A878A859B85FC0184918C878C8588A3B0
S1130BA08EA19FA1FC01808189A389A1882F90E057
S1130BB080509F4F9E878D878D859E85FC018491F3
S1130BC08F878F85888B9D8D8889292F28278CA1D5
S1130BD09DA1FC0180818227898B2E8D8CA19DA1F2
S1130BE00196FC01808182278A8B2F8D8CA19DA187
S1130BF00296FC01808182278B8B28A18CA19DA168
S1130C000396FC01808182278C8B29898CA19DA16C
S1130C100496FC01808182278D8B2A898CA19DA159
S1130C200596FC01808182278E8B2B898CA19DA146
S1130C300696FC01808182278F8B2C898CA19DA133
S1130C400796FC0180818227888F2D898CA19DA124
S1130C500896FC0180818227898F2E898CA19DA111
S1130C600996FC01808182278A8F2F898CA19DA1FE
S1130C700A96FC01808182278B8F288D8CA19DA1EF
S1130C800B96FC01808182278C8F298D8CA19DA1DC
S1130C900C96FC01808182278D8F2A8D8CA19DA1C9
S1130CA00D96FC01808182278E8F2B8D8CA19DA1B6
S1130CB00E96FC01808182278F8F2C8D8CA19DA1A3
S1130CC00F96FC018081822788A38EA19FA1FC013D
S1130CD0808121E0280F8EA19FA1FC012083188A26
S1130CE016C08889882F90E02CA13DA1820F931F04
S1130CF02889222F30E0AE014F5E5F4F240F351F4D
S1130D00F9012081FC01208388898F5F888B888981
S1130D10803138F30000A7960FB6F894DEBF0FBEFB
S1130D20CDBFDF91CF910895CF93DF93CDB7DEB7D9
S1130D30A8970FB6F894DEBF0FBECDBF9CA38BA3BC
S1130D407EA36DA358A74FA31A8A20E1CE01439630
S1130D50FC01322F11923A95E9F7198229C0898151
S1130D60882F90E02981222F30E04BA15CA1240F31
S1130D70351FF90140819E012E5F3F4F820F931F63
S1130D80FC0140838981882F90E02981222F30E063
S1130D904FA158A5240F351FF90140819E012D5EF6
S1130DA03F4F820F931FFC01408389818F5F8983AA
S1130DB089818031A0F29E012D5E3F4FCE010296C3
S1130DC0B90151DE9E012E5E3F4FCE014396B9011B
S1130DD084DE81E089831AC0CE010296CBDBCE018A
S1130DE0029607DCCE01029688DC9E012D5E3F4F01
S1130DF0CE010296B90137DE9E012E5E3F4FCE0131
S1130E004396B9016ADE89818F5F898389818A303B
S1130E1018F3CE010296AEDBCE010296EADB9E0108
S1130E202D5E3F4FCE010296B9011DDE198216C018
S1130E308981882F90E02DA13EA1820F931F2981E3
S1130E40222F30E0AE014E5F5F4F240F351FF901B2
S1130E502081FC01208389818F5F8983898180318E
S1130E6038F30000A8960FB6F894DEBF0FBECDBFCE
S1130E70DF91CF910895CF93DF93CDB7DEB7A897D5
S1130E800FB6F894DEBF0FBECDBF9CA38BA37EA389
S1130E906DA358A74FA319821A8A20E1CE01439665
S1130EA0FC01322F11923A95E9F7198229C0898100
S1130EB0882F90E02981222F30E04BA15CA1240FE0
S1130EC0351FF90140819E012E5F3F4F820F931F12
S1130ED0FC0140838981882F90E02981222F30E012
S1130EE04FA158A5240F351FF90140819E012D5EA5
S1130EF03F4F820F931FFC01408389818F5F898359
S1130F0089818031A0F29E012D5E3F4FCE01029671
S1130F10B901A9DD9E012E5E3F4FCE014396B90172
S1130F20DCDD81E089831AC0CE01029623DBCE0189
S1130F3002965FDBCE01029679DA9E012D5E3F4F69
S1130F40CE010296B9018FDD9E012E5E3F4FCE0188
S1130F504396B901C2DD89818F5F898389818A3093
S1130F6018F3CE01029606DBCE01029642DB9E0107
S1130F702D5E3F4FCE010296B90175DD198216C070
S1130F808981882F90E02DA13EA1820F931F298192
S1130F90222F30E0AE014E5F5F4F240F351FF90161
S1130FA02081FC01208389818F5F8983898180313D
S1130FB038F30000A8960FB6F894DEBF0FBECDBF7D
S1130FC0DF91CF910895CF93DF93CDB7DEB7A89784
S1130FD00FB6F894DEBF0FBECDBF9CA38BA37EA338
S1130FE06DA358A74FA319821A8A20E1CE01439614
S1130FF0FC01322F11923A95E9F7198229C08981AF
S1131000882F90E02981222F30E04BA15CA1240F8E
S1131010351FF90140819E012E5F3F4F820F931FC0
S1131020FC0140838981882F90E02981222F30E0C0
S11310304FA158A5240F351FF90140819E012D5E53
S11310403F4F820F931FFC01408389818F5F898307
S113105089818031A0F29E012D5E3F4FCE01029620
S1131060B90101DD9E012E5E3F4FCE014396B901C9
S113107034DD81E089831AC0CE0102967BDACE0189
S11310800296B7DACE0102962EDA9E012D5E3F4F0C
S1131090CE010296B901E7DC9E012E5E3F4FCE01E0
S11310A04396B9011ADD89818F5F898389818A30EA
S11310B018F3CE0102965EDACE0102969ADA9E0108
S11310C02D5E3F4FCE010296B901CDDC198216C0C8
S11310D08981882F90E02DA13EA1820F931F298141
S11310E0222F30E0AE014E5F5F4F240F351FF90110
S11310F02081FC01208389818F5F898389818031EC
S113110038F30000A8960FB6F894DEBF0FBECDBF2B
S1131110DF91CF910895CF93DF93CDB7DEB7C0545D
S1131120D1090FB6F894DEBF0FBECDBF20E1E0E0D9
S1131130F1E0CE010196DC0101900D922A95E1F7D0
S113114080E1E0E1F1E0DE01519601900D928A9593
S1131150E1F720E1CE018196FC01322F11923A95FC
S1131160E9F720E1CE01C196FC01322F11923A95A4
S1131170E9F79E012F5E3F4FCE018196A901BC0184
S1131180CE010196D1DD9E012F5E3F4FCE018196A7
S1131190A901BC01CE0101966EDE9E012F5E3F4F78
S11311A0CE018196A901BC01CE0101960CDF80E03D
S11311B090E0C05CDF4F0FB6F894DEBF0FBECDBF2A
S10D11C0DF91CF910895F894FFCF5A
S11311CA3243F6A8885A308D313198A2E037073471
S11311DA2B7E151628AED2A6ABF7158809CF4F3C3D
S9030000FC
