S01500004354525F4452424720544553542E7372656348
S113000045C0000060C000005EC000005CC000008D
S11300105AC0000058C0000056C0000054C0000080
S113002052C0000050C000004EC000004CC0000090
S11300304AC0000048C0000046C0000044C00000A0
S113004042C0000040C000003EC000003CC00000B0
S11300503AC0000038C0000036C0000034C00000C0
S113006032C0000030C000002EC000002CC00000D0
S11300702AC0000028C0000026C0000024C00000E0
S113008022C0000020C000001EC0000011241FBEBA
S1130090CFEFD0E1DEBFCDBF11E0A0E0B1E0E2EEF2
S11300A0F3E000E00BBF02C007900D92A030B1074F
S11300B0D9F721E0A0E0B1E001C01D92A030B20761
S11300C0E1F74DD18CC19CCF0F931F93CF93DF9356
S11300D0CDB7DEB7A6970FB6F894DEBF0FBECDBF7F
S11300E01A8219821C821B821E821D82FE0137968F
S11300F020E2DF011D922A95E9F71A8219822981EB
S11301003A8122303105E4F5FC01A78DAF5F01C0CF
S1130110A42F1C821B822B813C81203131050CF5DC
S113012029813A814B815C81EB81FC812295329556
S1130130307F3227207F3227E1E0F0E0EC0FFD1F13
S11301402E0F3F1FF901E40FF51F16822B813C810E
S11301502F5F3F4F3C832B832B813C812031310522
S1130160FCF229813A812F5F3F4F3A832983298109
S11301703A8141E04A0F2230310554F2FC01A78F45
S11301801A82198229813A812031310514F5E981D5
S1130190FA81A981BA8129813A818F01080F191F37
S11301A0260F371F47E050E04C0F5D1FA40FB51F0B
S11301B0F90130812C912327D8012C9329813A818C
S11301C02F5F3F4F3A83298329813A8120313105BA
S11301D0F4F21A82198229813A81203131051CF501
S11301E0E981FA81A981BA8129813A818F01080FB5
S11301F0191F260F371FE7E1F0E0EC0FFD1FAE0FCC
S1130200BF1FF90130892C912327D80150962C93D4
S113021029813A812F5F3F4F3A83298329813A818B
S113022020313105ECF2A6960FB6F894DEBF0FBE6E
S1130230CDBFDF91CF911F910F910895CF93DF939D
S113024000D000D000D0CDB7DEB7FC011A821982ED
S11302501C821B821E821D821A82198289819A81C4
S1130260089774F5878D8F5F878F1C821B828B8123
S11302709C814097E4F429813A814B815C818B8194
S11302809C8122953295307F3227207F3227260F9A
S1130290371FD901A40FB51F1C922B813C812F5FFE
S11302A03F4F3C832B838B819C81409724F389812E
S11302B09A8101969A83898389819A81089794F215
S11302C026960FB6F894DEBF0FBECDBFDF91CF9157
S11302D00895CF93DF9300D000D0CDB7DEB71C8252
S11302E01B822B813C8120313105ACF4EB81FC81F4
S11302F0AB81BC81A60FB71F2C91E80FF91F208397
S11303002B813C812F5F3F4F3C832B832B813C818E
S1130310203131055CF31A82198229813A81203116
S11303203105B4F4E981FA81A981BA81A60FB71F16
S113033050962C91E80FF91F208B29813A812F5F69
S11303403F4F3A83298329813A812031310554F37F
S11303500F900F900F900F90DF91CF910895EF922F
S1130360FF920F931F93CF93DF93CDB7DEB7C25C99
S1130370D1090FB6F894DEBF0FBECDBF8E010F5F5B
S11303801F4F82E2F80111928A95E9F77E01F3E2A8
S1130390EF0EF11C80E2F70111928A95E9F7BE0194
S11303A06D5B7F4F80E8FB0111928A95E9F7C801E4
S11303B045DFB801C7018DDFB701C80185DE80E0E4
S11303C090E0CE53DF4F0FB6F894DEBF0FBECDBF23
S11303D0DF91CF911F910F91FF90EF900895F894C2
S10503E0FFCF49
S9030000FC
