:1000000045C000004BC0000049C0000047C00000D0
:1000100045C0000043C0000041C000003FC00000D8
:100020003DC000003BC0000039C0000037C00000E8
:1000300035C0000033C0000031C000002FC00000F8
:100040002DC000002BC0000029C0000027C0000008
:1000500025C0000023C0000021C000001FC0000018
:100060001DC000001BC0000019C0000017C0000028
:1000700015C0000013C0000011C000000FC0000038
:100080000DC000000BC0000009C0000011241FBEFD
:10009000CFEFD0E4DEBFCDBFB3D3F8C3B1CF1F9352
:1000A0002F930F92FC01EB01DA01002418E8E10F15
:1000B000F01D12E02191299301921A95D9F716E0CB
:1000C000199314E8C10FD01D20E828830F902F91B9
:1000D0001F910895000000000000000000000000D3
:1000E0000000000000000000000000000000000010
:1000F0000000000000000000000000000000000000
:1001000000000000000000000000000000000000EF
:1001100000000000000000000000060C1218030997
:100120000A101601070D131404050B111702080E0F
:100130000F1500090D1115121601050E060A1317E9
:10014000021803070B0F0C101404080016130B08F9
:10015000110E0603140901170F0C15120A07040DDE
:1001600005021810000E1707100B140912021606CC
:100170000F040D0811010A1813030C150500140FC4
:100180000A05070216110C0E09041813100B0601BC
:100190001517120D080300020401030A0C0E0B0DC3
:1001A000141618151705070906080F111310120069
:1001B0000C180612010D140713020E15080F030A7E
:1001C000160910040B170511000D1509110613026D
:1001D0000A170C1408100412010E160518070F0355
:1001E0000B001308160B09170C010F0D0210051850
:1001F0001106140E03150A0412070017100E071635
:100200000F0D0604130C0503150B09021412080147
:1002100018110A000F05140A0E04130918170D030C
:10022000120807160C02111006150B010004030238
:100230000114181716150F131211100A0E0D0C0BBE
:10024000050908070600000000000000000000008B
:10025000000000000000000000000000000000009E
:10026000000000000000000000000000000000008E
:10027000000000000000000000000000000000007E
:10028000000000000000000000000000000000006E
:10029000000000000000000000000000000000005E
:1002A000000000000000000000000000000000004E
:1002B000000000000000000000000000000000003E
:1002C000000000000000000000000000000000002E
:1002D000000000000000000000000000000000001E
:1002E000000000000000000000000000000000000E
:1002F00000000000000000000000000000000000FE
:100300000018120C0602150F0E080417110B050138
:1003100014130D070316100A090015110D090C0816
:10032000041410180F0B0703060217130A120E0508
:10033000011600080B13160D101802051504070A04
:1003400012090C0F1701111403060E001007170EE7
:100350001305150C0308180A0111160D040F060BDE
:100360000212091400050A0F141703080D121015C4
:1003700001060B0E13180409070C111602000301E5
:1003800004020F1210131105080609071417151897
:10039000160A0D0B0E0C001206180C041105170B93
:1003A000031009160A020F08150E011307140D0099
:1003B0001109150D180B030F071205160E010C0479
:1003C00010081406170A0213000B1608131507125B
:1003D000040A11030E14060D18051002090F010C72
:1003E0001700070E1017080A1118010B1214020942
:1003F000131503050C1604060D0F000A14050F1043
:10040000010B15060711020C16170812030D0E1822
:10041000091304000102030405060708090A0B0C6E
:100420000D0E0F1011121314151617180F921F929C
:100430002F923F924F925F926F927F928F929F92F4
:10044000AF92BF92CF92DF92EF92FF920F931F93E2
:100450002F933F934F935F936F937F938F939F93CC
:10046000AF93BF93CF93DF93EF93FF937F936F93FC
:10047000DC01EA0199E1F1E0E0E085E01D01A491F1
:100480000D911D912D913D914D915D916D917D91BC
:100490003596A4910D9000250D9010250D902025E6
:1004A0000D9030250D9040250D9050250D90602524
:1004B0000D9070253596A4910D9000250D90102576
:1004C0000D9020250D9030250D9040250D90502544
:1004D0000D9060250D9070253596A4910D90002506
:1004E0000D9010250D9020250D9030250D90402564
:1004F0000D9050250D9060250D9070253596A59195
:100500000D9000250D9010250D9020250D90302583
:100510000D9040250D9050250D9060250D90702573
:10052000099319932993399349935993699379932B
:100530008A9511F07497A3CF74966997D1011F0122
:10054000F1E0E0E0088119812A813B814C815D81E5
:100550006E817F8188889988AA88BB88CC88DD884D
:10056000EE88FF88880C991CAA1CBB1CCC1CDD1CC7
:10057000EE1CFF1C811C80269126A226B326C426D1
:10058000D526E626F72680E3C80F89929992A9928C
:10059000B992C992D992E992F992C81B2897888C8E
:1005A000998CAA8CBB8CCC8CDD8CEE8CFF8C000FD4
:1005B000111F221F331F441F551F661F771F011D68
:1005C000082519252A253B254C255D256E257F25E7
:1005D00088E4C80F09931993299339934993599340
:1005E00069937993C81B2897088519852A853B85C7
:1005F0004C855D856E857F85880C991CAA1CBB1C6B
:10060000CC1CDD1CEE1CFF1C811C80269126A22622
:10061000B326C426D526E626F72688E3C80F899296
:100620009992A992B992C992D992E992F992C81B6A
:10063000289788A099A0AAA0BBA0CCA0DDA0EEA07E
:10064000FFA0000F111F221F331F441F551F661FDD
:10065000771F011D082519252A253B254C255D25D9
:100660006E257F2588E2C80F099319932993399342
:100670004993599369937993C81B289708891989D5
:100680002A893B894C895D896E897F89880C991CF0
:10069000AA1CBB1CCC1CDD1CEE1CFF1C811C802674
:1006A0009126A226B326C426D526E626F72680E480
:1006B000C80F89929992A992B992C992D992E99256
:1006C000F992C81B28979A9509F0D5CE6F917F9122
:1006D000FF91EF91DF91CF91BF91AF919F918F915A
:1006E0007F916F915F914F913F912F911F910F914A
:1006F000FF90EF90DF90CF90BF90AF909F908F9042
:100700007F906F905F904F903F902F901F900F9031
:10071000089500000000000000000000000000003C
:1007200000000000000000000000000000000000C9
:1007300000000000000000000000000000000000B9
:1007400000000000000000000000000000000000A9
:100750000000000000000000000000000000000099
:100760000000000000000000000000000000000089
:100770000000000000000000000000000000000079
:100780000000000000000000000000000000000069
:100790000000000000000000000000000000000059
:1007A0000000000000000000000000000000000049
:1007B0000000000000000000000000000000000039
:1007C0000000000000000000000000000000000029
:1007D0000000000000000000000000000000000019
:1007E0000000000000000000000000000000000009
:1007F00000000000000000000000000000000000F9
:10080000CF92DF92EF92FF920F931F93CF93DF93DC
:10081000CDB7DEB7CC57D1400FB6F894DEBF0FBED0
:10082000CDBF8E010F5F1F4F88ECF80111928A95A2
:10083000E9F77E01F9ECEF0EF11C84E6F701119265
:100840008A95E9F76E01F3EDCF1AFEEFDF0A80E536
:10085000F60111928A95E9F7A601B701C8011FDCDC
:10086000A601B701C801E2DD80E090E0C458DE4F88
:100870000FB6F894DEBF0FBECDBFDF91CF911F91B1
:100880000F91FF90EF90DF90CF900895F894FFCFF5
:00000001FF
