S01400004145535F386269745F61736D2E73726563C1
S113000033C0000044C0000042C0000040C00000F3
S11300103EC000003CC000003AC0000038C00000F0
S113002036C0000034C0000032C0000030C0000000
S11300302EC000002CC000002AC0000028C0000010
S113004026C0000024C0000022C0000020C0000020
S11300501EC000001CC000001AC0000018C0000030
S113006016C0000014C0000011241FBECFEFD8E05A
S1130070DEBFCDBF12E0A0E0B1E0EAE0F7E002C0ED
S113008005900D92AE32B107D9F7D5D23CC3B8CFA3
S11300900F923F924F925F926F927F928F920F9343
S11300A01F93CF93DF93EF93FF93FC01EC0104E0E4
S11300B01BE12990499059906990322C3424732C77
S11300C0770C832C880C8824881C819E07240424A4
S11300D0052406240192342C3524732C770C832CAC
S11300E0880C8824881C819E072402240524062465
S11300F00192352C3624732C770C832C880C88249D
S1130100881C819E07240224042406240192362C90
S11301103224732C770C832C880C8824881C819EB1
S1130120072402240424052401920A9511F6FF9160
S1130130EF91DF91CF911F910F918F907F906F90EE
S11301405F904F903F900F900895FC019C01205FB9
S11301503F4F9081DB01A90FB11D9C919193E21750
S1130160F307B9F70895FC018585918195879581F9
S113017091839185958381879285868522812287C3
S113018026812687928386838781938197839785A7
S113019093839385978783870895FF920F931F9383
S11301A0CF93DF9300D000D0CDB7DEB7AC018C0184
S11301B0005F1F4F0F2EFBE1FF2EF02DBE016B5F82
S11301C07F4FDA01FC9111963C911197EF2FE327B1
S11301D012962C911297322713969C918E2F881F7A
S11301E08827881F8F9D802D1124AE2FAA0F8A2760
S11301F0A32FA9278A278983832F881F8827881FED
S11302008F9D802D1124330F38278F2F8227892724
S113021038273A83822F8927382F331F3327331FF8
S11302203F9D302D1124880F83273E2F39278327A4
S11302308B839F27892F881F8827881F8F9D802D58
S11302401124990F98272E2792279C83FE0131961B
S1130250DA0181918D93E617F707D9F74C5F5F4F69
S11302604017510709F0ADCF0F900F900F900F90EA
S1130270DF91CF911F910F91FF900895DB01FC0155
S1130280AC01405F5F4F9D91208192279193E417C9
S1130290F507C9F708956F927F929F92AF92BF922C
S11302A0CF92DF92EF92FF920F931F93CF93DF933E
S11302B0CDB7DEB760970FB6F894DEBF0FBECDBFE3
S11302C0DC017A018901CE0101963C0180E1F30150
S11302D011928A95E9F71C96AC901C971D96BC90D8
S11302E01D971E96CC901E97CA018C0D911DFC0182
S11302F040811F96DC901F97C7018D0D911DFC0155
S11303003081C7018A0D911DFC019080F801208184
S1130310620F711DFB0150818C915827EB0CF11C6D
S1130320F70190815927598311969C911197492778
S11303304A8312969C91129739273B8313968C918A
S1130340139789258C8314969C911497E52EE9269E
S1130350ED8215969C911597F42EF926FE82169639
S11303609C911697732F79277F8317969C911797E3
S1130370682F6927688718969C9118975E2D5927CE
S1130380598719969C9119974F2D49274A871A9690
S11303909C911A97372F39273B871B969C911B9763
S11303A0862F89278C875A255D874B254E873C25C8
S11303B03F878D25888B2F5FF8012083F3019E01F1
S11303C02F5E3F4F81918D93E217F307D9F7609623
S11303D00FB6F894DEBF0FBECDBFDF91CF911F9152
S11303E00F91FF90EF90DF90CF90BF90AF909F90D0
S11303F07F906F9008957F928F929F92AF92BF9259
S1130400CF92DF92EF92FF920F931F93CF93DF93DC
S1130410CDB7DEB7A1970FB6F894DEBF0FBECDBF40
S1130420862E972E5901198ADE01529620E1FD018C
S113043011922A95E9F79E012F5F3F4F7901242FEE
S1130440352FBD016E0141E1C40ED11CF701DC0161
S11304504D91CD014193D9014D919D01DB014D9306
S1130460BD01EC15FD0599F7BE016E5E7F4FCE010F
S1130470019604DF9E012F5E3F4FA501B801CE0116
S1130480429609DF0F2EF9E07F2EF02DB501CE0143
S113049001965BDECE01019666DECE0101967DDE1D
S11304A0BE016E5E7F4FCE010196E8DE9E012F5E97
S11304B03F4FA501B801CE014296EDDE7A9471104A
S11304C0E5CFB501CE01019640DECE0101964BDEAB
S11304D0BE016E5E7F4FCE010196D0DEE82DF92D70
S11304E0D7018D917D018193AC15BD05C9F7A19606
S11304F00FB6F894DEBF0FBECDBFDF91CF911F9131
S11305000F91FF90EF90DF90CF90BF90AF909F90AE
S11305108F907F9008957F928F929F92AF92BF9217
S1130520CF92DF92EF92FF920F931F93CF93DF93BB
S1130530CDB7DEB7A1970FB6F894DEBF0FBECDBF1F
S1130540862E972E5901198ADE01529620E1FD016B
S113055011922A95E9F79E012F5F3F4F7901242FCD
S1130560352FBD016E0141E1C40ED11CF701DC0140
S11305704D91CD014193D9014D919D01DB014D93E5
S1130580BD01EC15FD0599F7BE016E5E7F4FCE01EE
S1130590019674DE9E012F5E3F4FA501B801CE0186
S11305A0429679DE0F2EF9E07F2EF02DB501CE01B3
S11305B00196CBDDCE010196D6DDCE01019668DD34
S11305C0BE016E5E7F4FCE01019658DE9E012F5E06
S11305D03F4FA501B801CE0142965DDE7A947110B9
S11305E0E5CFB501CE010196B0DDCE010196BBDDAC
S11305F0BE016E5E7F4FCE01019640DEE82DF92DDF
S1130600D7018D917D018193AC15BD05C9F7A196E4
S11306100FB6F894DEBF0FBECDBFDF91CF911F910F
S11306200F91FF90EF90DF90CF90BF90AF909F908D
S11306308F907F900895EF92FF920F931F93CF9323
S1130640DF93CDB7DEB7CD53D1400FB6F894DEBFFC
S11306500FBECDBF8DE0E0E0F1E0DE011196019028
S11306600D928A95E1F780E0EDE0F1E0DE011E965F
S113067001900D928A95E1F780E1EDE0F2E0DE0170
S1130680A25FBE4F01900D928A95E1F780E1EDE102
S1130690F2E0DE01A25EBE4F01900D928A95E1F771
S11306A07E0182EDE81A8EEFF80A80E1F7011192DB
S11306B08A95E9F78E010F5F1F4F9E01225F3F4F1E
S11306C0AE01425E5E4FB701CE01825F9E4F93DE64
S11306D09E01225F3F4FAE01425E5E4FB701CE01E5
S11306E0825F9E4F18DF80E090E0C35CDE4F0FB660
S11306F0F894DEBF0FBECDBFDF91CF911F910F9154
S10D0700FF90EF900895F894FFCFE6
S113070A01020408102040801B366CD8AB637C7746
S113071A7BF26B6FC53001672BFED7AB76CA82C9F1
S113072A7DFA5947F0ADD4A2AF9CA472C0B7FD9329
S113073A26363FF7CC34A5E5F171D8311504C72321
S113074AC31896059A071280E2EB27B27509832C1F
S113075A1A1B6E5AA0523BD6B329E32F8453D100F5
S113076AED20FCB15B6ACBBE394A4C58CFD0EFAA14
S113077AFB434D338545F9027F503C9FA851A34062
S113078A8F929D38F5BCB6DA2110FFF3D2CD0C1343
S113079AEC5F974417C4A77E3D645D197360814F6B
S11307AADC222A908846EEB814DE5E0BDBE0323A8D
S11307BA0A4906245CC2D3AC629195E479E7C83746
S11307CA6D8DD54EA96C56F4EA657AAE08BA7825C9
S11307DA2E1CA6B4C6E8DD741F4BBD8B8A703EB5C9
S11307EA664803F60E613557B986C11D9EE1F8982D
S11307FA1169D98E949B1E87E9CE5528DF8CA1896D
S113080A0DBFE6426841992D0FB054BB163243F628
S113081AA8885A308D313198A2E03707342B7E15D7
S111082A1628AED2A6ABF7158809CF4F3C00B6
S9030000FC
