:100000000C9434000C9449000C9449000C94490061
:100010000C9449000C9449000C9449000C9449003C
:100020000C9449000C9449000C9449000C9449002C
:100030000C9449000C9449000C9449000C9449001C
:100040000C9449000C9449000C9449000C9449000C
:100050000C9449000C9449000C9449000C944900FC
:100060000C9449000C94490011241FBECFEFD8E036
:10007000DEBFCDBF11E0A0E0B1E0E8EAF1E002C0F0
:1000800005900D92A031B107D9F70E94B0000C94F1
:10009000D2000C9400000F921F922F923F924F9229
:1000A0005F926F927F928F929F92AF92BF92CF9208
:1000B000DF92EF92CF93DF93FC01EC0104E01BE1B0
:1000C0002990499059906990322C3424732C770CE4
:1000D000832C880C8824881C819E072404240524F2
:1000E00006240192342C3524732C770C832C880C35
:1000F0008824881C819E072402240524062401925A
:10010000352C3624732C770C832C880C8824881C7F
:10011000819E07240224042406240192362C3224D2
:10012000732C770C832C880C8824881C819E0724D0
:1001300002240424052401920A9511F6DF91CF913F
:10014000EF90DF90CF90BF90AF909F908F907F9077
:100150006F905F904F903F902F901F900F90089559
:10016000CF93DF93CDB7DEB760970FB6F894DEBFBD
:100170000FBECDBF80E1E0E0F1E0DE01119601901D
:100180000D928A95E1F7CE0101960E944B0080E026
:1001900090E060960FB6F894DEBF0FBECDBFDF9142
:0801A000CF910895F894FFCF00
:1001A800CB671F6F63E9DAF07C98FFF53AFBB1B6CD
:00000001FF
