:1000000045C000005AC0000058C0000056C00000A3
:1000100054C0000052C0000050C000004EC000009C
:100020004CC000004AC0000048C0000046C00000AC
:1000300044C0000042C0000040C000003EC00000BC
:100040003CC000003AC0000038C0000036C00000CC
:1000500034C0000032C0000030C000002EC00000DC
:100060002CC000002AC0000028C0000026C00000EC
:1000700024C0000022C0000020C000001EC00000FC
:100080001CC000001AC0000018C0000011241FBED0
:10009000CFEFD0E4DEBFCDBF12E0A0E0B1E0EAEFE9
:1000A000F7E100E00BBF02C007900D92AE31B1073F
:1000B000D9F70E94660B0C94FB0BA2CF0F923F92D4
:1000C0004F925F926F927F928F920F931F93CF9375
:1000D000DF93EF93FF93FC01EC0104E01BE1299017
:1000E000499059906990322C3424732C770C832CCE
:1000F000880C8824881C819E072404240524062457
:100100000192342C3524732C770C832C880C882492
:10011000881C819E07240224052406240192352C84
:100120003624732C770C832C880C8824881C819EA1
:1001300007240224042406240192362C3224732C32
:10014000770C832C880C8824881C819E0724022429
:100150000424052401920A9511F6FF91EF91DF9195
:10016000CF911F910F918F907F906F905F904F90E4
:100170003F900F900895CF93DF9300D000D01F924F
:10018000CDB7DEB79B838A837D836C8319821DC0C4
:100190008981882F90E02A813B81820F931F2981DA
:1001A000222F30E04A815B81240F351FF901208125
:1001B000222F30E04C815D81240F351FF901208111
:1001C000FC01208389818F5F89838981803100F3DD
:1001D00000000F900F900F900F900F90DF91CF9134
:1001E0000895CF93DF9300D000D0CDB7DEB79C83C6
:1001F0008B838B819C81FC01858589838B819C818C
:100200000D962B813C81F9012181FC0120838B819A
:100210009C8101962B813C81F9012581FC01208381
:100220008B819C8105962B813C81F9012185FC0104
:1002300020838B819C8109962981FC0120838B81FD
:100240009C81FC01828589838B819C81FC01868550
:100250008A838B819C810A962B813C81F9012281C2
:10026000FC0120838B819C810E962B813C81F901BE
:100270002681FC0120838B819C8102962981FC01CF
:1002800020838B819C8106962A81FC0120838B81AF
:100290009C81FC01878189838B819C8107962B81BE
:1002A0003C81F9012381FC0120838B819C81039691
:1002B0002B813C81F9012785FC0120838B819C8166
:1002C0000F962B813C81F9012385FC0120838B81D2
:1002D0009C810B962981FC01208300000F900F90D8
:1002E0000F900F90DF91CF910895CF93DF93CDB70B
:1002F000DEB72E970FB6F894DEBF0FBECDBF9E8738
:100300008D871A82198298C189819A81880F991FD5
:10031000880F991F9C018D859E85820F931FFC017C
:10032000408189819A81880F991F880F991F0196B2
:100330002D853E85820F931FFC01808184278D834C
:100340008D81882F90E0880F991F282F8D81982FFD
:10035000991F9927991F8BE1989F802D112482273F
:100360008D8389819A81880F991F880F991F019623
:100370002D853E85820F931FFC01408189819A81E2
:10038000880F991F880F991F02962D853E85820F31
:10039000931FFC018081482789819A81880F991FCA
:1003A000880F991F03962D853E85820F931FFC01B0
:1003B000808184278E839D818E8189278987898189
:1003C0009A81880F991F880F991F01962D853E8568
:1003D000820F931FFC01408189819A81880F991FA8
:1003E000880F991F02962D853E85820F931FFC0171
:1003F000808184278D838D81882F90E0880F991FBD
:10040000282F8D81982F991F9927991F8BE1989FED
:10041000802D112482278D8389819A81880F991FCD
:10042000880F991F9C018D859E85820F931FFC016B
:10043000408189819A81880F991F880F991F0296A0
:100440002D853E85820F931FFC018081482789817D
:100450009A81880F991F880F991F03962D853E85D5
:10046000820F931FFC01808184278E839D818E8162
:1004700089278A8789819A81880F991F880F991FF8
:1004800002962D853E85820F931FFC014081898154
:100490009A81880F991F880F991F03962D853E8595
:1004A000820F931FFC01808184278D838D81882F8B
:1004B00090E0880F991F282F8D81982F991F9927D9
:1004C000991F8BE1989F802D112482278D8389812C
:1004D0009A81880F991F880F991F9C018D859E8591
:1004E000820F931FFC01408189819A81880F991F97
:1004F000880F991F01962D853E85820F931FFC0161
:100500008081482789819A81880F991F880F991FB8
:1005100003962D853E85820F931FFC0180818427E1
:100520008E839D818E8189278B8789819A81880F0F
:10053000991F880F991F9C018D859E85820F931F9F
:10054000FC01408189819A81880F991F880F991F2A
:1005500003962D853E85820F931FFC0180818427A1
:100560008D838D81882F90E0880F991F282F8D8192
:10057000982F991F9927991F8BE1989F802D1124FF
:1005800082278D8389819A81880F991F880F991FEF
:100590009C018D859E85820F931FFC01408189817E
:1005A0009A81880F991F880F991F01962D853E8586
:1005B000820F931FFC018081482789819A81880FCF
:1005C000991F880F991F02962D853E85820F931FD4
:1005D000FC01808184278E839D818E8189278C8771
:1005E0001C821B8220C089819A819C01220F331FAB
:1005F000220F331F8B819C81820F931F9C018D855D
:100600009E85820F931FAE01475F5F4F2B813C8118
:10061000240F351FF9012081FC0120838B819C81EF
:1006200001969C838B838B819C810497E4F2898162
:100630009A8101969A83898389819A8104970CF41F
:1006400063CE00002E960FB6F894DEBF0FBECDBF6E
:10065000DF91CF910895CF93DF9300D000D000D0E9
:10066000CDB7DEB79C838B837E836D831A8219821C
:100670001EC089819A812B813C81820F931F298121
:100680003A814B815C81240F351FF90160812981FA
:100690003A814D815E81240F351FF9012081262783
:1006A000FC01208389819A8101969A8389838981BB
:1006B0009A814097F4F2000026960FB6F894DEBFB8
:1006C0000FBECDBFDF91CF910895CF93DF93CDB70C
:1006D000DEB769970FB6F894DEBF0FBECDBF9B8B18
:1006E0008A8B7D8B6C8B5F8B4E8B398F288F198219
:1006F00020E1CE010296FC01322F11923A95E9F7E2
:100700008A899B89FC01848589838A899B890D96C6
:10071000FC018081882F90E02E893F89820F931FF2
:10072000FC0180818E878A899B890E96FC018081DD
:10073000882F90E02E893F89820F931FFC018081D2
:100740008F878A899B890F96FC018081882F90E092
:100750002E893F89820F931FFC018081888B8981BC
:10076000882F90E02E893F89820F931FFC018081A2
:10077000898B4E85888D998DFC018081882F90E032
:100780002C893D89820F931FFC018081242F28270B
:100790008A899B89FC01808182278A832F858A89A7
:1007A0009B890196FC01808182278B8328898A8915
:1007B0009B890296FC01808182278C8329898A8902
:1007C0009B890396FC01808182278D832A818A89F7
:1007D0009B890496FC01808182278E832B818A89E4
:1007E0009B890596FC01808182278F832C818A89D1
:1007F0009B890696FC018081822788872D818A89C2
:100800009B890796FC018081822789872E818A89AE
:100810009B890896FC01808182278A872F818A899B
:100820009B890996FC01808182278B8728858A898C
:100830009B890A96FC01808182278C8729858A8979
:100840009B890B96FC01808182278D872A858A8966
:100850009B890C96FC01808182278E872B858A8953
:100860009B890D96FC01808182278F872C858A8940
:100870009B890E96FC0180818227888B2D858A8931
:100880009B890F96FC0180818227898B888D998DA9
:10089000FC01808121E0280F888D998DFC01208347
:1008A000198216C08981882F90E02A893B89820F9E
:1008B000931F2981222F30E0AE014E5F5F4F240F3E
:1008C000351FF9012081FC01208389818F5F898395
:1008D0008981803138F3000069960FB6F894DEBF45
:1008E0000FBECDBFDF91CF910895CF93DF9300D09E
:1008F0001F92CDB7DEB79B838A83198219820CC001
:100900008981882F90E02A813B81820F931FFC010F
:10091000108289818F5F89838981803188F300000B
:100920000F900F900F90DF91CF910895CF93DF93A9
:1009300000D000D01F92CDB7DEB79B838A837D8322
:100940006C831982198215C08981882F90E02A81D1
:100950003B81820F931F2981222F30E04C815D81E2
:10096000240F351FF9012081FC01208389818F5FCD
:1009700089838981803140F300000F900F900F90A0
:100980000F900F90DF91CF910895CF93DF93CDB764
:10099000DEB762970FB6F894DEBF0FBECDBF988B5F
:1009A0008F877A8B698B19821E821F82188619861F
:1009B0001A861B861C861D8689899A89FC0180817E
:1009C000882309F04CC081E08D8783E08A8343C08F
:1009D0008A81082E000C990B2A81022E000C330B01
:1009E0004F855889240F351FF90160812A81022E15
:1009F000000C330BAE01465F5F4F240F351FF9012A
:100A00002081362F320F2981432F420F9E012A5F0A
:100A10003F4F820F931FFC0140838A81082E000CF8
:100A2000990B9E012A5F3F4F820F931FFC0140816B
:100A30008A81082E000C990B2F853889820F931F0D
:100A4000FC018081481718F481E0898301C0198274
:100A50008A8181508A838A8188230CF0B9CF898961
:100A60009A89FC018081813009F04CC081E08C873B
:100A700082E08B8343C08B81082E000C990B2B8165
:100A8000022E000C330B4F855889240F351FF901B6
:100A900060812B81022E000C330BAE01465F5F4F4D
:100AA000240F351FF9012081362F320F2981432F62
:100AB000420F9E012A5F3F4F820F931FFC0140832C
:100AC0008B81082E000C990B9E012A5F3F4F820FED
:100AD000931FFC0140818B81082E000C990B2F8500
:100AE0003889820F931FFC018081481718F481E038
:100AF000898301C019828B8181508B838B818823EC
:100B00000CF0B9CF89899A89FC018081823009F083
:100B10004CC081E08B8781E08C8343C08C81082EA0
:100B2000000C990B2C81022E000C330B4F85588939
:100B3000240F351FF90160812C81022E000C330B2C
:100B4000AE01465F5F4F240F351FF9012081362F1C
:100B5000320F2981432F420F9E012A5F3F4F820FA0
:100B6000931FFC0140838C81082E000C990B9E0181
:100B70002A5F3F4F820F931FFC0140818C81082E1A
:100B8000000C990B2F853889820F931FFC018081FF
:100B9000481718F481E0898301C019828C81815043
:100BA0008C838C8188230CF0B9CF89899A89FC01C8
:100BB0008081833009F04BC081E08A871D8243C069
:100BC0008D81082E000C990B2D81022E000C330B09
:100BD0004F855889240F351FF90160812D81022E20
:100BE000000C330BAE01465F5F4F240F351FF90138
:100BF0002081362F320F2981432F420F9E012A5F19
:100C00003F4F820F931FFC0140838D81082E000C03
:100C1000990B9E012A5F3F4F820F931FFC01408179
:100C20008D81082E000C990B2F853889820F931F18
:100C3000FC018081481718F481E0898301C0198282
:100C40008D8181508D838D8188230CF0B9CF1E86D4
:100C500018C08E85082E000C990B2F853889820FBD
:100C6000931F2E85022E000C330BAE014A5F5F4F9F
:100C7000240F351FF9012081FC0120838E858F5FB1
:100C80008E878E8584302CF3000062960FB6F89420
:100C9000DEBF0FBECDBFDF91CF910895CF93DF931D
:100CA000CDB7DEB72D970FB6F894DEBF0FBECDBF20
:100CB0009D878C8719821C821D821E821F82188646
:100CC00019861A861B8681E08B8783E08A831B82C4
:100CD00043C08A81082E000C990B2A81022E000C39
:100CE000330B4C855D85240F351FF90160812A8106
:100CF000022E000C330BAE01485F5F4F240F351FEF
:100D0000F9012081362F320F2981432F420F9E0196
:100D10002C5F3F4F820F931FFC0140838A81082E76
:100D2000000C990B9E012C5F3F4F820F931FFC011B
:100D300040818A81082E000C990B2C853D85820FFD
:100D4000931FFC018081481718F481E0898301C05A
:100D500019828A8181508A838A8188230CF0B9CFD5
:100D60001B8218C08B81082E000C990B2C853D85A9
:100D7000820F931F2B81022E000C330BAE014C5FB0
:100D80005F4F240F351FF9012081FC0120838B81E7
:100D90008F5F8B838B8184302CF300002D960FB6F0
:100DA000F894DEBF0FBECDBFDF91CF9108950F93B2
:100DB0001F93CF93DF93CDB7DEB7E0970FB6F894CC
:100DC000DEBF0FBECDBF98A78FA37AA769A75CA788
:100DD0004BA73EA72DA718AB0FA720E1CE01019688
:100DE000FC01322F11923A95E9F720E1CE014196AC
:100DF000FC01322F11923A95E9F719A21AA28BA59C
:100E00009CA573DD8BA59CA5BC01CE0101968EDD52
:100E10001CA21BA2B9C01EA21DA2A6C019A229A570
:100E20003AA5CE014196B90181DDCE014196BC01C2
:100E3000CE01019610DC9E012F5D3F4F4DA55EA5B2
:100E40006FA578A9CE01419640DC8DA59EA5BC0179
:100E5000CE01019690D9CE010196C3D9CE0101965B
:100E600044DACE014196BC01CE010196F4DB9E012D
:100E70002F5D3F4F4DA55EA56FA578A9CE01419688
:100E800024DC8DA59EA5BC01CE01019674D91AA2C1
:100E900055C08BA19CA1039769F18BA19CA1982FB0
:100EA0008827990F990F2FA138A5A901480F591F1D
:100EB0008AA1282F30E08DA19EA16BA17CA16F5F3C
:100EC0007F4FFB01EE0FFF1FEE0FFF1F6AA1662F82
:100ED00070E06E0F7F1FFE0131966E0F7F1FFB01CA
:100EE0006081322F2227240F351F820F931FFC01B0
:100EF000608321C08BA19CA1982F8827990F990FFF
:100F00002FA138A5A901480F591F8AA1282F30E029
:100F10008DA19EA16AA1662F70E0FE0131966E0F31
:100F20007F1FFB016081322F2227240F351F820F84
:100F3000931FFC0160838AA18F5F8AA38AA18430FA
:100F400008F4A7CF9E012D5D3F4F8BA59CA5B9014D
:100F50001CDD8BA59CA5BC01CE010196E7DC8DA113
:100F60009EA101969EA38DA38DA19EA103970CF433
:100F700055CFCE010196B9DC8BA59CA5B6DC8BA123
:100F80009CA101969CA38BA38BA19CA104970CF41C
:100F900042CF0000E0960FB6F894DEBF0FBECDBF83
:100FA000DF91CF911F910F910895EF92FF920F93D0
:100FB0001F93CF93DF93CDB7DEB7AE970FB6F894FC
:100FC000DEBF0FBECDBF9CA38BA37EA36DA358A78E
:100FD0004FA33AA729A71CA70BA7FEA6EDA620E1C1
:100FE000CE010296FC01322F11923A95E9F71A8A46
:100FF00020E1CE014396FC01322F11923A95E9F798
:101000001982DBC08981882F90E02DA13EA1B90112
:10101000745F2981422F50E02BA13CA1F90120816E
:10102000222F30E0542F4427460F571F240F351F1F
:10103000F90140819E012E5F3F4F820F931FFC01FB
:1010400040838981882F90E004962981422F50E0C7
:101050002BA13CA12D5F3F4FF9012081222F30E0D1
:101060006DA17EA1542F4427460F571F240F351F13
:10107000F90140819E012E5F3F4F820F931FFC01BB
:1010800040838981882F90E008962DA13EA1B90167
:101090007C5F2981422F50E02BA13CA12E5F3F4F66
:1010A000F9012081222F30E0542F4427460F571F8B
:1010B000240F351FF90140819E012E5F3F4F820FA3
:1010C000931FFC0140838981882F90E00C962DA10D
:1010D0003EA1B901785F2981422F50E02BA13CA1AC
:1010E0002F5F3F4FF9012081222F30E0542F4427FA
:1010F000460F571F240F351FF90140819E012E5FB7
:101100003F4F820F931FFC0140838981882F90E01D
:101110002981222F30E049A55AA5240F351FF90156
:1011200040819E012D5E3F4F820F931FFC01408343
:101130008981882F90E004962981222F30E02C5F4E
:101140003F4F49A55AA5240F351FF90140819E0143
:101150002D5E3F4F820F931FFC0140838981882FB2
:1011600090E008962981222F30E0285F3F4F49A563
:101170005AA5240F351FF90140819E012D5E3F4F76
:10118000820F931FFC0140838981882F90E00C9689
:101190002981222F30E0245F3F4F49A55AA5240F13
:1011A000351FF90140819E012D5E3F4F820F931F35
:1011B000FC01408389818F5F89838981843008F4B1
:1011C00021CF9E012E5E3F4F4BA55CA56DA57EA550
:1011D000CE0143967ADA9E012E5E3F4F4BA55CA569
:1011E0006DA57EA5CE01439670DACE0102960E94CF
:1011F000F100CE0102960E945E009E012D5E3F4FDF
:10120000CE010296B90127DA9E012E5E3F4F4BA513
:101210005CA56DA57EA5CE01439657DA83E0898350
:1012200023C02BA53CA5CE010296B9010E94BB00AC
:10123000CE0102960E94F100CE0102960E945E004D
:101240009E012D5E3F4FCE010296B90104DA9E0148
:101250002E5E3F4F4BA55CA56DA57EA5CE014396A6
:1012600034DA89818F5F898389818A30D0F22BA516
:101270003CA5CE010296B9010E94BB00CE010296A8
:101280000E94F1009E012D5E3F4FCE010296B901F2
:10129000E2D9198216C08981882F90E02FA138A544
:1012A000820F931F2981222F30E0AE014E5F5F4FE6
:1012B000240F351FF9012081FC01208389818F5F74
:1012C00089838981803138F30000AE960FB6F89497
:1012D000DEBF0FBECDBFDF91CF911F910F91FF9069
:1012E000EF900895AF92BF92CF92DF92EF92FF926C
:1012F0000F931F93CF93DF93CDB7DEB7C459D109B6
:101300000FB6F894DEBF0FBECDBFFE01EC57FF4F06
:1013100091838083CE018A579F4FFC017183608344
:10132000CE0188579F4FFC0151834083CE018657E1
:101330009F4FFC012083CE0185579F4FFC011183F5
:101340000083CE0183579F4FFC01F182E082CE01E2
:1013500081579F4FFC01D182C082CE018F569F4F93
:10136000FC01B182A082CE0186579F4FFC01808193
:101370008F708B8320E3CE010496FC01322F1192F3
:101380003A95E9F720E3CE01C496FC01322F119281
:101390003A95E9F7CE0183579F4FFC0180819181F7
:1013A000A4DA19823BC01A8233C08981282F30E029
:1013B0008A81882F90E04981442F50E0BA016295DC
:1013C0007295707F7627607F76274A81442F50E0A0
:1013D000460F571FBA01AE014C575F4FFA014081CB
:1013E0005181460F571FFA01608122953295307F57
:1013F0003227207F3227AE014F5F5F4F240F351F0A
:10140000820F931F0396FC0160838A818F5F8A831A
:101410008A81803150F289818F5F8983898182300E
:1014200010F28B81882311F51A821DC08A81882FC2
:1014300090E02A81222F30E0205E3F4FA9019E01DB
:101440002C573F4FF90120813181240F351FF901BD
:1014500040819E012C5D3F4F820F931FFC01408312
:101460008A818F5F8A838A81803100F38B81882310
:10147000D1F11A821DC08A81882F90E02A81222F03
:1014800030E0205E3F4FA9019E012C573F4FF901EC
:1014900020813181240F351FF90140819E012C5D8F
:1014A0003F4F820F931FFC0140838A818F5F8A83A5
:1014B0009A818B819817F8F28B818A8311C08A8177
:1014C000882F90E030E12B81432F421B9E012C5D41
:1014D0003F4F820F931FFC0140838A818F5F8A8375
:1014E0008A81803160F3198299C08981882339F01B
:1014F000CE0183579F4FFC0180819181CFDB1A82FF
:101500001AC08A81882F90E02A81222F30E0AE0114
:1015100043575F4FFA0140815181240F351FF90174
:1015200040819E012C593F4F820F931FFC01408345
:101530008A818F5F8A838A81803118F3CE018F562A
:101540009F4FFC01A081B181CE0181579F4FFC01CB
:101550000190F081E02DCD56DF4FF983E883C35928
:10156000D040CE0185579F4FFC0120813181AE01D3
:101570004C585F4FCE0188579F4FFC0160817181AD
:10158000CE018C599F4F7D01CD56DF4F08811981C7
:10159000C359D0400ADD1A823BC08981282F30E030
:1015A0008A81882F90E04A81442F50E0BE016C5818
:1015B0007F4F460F571FFA01A0814981642F70E0C9
:1015C0004A81442F50E062957295707F7627607F44
:1015D0007627FE0131966E0F7F1F460F571F4D5F16
:1015E0005F4FFA0140816A2F642722953295307F40
:1015F0003227207F3227AE014F5F5F4F240F351F08
:10160000820F931FC396FC0160838A818F5F8A8358
:101610008A81803110F289818F5F8983898183304B
:1016200008F463CF19823CC01A8234C08981882FA4
:1016300090E09C0122953295307F3227207F32271F
:101640008A81882F90E0820F931F9C01CE018A57D8
:101650009F4FFC0180819181820F931F2981422F2E
:1016600050E02A81222F30E042955295507F542736
:10167000407F5427BE016F5F7F4F460F571F240FD7
:10168000351F2D5C3F4FF9012081FC0120838A81A9
:101690008F5F8A838A81803148F289818F5F898355
:1016A0008981833008F20000CC56DF4F0FB6F894E2
:1016B000DEBF0FBECDBFDF91CF911F910F91FF9085
:1016C000EF90DF90CF90BF90AF900895AF92BF9210
:1016D000CF92DF92EF92FF920F931F93CF93DF93FE
:1016E000CDB7DEB7CD58D1410FB6F894DEBF0FBEEF
:1016F000CDBF2DE0E0E0F1E0CE010196DC010190EC
:101700000D922A95E1F780E0EDE0F1E0DE011E9612
:1017100001900D928A95E1F7CE01825F9E4F20E302
:10172000FC01322F11923A95E9F7CE01825C9E4F6F
:1017300020E3FC01322F11923A95E9F7CE0182594C
:101740009E4F20E1EDE0F2E0DC0101900D922A9540
:10175000E1F79E0122583E4F80E090E1F901AC0193
:10176000119241505040E1F7CE0182589E4E20E147
:10177000FC01322F11923A95E9F79E01225F3F4F0B
:10178000AE0142585E4EBE0162597E4FCE01825874
:101790009E4FFE0131968F010ADBDE011E96FE018F
:1017A000E258FE4E9E0122593E4FAE0142585E4F16
:1017B000BE01625C7E4FCE01825F9E4F8E010F5F45
:1017C0001F4F58016D017F01890120E88BDD80E00A
:1017D00090E0C357DE4E0FB6F894DEBF0FBECDBF0C
:1017E000DF91CF911F910F91FF90EF90DF90CF90FD
:0A17F000BF90AF900895F894FFCF6A
:1017FA0001020408102040801B366CD8AB637C774A
:10180A007BF26B6FC53001672BFED7AB76CA82C9F4
:10181A007DFA5947F0ADD4A2AF9CA472C0B7FD932C
:10182A0026363FF7CC34A5E5F171D8311504C72324
:10183A00C31896059A071280E2EB27B27509832C22
:10184A001A1B6E5AA0523BD6B329E32F8453D100F8
:10185A00ED20FCB15B6ACBBE394A4C58CFD0EFAA17
:10186A00FB434D338545F9027F503C9FA851A34065
:10187A008F929D38F5BCB6DA2110FFF3D2CD0C1346
:10188A00EC5F974417C4A77E3D645D197360814F6E
:10189A00DC222A908846EEB814DE5E0BDBE0323A90
:1018AA000A4906245CC2D3AC629195E479E7C83749
:1018BA006D8DD54EA96C56F4EA657AAE08BA7825CC
:1018CA002E1CA6B4C6E8DD741F4BBD8B8A703EB5CC
:1018DA00664803F60E613557B986C11D9EE1F89830
:1018EA001169D98E949B1E87E9CE5528DF8CA18970
:1018FA000DBFE6426841992D0FB054BB1600010294
:0E190A00030405060708090A0B0C0D0E0F005A
:00000001FF
