S01400004145535F386269745F61736D2E73726563C1
S11300007FC1000092C1000090C100008EC10000B9
S11300108CC100008AC1000088C1000086C10000B4
S113002084C1000082C1000080C100007EC10000C4
S11300307CC100007AC1000078C1000076C10000D4
S113004074C1000072C1000070C100006EC10000E4
S11300506CC100006AC1000068C1000066C10000F4
S113006064C1000062C1000060C100005EC1000004
S11300705CC100005AC1000058C1000056C1000014
S113008054C1000052C1000050C100000000000033
S1130090000000000000000000000000000000005C
S11300A0000000000000000000000000000000004C
S11300B0000000000000000000000000000000003C
S11300C0000000000000000000000000000000002C
S11300D0000000000000000000000000000000001C
S11300E0000000000000000000000000000000000C
S11300F000000000000000000000000000000000FC
S113010001020408102040801B366CD8AB000000AC
S113011000000000000000000000000000000000DB
S113012000000000000000000000000000000000CB
S113013000000000000000000000000000000000BB
S113014000000000000000000000000000000000AB
S1130150000000000000000000000000000000009B
S1130160000000000000000000000000000000008B
S1130170000000000000000000000000000000007B
S1130180000000000000000000000000000000006B
S1130190000000000000000000000000000000005B
S11301A0000000000000000000000000000000004B
S11301B0000000000000000000000000000000003B
S11301C0000000000000000000000000000000002B
S11301D0000000000000000000000000000000001B
S11301E0000000000000000000000000000000000B
S11301F000000000000000000000000000000000FB
S1130200637C777BF26B6FC53001672BFED7AB76CF
S1130210CA82C97DFA5947F0ADD4A2AF9CA472C07A
S1130220B7FD9326363FF7CC34A5E5F171D83115E7
S113023004C723C31896059A071280E2EB27B27508
S113024009832C1A1B6E5AA0523BD6B329E32F8480
S113025053D100ED20FCB15B6ACBBE394A4C58CF78
S1130260D0EFAAFB434D338545F9027F503C9FA84C
S113027051A3408F929D38F5BCB6DA2110FFF3D21A
S1130280CD0C13EC5F974417C4A77E3D645D1973CE
S113029060814FDC222A908846EEB814DE5E0BDBC8
S11302A0E0323A0A4906245CC2D3AC629195E479FF
S11302B0E7C8376D8DD54EA96C56F4EA657AAE0859
S11302C0BA78252E1CA6B4C6E8DD741F4BBD8B8AF4
S11302D0703EB5664803F60E613557B986C11D9E5A
S11302E0E1F8981169D98E949B1E87E9CE5528DFD1
S11302F08CA1890DBFE6426841992D0FB054BB16FD
S113030011241FBECFEFD0E1DEBFCDBF11E0A0E0CE
S1130310B1E0EEE0FFE000E00BBF02C007900D92F9
S1130320A031B107D9F793D5F0C56ACE0F923F92A9
S11303304F925F926F927F928F920F931F93CF93FE
S1130340DF93EF93FF93FC01EC0104E01BE12990A0
S1130350499059906990322C3424732C770C832C57
S1130360880C8824881C819E0724042405240624E0
S11303700192342C3524732C770C832C880C88241C
S1130380881C819E07240224052406240192352C0E
S11303903624732C770C832C880C8824881C819E2B
S11303A007240224042406240192362C3224732CBC
S11303B0770C832C880C8824881C819E07240224B3
S11303C00424052401920A9511F6FF91EF91DF911F
S11303D0CF911F910F918F907F906F905F904F906E
S11303E03F900F900895CF93DF93CDB7DEB7299751
S11303F00FB6F894DEBF0FBECDBF9F838E8379877F
S113040068871A82198225C08981882F90E02E81FD
S11304103F81820F931FFC0180818A838981882F09
S113042090E02E813F81820F931F2A81222F30E09A
S113043048855985240F351F3C832B832B813C81B0
S1130440F90124912D832D81FC01208389818F5F03
S1130450898389818031C0F2000029960FB6F8940F
S1130460DEBF0FBECDBFDF91CF910895CF93DF9351
S113047000D000D0CDB7DEB79C838B838B819C8169
S1130480FC01858589838B819C810D962B813C8120
S1130490F9012181FC0120838B819C8101962B81B0
S11304A03C81F9012581FC0120838B819C81059687
S11304B02B813C81F9012185FC0120838B819C8166
S11304C009962981FC0120838B819C81FC01828512
S11304D089838B819C81FC0186858A838B819C81A5
S11304E00A962B813C81F9012281FC0120838B81B6
S11304F09C810E962B813C81F9012681FC0120838D
S11305008B819C8102962981FC0120838B819C81B3
S113051006962A81FC0120838B819C81FC018781C2
S113052089838B819C8107962B813C81F9012381EE
S1130530FC0120838B819C8103962B813C81F901F2
S11305402785FC0120838B819C810F962B813C8124
S1130550F9012385FC0120838B819C810B962981E1
S1130560FC01208300000F900F900F900F90DF91FB
S1130570CF910895CF93DF9300D000D000D0CDB7B2
S1130580DEB79C838B837E836D831A8219821EC09F
S113059089819A812B813C81820F931F29813A8121
S11305A04B815C81240F351FF901608129813A81D7
S11305B04D815E81240F351FF90120812627FC011E
S11305C0208389819A8101969A83898389819A817A
S11305D04097F4F2000026960FB6F894DEBF0FBEE3
S11305E0CDBFDF91CF910895CF93DF93CDB7DEB721
S11305F0AB970FB6F894DEBF0FBECDBF9DA38CA3FF
S11306007FA36EA359A748A73BA72AA7188A20E16E
S1130610CE014196FC01322F11923A95E9F78CA153
S11306209DA1FC018485888B8CA19DA1FC018585FD
S113063089A38CA19DA1FC0186858AA38CA19DA17F
S1130640FC0187858BA389A1882F90E028A539A573
S1130650820F931F9A83898389819A81FC018491F3
S11306608B838B818D8F8AA1882F90E028A539A553
S1130670820F931F9D838C838C819D81FC018491C7
S11306808E838E818E8F8BA1882F90E028A539A52B
S1130690820F931F98878F838F819885FC018491A3
S11306A0898789858F8F8889882F90E028A539A527
S11306B0820F931F9B878A878A859B85FC0184917F
S11306C08C878C8588A38AA59BA5FC01808189A33E
S11306D089A1882F90E02EA13FA1820F931F9E87AE
S11306E08D878D859E85FC0184918F878F85888B6E
S11306F09D8D8889292F28278CA19DA1FC018081AB
S11307008227898B2E8D8CA19DA10196FC0180816D
S113071082278A8B2F8D8CA19DA10296FC0180815A
S113072082278B8B28A18CA19DA10396FC0180813B
S113073082278C8B29898CA19DA10496FC01808140
S113074082278D8B2A898CA19DA10596FC0180812D
S113075082278E8B2B898CA19DA10696FC0180811A
S113076082278F8B2C898CA19DA10796FC01808107
S11307708227888F2D898CA19DA10896FC018081F8
S11307808227898F2E898CA19DA10996FC018081E5
S113079082278A8F2F898CA19DA10A96FC018081D2
S11307A082278B8F288D8CA19DA10B96FC018081C3
S11307B082278C8F298D8CA19DA10C96FC018081B0
S11307C082278D8F2A8D8CA19DA10D96FC0180819D
S11307D082278E8F2B8D8CA19DA10E96FC0180818A
S11307E082278F8F2C8D8CA19DA10F96FC01808177
S11307F0822788A38AA59BA5FC01808121E0280F7C
S11308008AA59BA5FC012083188A16C08889882F95
S113081090E02CA13DA1820F931F2889222F30E064
S1130820AE014F5E5F4F240F351FF9012081FC019B
S1130830208388898F5F888B8889803138F3000012
S1130840AB960FB6F894DEBF0FBECDBFDF91CF914C
S113085008950F931F93CF93DF93CDB7DEB7AC9773
S11308600FB6F894DEBF0FBECDBF9CA38BA37EA3AF
S11308706DA358A74FA33AA729A71CA70BA71982B2
S11308801A8A20E1CE014396FC01322F11923A9547
S1130890E9F7198229C08981882F90E02981222FC4
S11308A030E04BA15CA1240F351FF90140819E016A
S11308B02E5F3F4F820F931FFC0140838981882F55
S11308C090E02981222F30E04FA158A5240F351F35
S11308D0F90140819E012D5E3F4F820F931FFC0161
S11308E0408389818F5F898389818031A0F29E0151
S11308F02D5E3F4FCE010296B9013CDE9E012E5E75
S11309003F4F49A55AA56BA57CA5CE0143966CDE45
S113091081E0898320C029A53AA5CE010296B901B8
S113092062DDCE010296A2DDCE010296FFDC9E01BD
S11309302D5E3F4FCE010296B9011CDE9E012E5E54
S11309403F4F49A55AA56BA57CA5CE0143964CDE25
S113095089818F5F898389818A30E8F229A53AA544
S1130960CE010296B9013FDDCE0102967FDD9E01E4
S11309702D5E3F4FCE010296B901FCDD198216C0EF
S11309808981882F90E02DA13EA1820F931F298198
S1130990222F30E0AE014E5F5F4F240F351FF90167
S11309A02081FC01208389818F5F89838981803143
S11309B038F30000AC960FB6F894DEBF0FBECDBF7F
S11309C0DF91CF911F910F910895CF93DF9300D0C2
S11309D01F92CDB7DEB79B838A83198219820CC01C
S11309E08981882F90E02A813B81820F931FFC012B
S11309F0108289818F5F89838981803188F3000027
S1130A000F900F900F90DF91CF910895CF93DF93C4
S1130A10CDB7DEB7A6970FB6F894DEBF0FBECDBF35
S1130A209EA38DA31C821B8220E1CE010596FC01AE
S1130A30322F11923A95E9F720E1CE014596FC0157
S1130A40322F11923A95E9F781E08CA38FE090E080
S1130A509A8389833EC089819A812DA13EA1820F08
S1130A60931FFC0140819E012B5E3F4F89819A8137
S1130A70820F931FFC018081942F980F8B81492F43
S1130A80480F9E012B5F3F4F89819A81820F931FEC
S1130A90FC0140839E012B5F3F4F89819A81820F25
S1130AA0931FFC01408189819A812DA13EA1820F6F
S1130AB0931FFC018081481728F481E090E09C8317
S1130AC08B8302C01C821B8289819A8101979A833D
S1130AD0898389819A8199230CF0BDCF1A82198266
S1130AE016C089819A812DA13EA1820F931FAE0168
S1130AF04B5F5F4F29813A81240F351FF901208113
S1130B00FC01208389819A8101969A838983898152
S1130B109A81409734F30000A6960FB6F894DEBF8E
S1130B200FBECDBFDF91CF910895CF92DF92EF92A8
S1130B30FF920F931F93CF93DF93CDB7DEB7C055CA
S1130B40D1090FB6F894DEBF0FBECDBFFE01EC5B3A
S1130B50FF4F91838083CE018A5B9F4FDC016D93AD
S1130B607C93CE01885B9F4FFC014083CE01875B61
S1130B709F4FDC012D933C93CE01855B9F4FFC017D
S1130B8011830083CE01835B9F4FDC01ED92FC92C5
S1130B90CE01815B9F4FFC01D182C082CE01885B74
S1130BA09F4FDC018C918F708B8320E1CE010496E2
S1130BB0FC01322F11923A95E9F720E1CE014496D7
S1130BC0DC01E22F1D92EA95E9F7CE01855B9F4F88
S1130BD0DC018D919C91F9DE198200008B818823C0
S1130BE0F9F41A821AC08A81882F90E02A81222F70
S1130BF030E0AE014C5B5F4FFA0140815181240F1C
S1130C00351FD9014C919E012C5F3F4F820F931FDA
S1130C10FC0140838A818F5F8A838A81803118F343
S1130C208B818823B9F11A821AC08A81882F90E0B7
S1130C302A81222F30E0AE014C5B5F4FDA014D91E7
S1130C405C91240F351FF90140819E012C5F3F4FB9
S1130C50820F931FDC014C938A818F5F8A839A8170
S1130C608B81981710F38B818A8311C08A81882F16
S1130C7090E030E12B81432F421B9E012C5F3F4FBC
S1130C80820F931FFC0140838A818F5F8A838A814C
S1130C90803160F3198285C08981882339F0CE01BF
S1130CA0855B9F4FDC018D919C91B0DE1A821AC046
S1130CB08A81882F90E02A81222F30E0AE01455BA3
S1130CC05F4FFA0140815181240F351FD9014C91A6
S1130CD09E012C5D3F4F820F931FFC0140838A814C
S1130CE08F5F8A838A81803118F3CE01815B9F4FA5
S1130CF0DC01ED91FC91CE01835B9F4FDC012D91D2
S1130D003C91CE01875B9F4FDC014D915C91BE010C
S1130D106C5C7F4FCE0184968F019BDD1A823BC0B1
S1130D208981282F30E08A81882F90E04A81442FDE
S1130D3050E0BE016C5C7F4F460F571FFA01A08143
S1130D404981642F70E04A81442F50E06295729586
S1130D50707F7627607F7627FE0131966E0F7F1FA6
S1130D60460F571F4D5F5F4FFA0140816A2F64277A
S1130D7022953295307F3227207F3227AE014F5F94
S1130D805F4F240F351F820F931F4396DC016C9332
S1130D908A818F5F8A838A81803110F289818F5F93
S1130DA089838981882309F477CF19823CC01A8208
S1130DB034C08981882F90E09C0122953295307F40
S1130DC03227207F32278A81882F90E0820F931F59
S1130DD09C01CE018A5B9F4FFC0180819181820F2F
S1130DE0931F2981422F50E02A81222F30E042951F
S1130DF05295507F5427407F5427BE016F5F7F4F29
S1130E00460F571F240F351F2D5E3F4FD9012C91DC
S1130E10FC0120838A818F5F8A838A81803148F232
S1130E2089818F5F89838981882309F20000C05BEF
S1130E30DF4F0FB6F894DEBF0FBECDBFDF91CF9169
S1130E401F910F91FF90EF90DF90CF900895CF9274
S1130E50DF92EF92FF920F931F93CF93DF93CDB75F
S1130E60DEB7C054D1090FB6F894DEBF0FBECDBFB4
S1130E7020E1CE010196FC01322F11923A95E9F757
S1130E8020E1CE014196FC01322F11923A95E9F707
S1130E9080E1E0E0F1E0DE01919601900D928A9507
S1130EA0E1F720E1CE01C196FC01322F11923A956F
S1130EB0E9F7AE014F5C5F4F9E012F5D3F4FCE01BE
S1130EC041960F2EF0E0CF2EF1E0DF2EF02D0F2E05
S1130ED0F0E0EF2EF2E0FF2EF02D8A0140E8BC0195
S1130EE0CE01019622DE80E090E0C05CDF4F0FB6B9
S1130EF0F894DEBF0FBECDBFDF91CF911F910F914C
S1110F00FF90EF90DF90CF900895F894FFCF0C
S1130F0E000102030405060708090A0B0C0D0E0F57
S9030000FC
