:1000000045C0000058C0000056C0000054C00000A9
:1000100052C0000050C000004EC000004CC00000A4
:100020004AC0000048C0000046C0000044C00000B4
:1000300042C0000040C000003EC000003CC00000C4
:100040003AC0000038C0000036C0000034C00000D4
:1000500032C0000030C000002EC000002CC00000E4
:100060002AC0000028C0000026C0000024C00000F4
:1000700022C0000020C000001EC000001CC0000004
:100080001AC0000018C0000016C0000011241FBED6
:10009000CFEFD0E1DEBFCDBF12E0A0E0B1E0EAE0FB
:1000A000F5E000E00BBF02C007900D92AE34B1073F
:1000B000D9F7D3D128C2A4CFFC019C01205F3F4FC8
:1000C0009081DB01A90FB11D9C919193E217F30779
:1000D000B9F70895FC018585918195879581918374
:1000E00091859583818792858685228122872681C5
:1000F00026879283868387819381978397859383CD
:100100009385978783870895FF920F931F93CF93CB
:10011000DF9300D000D0CDB7DEB7AC018C01005F1B
:100120001F4F0F2EFBE1FF2EF02DBE016B5F7F4FA7
:10013000DA01FC9111963C911197EF2FE32712966B
:100140002C911297322713969C918E2F881F882707
:10015000881F8F9D802D1124AE2FAA0F8A27A32FD1
:10016000A9278A278983832F881F8827881F8F9D27
:10017000802D1124330F38278F2F82278927382786
:100180003A83822F8927382F331F3327331F3F9D10
:10019000302D1124880F83273E2F392783278B8307
:1001A0009F27892F881F8827881F8F9D802D1124C6
:1001B000990F98272E2792279C83FE013196DA010A
:1001C00081918D93E617F707D9F74C5F5F4F401782
:1001D000510709F0ADCF0F900F900F900F90DF9166
:1001E000CF911F910F91FF900895DB01FC019C01BD
:1001F0002C5F3F4F9D91808198279193E217F307E1
:10020000C9F70895AF92BF92CF92DF92FF920F93FA
:100210001F93CF93DF93CDB7DEB760970FB6F894F7
:10022000DEBF0FBECDBFDC016B01CA01AE014F5F67
:100230005F4F5A0130E1FA0111923A95E9F71C96A5
:100240003C911C971D964C911D97BC01640F711D2C
:10025000FB0100811C960C931C971E964C911E97D7
:10026000BC01640F711DFB0110811D961C931D972D
:100270001F964C911F97BC01640F711DFB0170818B
:100280001E967C931E97830F911DFC01F0801F9694
:10029000FC921F978C91C20ED11CF6019081982779
:1002A00090279983512F58275A83272F28272B834C
:1002B0008F258C8314964C91149749274D8315965E
:1002C0003C91159735273E8316965C911697622FC1
:1002D00065276F8317965C911797852788871896EF
:1002E0009C9118974927498719969C911997392706
:1002F0003A871A969C911A97262F29272B871B96A7
:100300009C911B9789278C8740274D8731273E87F3
:1003100027272F878F25888BF5019E012F5E3F4F62
:1003200081918D93E217F307D9F760960FB6F89491
:10033000DEBF0FBECDBFDF91CF911F910F91FF9018
:10034000DF90CF90BF90AF9008957F928F929F9251
:10035000AF92BF92CF92DF92EF92FF920F931F93D3
:10036000CF93DF93CDB7DEB7A0970FB6F894DEBF7B
:100370000FBECDBF862E972E5901FE01719620E14A
:10038000DF011D922A95E9F79E012F5F3F4F79010A
:10039000642F752F9F016F01F701DC014D91CD0195
:1003A0004193DB014D91BD01D9014D939D01EC15A8
:1003B000FD0599F7BE016F5E7F4FCE01019615DFF7
:1003C00020E0A501B801CE0141961CDF0F2EF9E017
:1003D0007F2EF02DB501CE0101966EDECE01019685
:1003E00079DECE01019690DEBE016F5E7F4FCE01B9
:1003F0000196FBDE20E0A501B801CE01419602DFA7
:100400007A947110E7CFB501CE01019655DECE0189
:10041000019660DEBE016F5E7F4FCE010196E5DE84
:10042000E82DF92DD7018D917D018193AC15BD0586
:10043000C9F7A0960FB6F894DEBF0FBECDBFDF910F
:10044000CF911F910F91FF90EF90DF90CF90BF90D1
:10045000AF909F908F907F9008950F931F93CF93AD
:10046000DF93CDB7DEB7CD56D1400FB6F894DEBFDF
:100470000FBECDBF8DE0E0E0F1E0DE01119601900E
:100480000D928A95E1F780E0EDE0F1E0DE011E9645
:1004900001900D928A95E1F780E2EDE0F2E0DE0155
:1004A000A25FBE4F01900D928A95E1F780E2EDE2E6
:1004B000F2E0DE01A25DBE4F01900D928A95E1F758
:1004C000BE01625B7E4F80E2FB0111928A95E9F7E3
:1004D0008E010F5F1F4F9E01225F3F4FAE01425DB5
:1004E0005E4FCE01825F9E4F30DF80E090E0C359C7
:1004F000DE4F0FB6F894DEBF0FBECDBFDF91CF91B8
:0A0500001F910F910895F894FFCFAA
:10050A0001020408102040801B366CD8AB637C774C
:10051A007BF26B6FC53001672BFED7AB76CA82C9F7
:10052A007DFA5947F0ADD4A2AF9CA472C0B7FD932F
:10053A0026363FF7CC34A5E5F171D8311504C72327
:10054A00C31896059A071280E2EB27B27509832C25
:10055A001A1B6E5AA0523BD6B329E32F8453D100FB
:10056A00ED20FCB15B6ACBBE394A4C58CFD0EFAA1A
:10057A00FB434D338545F9027F503C9FA851A34068
:10058A008F929D38F5BCB6DA2110FFF3D2CD0C1349
:10059A00EC5F974417C4A77E3D645D197360814F71
:1005AA00DC222A908846EEB814DE5E0BDBE0323A93
:1005BA000A4906245CC2D3AC629195E479E7C8374C
:1005CA006D8DD54EA96C56F4EA657AAE08BA7825CF
:1005DA002E1CA6B4C6E8DD741F4BBD8B8A703EB5CF
:1005EA00664803F60E613557B986C11D9EE1F89833
:1005FA001169D98E949B1E87E9CE5528DF8CA18973
:10060A000DBFE6426841992D0FB054BB1632004324
:10061A0000F600A80088005A0030008D0031003131
:10062A00009800A200E0003700070034002B007E8B
:10063A0000150016002800AE00D200A600AB00F795
:0E064A0000150088000900CF004F003C0000A2
:00000001FF
