S0130000746573745F6B656363616B2E7372656390
S113000045C000004BC0000049C0000047C00000CC
S113001045C0000043C0000041C000003FC00000D4
S11300203DC000003BC0000039C0000037C00000E4
S113003035C0000033C0000031C000002FC00000F4
S11300402DC000002BC0000029C0000027C0000004
S113005025C0000023C0000021C000001FC0000014
S11300601DC000001BC0000019C0000017C0000024
S113007015C0000013C0000011C000000FC0000034
S11300800DC000000BC0000009C0000011241FBEF9
S1130090CFEFD0E1DEBFCDBF0CD039C0B1CFDC0192
S11300A0EB01FA01608078807C90E71DF71D79E10F
S11300B00895CF93DF93CDB7DEB729970FB6F894A1
S11300C0DEBF0FBECDBF89E0898388E08A8397E0D5
S11300D09B838C8382E08D8383E08E8385E08F8392
S11300E096E098878987AE01495F5F4FBE016C5FD8
S11300F07F4FCE010196D3DF80E090E029960FB6C2
S1130100F894DEBF0FBECDBFDF91CF910895F89470
S1050110FFCF1B
S9030000FC
