:1000000045C0000058C0000056C0000054C00000A9
:1000100052C0000050C000004EC000004CC00000A4
:100020004AC0000048C0000046C0000044C00000B4
:1000300042C0000040C000003EC000003CC00000C4
:100040003AC0000038C0000036C0000034C00000D4
:1000500032C0000030C000002EC000002CC00000E4
:100060002AC0000028C0000026C0000024C00000F4
:1000700022C0000020C000001EC000001CC0000004
:100080001AC0000018C0000016C0000011241FBED6
:10009000CFEFD0E1DEBFCDBF14E0A0E0B1E0E4EAF5
:1000A000F7E000E00BBF02C007900D92A031B1074E
:1000B000D9F739D375C3A4CF4EE003C04CE001C0DB
:1000C0004AE00F921F922F923F924F925F926F924F
:1000D0007F928F929F92AF92BF92CF92DF92EF92D8
:1000E000FF92CF93DF938F939F93DB01FC01842FCB
:1000F000E89401901190219031904190519061903D
:10010000719081909190A190B190C190D190E19027
:10011000F190F1E0D2E00D9100260D9110260D91A5
:1001200020260D9130260D9140260D9150260D91DF
:1001300060260D9170260D9180260D9190260D91CF
:10014000A0260D91B0260D91C0260D91D0260D91BF
:10015000E0260D91F0262EF5FF91EF91019211927C
:100160002192319241925192619271928192919237
:10017000A192B192C192D192E192F192DF91CF918D
:10018000FF90EF90DF90CF90BF90AF909F908F90B7
:100190007F906F905F904F903F902F901F900F90A7
:1001A00008958A9539F501F0E02D0080E42D408016
:1001B000E82D8080EC2DC080E12D4081E52D108060
:1001C000E92D5080ED2D9080D42EE22D4081E62D3A
:1001D0005081EA2D2080EE2D6080A42EE52EE32DA7
:1001E0004081EF2D3080EB2DF080E72DB080742E14
:1001F000689491CFE02D1081212F322FC02D0881DE
:100200003027E52D4081042724273427C52D488138
:1002100004271427EA2D4081042714273427CA2DE8
:10022000488114272427EF2D4081042714272427F1
:10023000CF2D488124273427002EE42D5081652FAF
:10024000762FC42D48817427E92D0081402760272F
:100250007027C92D088140275027EE2D00814027A7
:1002600050277027CE2D088150276027E32D00816D
:10027000402750276027C32D088160277027442E10
:10028000552E332EE82D4081542F352FC82D08814F
:100290003027ED2D9081092759273927CD2D9881B9
:1002A00009274927E22D9081092749273927C22D9F
:1002B000988149275927E72D9081092749275927F0
:1002C000C72D988159273927802E942EA52E772E59
:1002D000EC2D5081752F972FCC2D48819427E12D3F
:1002E0000081402770279027C12D08814027502783
:1002F000E62D0081402750279027C62D08815027E2
:100300007027EB2D0081402750277027CB2D0881C7
:1003100070279027C42ED52EE72EF92E112E222ECF
:10032000662EB32EF8CEAB0171E060E007C0AB01E2
:1003300070E060EC03C0AB01772760E8EF92FF92BA
:100340000F931F93CF93DF93FA01EA01DC017695B7
:10035000679566956695262F0D9001922A95E1F78F
:100360006695669563FB362F762F795F770F770F4B
:10037000DF011497262FF3E07F0111E04D915D918D
:100380008D919D91321779F0EEF4022F07700430B1
:10039000C9F4F701E42F4081E52F5081E82F8081D7
:1003A000E92F90810FC0360FF701E42F0081E52F70
:1003B0004081E82F5081E92F8081902F4127110F34
:1003C00008F41BE1FD01099004260192099005261D
:1003D000019209900826019209900926019223951D
:1003E000271709F0CBCFE894DF91CF911F910F91A0
:1003F000FF90EF9008950000000000000000000052
:10040000637C777BF26B6FC53001672BFED7AB76D1
:10041000CA82C97DFA5947F0ADD4A2AF9CA472C07C
:10042000B7FD9326363FF7CC34A5E5F171D83115E9
:1004300004C723C31896059A071280E2EB27B2750A
:1004400009832C1A1B6E5AA0523BD6B329E32F8482
:1004500053D100ED20FCB15B6ACBBE394A4C58CF7A
:10046000D0EFAAFB434D338545F9027F503C9FA84E
:1004700051A3408F929D38F5BCB6DA2110FFF3D21C
:10048000CD0C13EC5F974417C4A77E3D645D1973D0
:1004900060814FDC222A908846EEB814DE5E0BDBCA
:1004A000E0323A0A4906245CC2D3AC629195E47901
:1004B000E7C8376D8DD54EA96C56F4EA657AAE085B
:1004C000BA78252E1CA6B4C6E8DD741F4BBD8B8AF6
:1004D000703EB5664803F60E613557B986C11D9E5C
:1004E000E1F8981169D98E949B1E87E9CE5528DFD3
:1004F0008CA1890DBFE6426841992D0FB054BB16FF
:100500004EE003C04CE001C04AE02F923F924F9270
:100510005F926F927F928F929F92AF92BF92CF9293
:10052000DF92EF92FF920F931F93CF93DF938F93FE
:100530009F93DB01FC01842FE89481909190A1901E
:10054000B190C190D190E190F190019111912191E0
:10055000319141915191619171919BE1F4E00D9044
:1005600080240D9090240D90A0240D90B0240D9027
:10057000C0240D90D0240D90E0240D90F0240D9017
:1005800000250D9010250D9020250D9030250D9003
:1005900040250D9050250D9060250D9070252EF56D
:1005A000FF91EF9181929192A192B192C192D192D9
:1005B000E192F192019311932193319341935193DD
:1005C00061937193DF91CF911F910F91FF90EF9005
:1005D000DF90CF90BF90AF909F908F907F906F9063
:1005E0005F904F903F902F9008958A9509F46894FA
:1005F000E82D8490EC2DC490E02F0491E42F4491D9
:10060000E92D2490ED2D9490E12FD490E52F1491B5
:10061000522DEA2D2490EE2D3490E22FA490E62F57
:10062000E490222D632DEB2D2490E72FB490E32F3F
:100630007491EF2D3491F22C0EF491CF0A2C0B24EF
:10064000402C282C89240824880C08F4892680242E
:100650008224392C3A24330C08F43926302493248C
:10066000440C08F449264024A4242B24220C08F42A
:1006700029262024B2240E2C0F24402C2C2CCD24EF
:100680000C24CC0C08F4C926C024C2243D2C3E24E2
:10069000330C08F439263024D324440C08F44926BA
:1006A0004024E4242F24220C08F429262024F224B8
:1006B000022E0326402C202E01270026000F08F4CE
:1006C000092700250225312E3226330C08F439265D
:1006D00030241325440C08F44926402424252326DD
:1006E000220C08F4292620243225062E0726402C29
:1006F000242E45270426440F08F449274025422587
:10070000352E3626330C08F4392630245325440C74
:1007100008F44926402464252726220C08F42926BB
:10072000202472251CCFCF93DF93CDB7DEB7C05FF7
:10073000D1090FB6F894DEBF0FBECDBF20E1E0E0D7
:10074000F4E0CE010196DC0101900D922A95E1F7CB
:1007500020E1CE014196FC01322F11923A95E9F742
:10076000CE018196BC01CE010196E1DD9E012F5D97
:100770003F4FCE014196B901A1DC9E012F5D3F4F55
:10078000CE014196B901BEDE80E090E0C051DF4F5E
:100790000FB6F894DEBF0FBECDBFDF91CF910895A5
:0407A000F894FFCFFB
:1007A400637C777BF26B6FC53001672BFED7AB762A
:1007B400CA82C97DFA5947F0ADD4A2AF9CA472C0D5
:1007C400B7FD9326363FF7CC34A5E5F171D8311542
:1007D40004C723C31896059A071280E2EB27B27563
:1007E40009832C1A1B6E5AA0523BD6B329E32F84DB
:1007F40053D100ED20FCB15B6ACBBE394A4C58CFD3
:10080400D0EFAAFB434D338545F9027F503C9FA8A6
:1008140051A3408F929D38F5BCB6DA2110FFF3D274
:10082400CD0C13EC5F974417C4A77E3D645D197328
:1008340060814FDC222A908846EEB814DE5E0BDB22
:10084400E0323A0A4906245CC2D3AC629195E47959
:10085400E7C8376D8DD54EA96C56F4EA657AAE08B3
:10086400BA78252E1CA6B4C6E8DD741F4BBD8B8A4E
:10087400703EB5664803F60E613557B986C11D9EB4
:10088400E1F8981169D98E949B1E87E9CE5528DF2B
:100894008CA1890DBFE6426841992D0FB054BB1657
:1008A400C6F8EEF6FFD6DE916002CE56E7B54DEC03
:1008B4008F1F89FAEFB28EFB41B35F452353E49B4C
:1008C40075E13D4C6C7EF5836851D1F9E2AB622A47
:1008D4000895469D30370A2F0E241BDFCD4E7FEA44
:1008E400121D583436DCB45BA476B77D52DD5E133A
:1008F400A6B900C140E379B6D48D67729498B085E7
:10090400BBC54FED869A66118AE904FEA078254B93
:10091400A25D80053F2170F16377AF4220E5FDBF02
:10092400811826C3BE35882E9355FC7AC8BA32E6A0
:10093400C0199EA344543B0B8CC76B28A7BC16ADAF
:10094400DB647414920C48B89FBD43C43931D3F2AC
:10095400D58B6EDA01B19C49D8ACF3CFCAF44710F9
:100964006FF04A5C38577397CBA1E83E96610D0F40
:10097400E07C71CC9006F71CC26AAE6917993A27DD
:10098400D9EB2B22D2A907332D3C15C987AA50A530
:100994000359091A65D784D082295A1E7BA86D2C65
:1009A400637C777BF26B6FC53001672BFED7AB7628
:1009B400CA82C97DFA5947F0ADD4A2AF9CA472C0D3
:1009C400B7FD9326363FF7CC34A5E5F171D8311540
:1009D40004C723C31896059A071280E2EB27B27561
:1009E40009832C1A1B6E5AA0523BD6B329E32F84D9
:1009F40053D100ED20FCB15B6ACBBE394A4C58CFD1
:100A0400D0EFAAFB434D338545F9027F503C9FA8A4
:100A140051A3408F929D38F5BCB6DA2110FFF3D272
:100A2400CD0C13EC5F974417C4A77E3D645D197326
:100A340060814FDC222A908846EEB814DE5E0BDB20
:100A4400E0323A0A4906245CC2D3AC629195E47957
:100A5400E7C8376D8DD54EA96C56F4EA657AAE08B1
:100A6400BA78252E1CA6B4C6E8DD741F4BBD8B8A4C
:100A7400703EB5664803F60E613557B986C11D9EB2
:100A8400E1F8981169D98E949B1E87E9CE5528DF29
:100A94008CA1890DBFE6426841992D0FB054BB1655
:100AA400000102030405060708090A0B0C0D0E0FCA
:00000001FF
