S01900004145535F386269742041736D5F666173742E737265630E
S113000045C0000058C0000056C0000054C00000A5
S113001052C0000050C000004EC000004CC00000A0
S11300204AC0000048C0000046C0000044C00000B0
S113003042C0000040C000003EC000003CC00000C0
S11300403AC0000038C0000036C0000034C00000D0
S113005032C0000030C000002EC000002CC00000E0
S11300602AC0000028C0000026C0000024C00000F0
S113007022C0000020C000001EC000001CC0000000
S11300801AC0000018C0000016C0000011241FBED2
S1130090CFEFD0E1DEBFCDBF14E0A0E0B1E0E0E5FA
S11300A0F3E000E00BBF02C007900D92A031B1074E
S11300B0D9F721D14BC1A4CF4EE003C04CE001C01D
S11300C04AE00F921F922F923F924F925F926F924B
S11300D07F928F929F92AF92BF92CF92DF92EF92D4
S11300E0FF920F931F932F933F93CF93DF938F939D
S11300F09F93DB01FC01842FE8944191119021909E
S11301003190419051906190719081909190A19023
S1130110B190C190D190E190F190F1E0D2E00D90D6
S113012040250D9010240D9020240D9030240D9026
S113013040240D9050240D9060240D9070240D9057
S113014080240D9090240D90A0240D90B0240D9047
S1130150C0240D90D0240D90E0240D90F0244EF591
S1130160FF91EF91419311922192319241925192D8
S11301706192719281929192A192B192C192D19223
S1130180E192F192DF91CF913F912F911F910F91C5
S1130190FF90EF90DF90CF90BF90AF909F908F90A3
S11301A07F906F905F904F903F902F901F900F9093
S11301B008958A9509F489F0012D152C592C9D2C4C
S11301C0D02E022D162D2A2C6E2CA02EE12E0F2DB2
S11301D0FB2CB72C732C302EA2CFE42F4081E42DBE
S11301E04080E82D8080EC2DC080E12D0081E52D3C
S11301F01080E92D5080ED2D9080D02EE22D0081CD
S1130200E62D1081EA2D2080EE2D6080A02EE12EB7
S1130210E32D0081EF2D3080EB2DF080E72DB080B1
S1130220702E68947CCFAB0171E060E007C0AB0135
S113023070E060EC03C0AB01772760E8EF92FF92B7
S11302400F931F93CF93DF93FA01EA01DC017695B4
S1130250679566956695262F0D9001922A95E1F78C
S11302606695669563FB362F762F795F770F770F48
S1130270DF011497262FF3E07F0111E04D915D918A
S11302808D919D91321779F0EEF4022F07700430AE
S1130290C9F4F701E42F4081E52F5081E82F8081D4
S11302A0E92F90810FC0360FF701E42F0081E52F6D
S11302B04081E82F5081E92F8081902F4127110F31
S11302C008F41BE1FD01099004260192099005261A
S11302D0019209900826019209900926019223951A
S11302E0271709F0CBCFE894DF91CF911F910F919D
S11302F0FF90EF900895CF93DF93CDB7DEB7C05D45
S1130300D1090FB6F894DEBF0FBECDBF20E1E0E007
S1130310F4E0CE010196DC0101900D922A95E1F7FB
S113032020E1CE014196FC01322F11923A95E9F772
S1130330CE018196BC01CE0101967DDF9E012F5D29
S11303403F4FCE014196B901BBDEE0CFF894FFCF19
S1130350637C777BF26B6FC53001672BFED7AB767E
S1130360CA82C97DFA5947F0ADD4A2AF9CA472C029
S1130370B7FD9326363FF7CC34A5E5F171D8311596
S113038004C723C31896059A071280E2EB27B275B7
S113039009832C1A1B6E5AA0523BD6B329E32F842F
S11303A053D100ED20FCB15B6ACBBE394A4C58CF27
S11303B0D0EFAAFB434D338545F9027F503C9FA8FB
S11303C051A3408F929D38F5BCB6DA2110FFF3D2C9
S11303D0CD0C13EC5F974417C4A77E3D645D19737D
S11303E060814FDC222A908846EEB814DE5E0BDB77
S11303F0E0323A0A4906245CC2D3AC629195E479AE
S1130400E7C8376D8DD54EA96C56F4EA657AAE0807
S1130410BA78252E1CA6B4C6E8DD741F4BBD8B8AA2
S1130420703EB5664803F60E613557B986C11D9E08
S1130430E1F8981169D98E949B1E87E9CE5528DF7F
S11304408CA1890DBFE6426841992D0FB054BB16AB
S1130450C6F8EEF6FFD6DE916002CE56E7B54DEC57
S11304608F1F89FAEFB28EFB41B35F452353E49BA0
S113047075E13D4C6C7EF5836851D1F9E2AB622A9B
S11304800895469D30370A2F0E241BDFCD4E7FEA98
S1130490121D583436DCB45BA476B77D52DD5E138E
S11304A0A6B900C140E379B6D48D67729498B0853B
S11304B0BBC54FED869A66118AE904FEA078254BE8
S11304C0A25D80053F2170F16377AF4220E5FDBF57
S11304D0811826C3BE35882E9355FC7AC8BA32E6F5
S11304E0C0199EA344543B0B8CC76B28A7BC16AD04
S11304F0DB647414920C48B89FBD43C43931D3F201
S1130500D58B6EDA01B19C49D8ACF3CFCAF447104D
S11305106FF04A5C38577397CBA1E83E96610D0F94
S1130520E07C71CC9006F71CC26AAE6917993A2731
S1130530D9EB2B22D2A907332D3C15C987AA50A584
S11305400359091A65D784D082295A1E7BA86D2CB9
S1130550637C777BF26B6FC53001672BFED7AB767C
S1130560CA82C97DFA5947F0ADD4A2AF9CA472C027
S1130570B7FD9326363FF7CC34A5E5F171D8311594
S113058004C723C31896059A071280E2EB27B275B5
S113059009832C1A1B6E5AA0523BD6B329E32F842D
S11305A053D100ED20FCB15B6ACBBE394A4C58CF25
S11305B0D0EFAAFB434D338545F9027F503C9FA8F9
S11305C051A3408F929D38F5BCB6DA2110FFF3D2C7
S11305D0CD0C13EC5F974417C4A77E3D645D19737B
S11305E060814FDC222A908846EEB814DE5E0BDB75
S11305F0E0323A0A4906245CC2D3AC629195E479AC
S1130600E7C8376D8DD54EA96C56F4EA657AAE0805
S1130610BA78252E1CA6B4C6E8DD741F4BBD8B8AA0
S1130620703EB5664803F60E613557B986C11D9E06
S1130630E1F8981169D98E949B1E87E9CE5528DF7D
S11306408CA1890DBFE6426841992D0FB054BB16A9
S1130650000102030405060708090A0B0C0D0E0F1E
S9030000FC
