S01000005049504F5F4156522E7372656394
S113000045C0000058C0000056C0000054C00000A5
S113001052C0000050C000004EC000004CC00000A0
S11300204AC0000048C0000046C0000044C00000B0
S113003042C0000040C000003EC000003CC00000C0
S11300403AC0000038C0000036C0000034C00000D0
S113005032C0000030C000002EC000002CC00000E0
S11300602AC0000028C0000026C0000024C00000F0
S113007022C0000020C000001EC000001CC0000000
S11300801AC0000018C0000016C0000011241FBED2
S1130090CFEFD0E1DEBFCDBF11E0A0E0B1E0ECEFE7
S11300A0F3E000E00BBF02C007900D92A831B10746
S11300B0D9F775D1A1C1A4CF0F921F922F923F926D
S11300C04F925F926F927F928F929F92AF92BF9264
S11300D0CF92DF92EF92FF920F931F932F933F9350
S11300E04F935F93CF93DF93FC01EB01992786E055
S11300F00780168025803480438052806180708020
S11301008F849E84AD84BC84CB84DA84E984F884AF
S11301100F811E812D813C814B815A8169817881B7
S113012009269395082419242A243B244C245D246D
S11301306E247F24A62DA7215A26A32DA5214A2665
S113014074246324A42DA5293A265724A62DA52179
S11301504A26A02DA1212A26A12DA2290A26A02DB6
S1130160A2291A262094712432244024A72DB32DC9
S1130170C42DDA2FD5216D26A625DB2FDC2B6D2689
S1130180B525DC2FD6295D26DA2FDB23CD272A26B9
S1130190AC2FA1251B2E1024072C7A2EB32D362C20
S11301A06B2EC42D452C5C2EAA2710FA169417F832
S11301B02294329430FA369437F84294440C4A1E0E
S11301C0440C4A1E5294550C5A1E660C6A1E770C37
S11301D07A1E770C7A1E092693950026112622266C
S11301E033264426552666267726A62DA7215A2689
S11301F0A32DA5214A2674246324A42DA5293A26D7
S11302005724A62DA5214A26A02DA1212A26A12DB9
S1130210A2290A26A02DA2291A2620947124322468
S11302204024A72DB32DC42DDA2FD5216D26A62564
S1130230DB2FDC2B6D26B525DC2FD6295D26DA2FA6
S1130240DB23CD272A26AC2FA1251B2E1024072C17
S11302507A2EB32D362C6B2EC42D452C5C2EAA275A
S113026010FA169417F82294329430FA369437F828
S11302704294440C4A1E440C4A1E5294550C5A1E75
S1130280660C6A1E770C7A1E770C7A1E09269395E3
S1130290082419242A243B244C245D246E247F241E
S11302A08A958A1347CFA62DA7215A26A32DA521C7
S11302B04A2674246324A42DA5293A265724A62D5E
S11302C0A5214A26A02DA1212A26A12DA2290A264C
S11302D0A02DA2291A262094712432244024A72D6B
S11302E0B32DC42DDA2FD5216D26A625DB2FDC2BCB
S11302F06D26B525DC2FD6295D26DA2FDB23CD2705
S11303002A26AC2FA1251B2E1024072C7A2EB32DC0
S1130310362C6B2EC42D452C5C2EAA2710FA16946D
S113032017F82294329430FA369437F84294440CF5
S11303304A1E440C4A1E5294550C5A1E660C6A1EE0
S1130340770C7A1E770C7A1E0926939500261126BF
S113035022263326442655266626772600821182D5
S1130360228233824482558266827782DF91CF91E2
S11303705F914F913F912F911F910F91FF90EF90BB
S1130380DF90CF90BF90AF909F908F907F906F90B1
S11303905F904F903F902F901F900F900895CF93B0
S11303A0DF93CDB7DEB768970FB6F894DEBF0FBE04
S11303B0CDBF88E0E0E0F1E0DE01519601900D92BE
S11303C08A95E1F780E1E8E0F1E0DE011196019021
S11303D00D928A95E1F7BE016F5F7F4FCE01419682
S11303E06BDE80E090E068960FB6F894DEBF0FBE37
S10F03F0CDBFDF91CF910895F894FFCFAA
S11303FC098552F61E2700266DC416DD779428D283
S10B040C7E1D20AD2E15229780
S9030000FC
